:020000022000DC
:1070000000000420E5D7040025D8040027D8040098
:1070100029D804002BD804002DD80400000000005B
:10702000000000000000000000000000FDD6040089
:1070300031D80400000000001DD7040035D804003A
:1070400041DA040037D8040037D80400A5760300DD
:107050005977030037D8040075AE040037D8040010
:1070600037D8040037D8040037D8040037D80400D4
:1070700037D8040037D8040037D8040037D80400C4
:1070800037D804004DD4040037D8040037D80400A2
:1070900037D8040037D804009589040037D8040095
:1070A00037D8040037D8040037D8040037D8040094
:1070B00037D8040037D804000000000000000000AA
:1070C00037D8040037D8040037D80400BDE30400E3
:1070D00037D8040037D8040037D80400DDB40300E3
:1070E00037D8040075DF040037D804000000000022
:1070F0000000000037D804000000000035E4040060
:10710000000000000000000000000000000000007F
:10711000000000000000000000000000000000006F
:10712000000000000000000000000000000000005F
:10713000000000000000000000000000000000004F
:10714000000000000000000000000000000000003F
:10715000000000000000000000000000000000002F
:10716000000000000000000000000000000000001F
:10717000000000000000000000000000000000000F
:1071800000000000000000000000000000000000FF
:1071900000000000000000000000000000000000EF
:1071A00000000000000000000000000000000000DF
:1071B00000000000000000000000000000000000CF
:1071C00000000000000000000000000000000000BF
:1071D00000000000000000000000000000000000AF
:1071E000000000000000000000000000000000009F
:1071F000000000000000000000000000000000008F
:10720000F1EE103A43F08073E1EE103A704700BFA0
:1072100010B5054C237833B9044B13B10448AFF3D0
:1072200000800123237010BD88630020000000004F
:107230006CB7050008B5034B1BB103490348AFF316
:10724000008008BD000000008C6300206CB70500C2
:10725000154B002B08BF134B9D46A3F5803A002128
:107260008B460F461348144A121A2DF0BFF80F4BE5
:10727000002B00D098470E4B002B00D098470020E1
:10728000002104000D000D48002802D00C48AFF387
:1072900000802CF0EBFF2000290026F0FBFA2CF0F8
:1072A000BFFF00BF00000800000004200000000035
:1072B00000000000886300203C9D002000000000CA
:1072C0000000000010B5174800F088FE154807F0D0
:1072D000FBFC15480BF0A4FE0121162027F06EFCE4
:1072E0001620002127F0EEFC104B1868002802DB66
:1072F000022127F063FC0E4C2068002809DB0121E5
:1073000027F05CFC2068012127F0DCFC094B0022FF
:107310001A70044801F026F8BDE8104002480BF04E
:1073200087BE00BFA8630020A46300201460002073
:10733000186000205A66002001480DF043BC00BFD1
:10734000A463002008B5044800F046FEBDE80840EC
:1073500002480BF063BE00BFA8630020A4630020B6
:107360002DE9F84F114648481A461D462DF016F8EB
:10737000464B93F90030012B06D1454B93F9002081
:10738000012A04BF02221A703F4A1378312B53D1CD
:1073900093795679D179D4789078177A92F80180D8
:1073A0001B0403EB066303EB01232402117904EBB6
:1073B0000044DF190C4457D1B8F1000F4AD0354BC7
:1073C000DFF8E0B01968344ED94600254FF0310A95
:1073D0003768324A8BF800A04FEA244C631E201213
:1073E0008BF801C08BF803403B448BF8020004F19A
:1073F0001C0EC4F1040C06E0013413F8010F02F86E
:10740000010F744509D08C420CEB0400F4DBC0F191
:107410002002002158442CF0E9FF214B494618680E
:1074200020221FF06DF91B4B1968A14217DD0135B1
:10743000A845CDD1BDE8F88F28460DF093FC194939
:107440000B78002BF6D0164B20221868BDE8F84FB9
:107450001FF056B90F4B1B68A342EBDC0E4E306891
:10746000BDE8F84F23F018BF0B4E291F306808FB0A
:1074700001F1651A284400F095FD874218BF2C469B
:10748000B8F1000F9BD1E5E7AC6700200E64002047
:107490000F640020D8670020D46700200F68002008
:1074A000C46300200C68002010B584B0044608496D
:1074B000684620F037FD6946204620F0F3FC684618
:1074C00020F010FD034B2360204604B010BD00BF28
:1074D0006C730500EC7305002DE9F04186B024497A
:1074E000244FDFF8A080044602A820F01BFD58209E
:1074F00026F010FA01262023122202A90096054642
:107500001FF032F802A83D6020F0ECFC1A4902A8F6
:1075100020F008FD582026F0FDF92023082202A9BA
:10752000009605461FF020F802A8C8F8005020F089
:10753000D9FC124B002220461A6020F097FC10B1B3
:1075400006B0BDE8F081D8F800000D4932461FF0C2
:1075500079F8D8F8000003689B6898470028EFD1B5
:10756000386803689B68984706B0BDE8F08100BFA3
:1075700094730500C4630020BC730500CC63002035
:1075800061730200C8630020BFF34F8F0549064BAB
:10759000CA6802F4E0621343CB60BFF34F8F00BFB1
:1075A000FDE700BF00ED00E00400FA0508461146C3
:1075B0002DF0C6BD084623F06FBE00BF084623F07D
:1075C00051BE00BF2DE9F0418B8E4FF6FF72934202
:1075D00082B00C46054616D0CA6AD90902EBC10230
:1075E00003F07F01526832F83100A08602EBC1023D
:1075F00000204FF6FF71107128462A60AB80D180C1
:1076000002B0BDE8F081098E2768002932D1638E6F
:10761000002B00F085800123E66A5A4A23864FF446
:1076200080604FF080083B681B68934274D123F060
:1076300019FE238EE76A7060013B9BB207EBC30122
:1076400000284A6808BF4FF000080020A6F8008014
:10765000708022B137F83360488886422ED80121E5
:1076600000224FF6FF73284621712A60AB8002B0DA
:10767000BDE8F081E66A4B1E9BB206EBC30E3046B6
:10768000DEF804202AB1BEF802C036F83380E045A7
:107690001CD8638E994223D03A4A4B1C9BB2B3F557
:1076A000007F00EBC106238615BF4FF480604FF4C6
:1076B0007E704FF080084FF07F08B4E700EBC313F3
:1076C000441C9BB202EBC0024C8091E70CEBC3134D
:1076D0000CF101019BB202EBCC02AEF8021087E77D
:1076E000B3F5007FBBD004F10C025B0096421FFA99
:1076F00083F83B6816D024489B6883424FEAC80150
:1077000035D130462DF01CFD0028A8D01D4A218E11
:10771000E062A4F83280C0E701463846984788E71F
:10772000E66AE0E7174A1B68019293424FEAC800F5
:1077300022D123F097FD019A002890D0D6F800C0FE
:107740007168B368D6F80CE0C0F80CE0C0F800C06F
:1077500041608360D6F810C07169B369D6F81CE047
:10776000C0F81CE0C0F810C041618361CFE70A4651
:10777000384631469847C7E7014638469847019A48
:10778000DAE700BFBD750200AD7502002DE9F041DA
:107790008B8E4FF6FF72934282B00C46054611D095
:1077A000CA6AD90902EBC10203F07F01526832F8BC
:1077B0003100A08602EBC10228462A60AB8002B0ED
:1077C000BDE8F081098E2768002932D1638E002B35
:1077D00000F085800123E66A594A23864FF48060D1
:1077E0004FF080083B681B68934274D123F03AFD48
:1077F000238EE76A7060013B9BB207EBC301002850
:107800004A6808BF4FF000080020A6F8008070808A
:1078100022B137F83360488886422ED801210022F1
:107820004FF6FF73284621712A60AB8002B0BDE895
:10783000F081E66A4B1E9BB206EBC30E3046DEF8C3
:1078400004202AB1BEF802C036F83380E0451CD8C7
:10785000638E994223D03A4A4B1C9BB2B3F5007F0A
:1078600000EBC106238615BF4FF480604FF47E7095
:107870004FF080084FF07F08B4E700EBC313441CBF
:107880009BB202EBC0024C8096E70CEBC3130CF1E9
:1078900001019BB202EBCC02AEF802108CE7B3F50B
:1078A000007FBBD004F10C025B0096421FFA83F804
:1078B0003B6816D023489B6883424FEAC80135D104
:1078C00030462DF03DFC0028A8D01D4A218EE062F4
:1078D000A4F83280C0E701463846984788E7E66A50
:1078E000E0E7174A1B68019293424FEAC80022D191
:1078F00023F0B8FC019A002890D0D6F800C0716837
:10790000B368D6F80CE0C0F80CE0C0F800C04160E5
:107910008360D6F810C07169B369D6F81CE0C0F86E
:107920001CE0C0F810C041618361CFE70A463846C9
:1079300031469847C7E7014638469847019ADAE743
:10794000BD750200AD75020070B5456A6A1C1F2A3C
:1079500004460E4604D8631962621E71012070BD90
:107960004319014600251D7151F8040B23F09CFBBF
:1079700008B10122EFE7656A002DFAD070BD00BFA3
:107980002DE9F84307464068BD68032D884600F19D
:10799000080613D85FFA85FC002D77D00CF1FF3470
:1079A00056FA84F4C31D002213F8011F002908BFF2
:1079B00042F00102A342F7D1002A40D000237355C0
:1079C000D7F80090BE68D9F80830A3B106F1070CCB
:1079D0008444DA8896420BD13EB3C21DDC1D01E01F
:1079E000944522D012F8011F14F8015FA942F7D084
:1079F0001B68002BEDD1B6F5803F7D68D9F80040BB
:107A000034D2236828489B68834206F1090140D19B
:107A100028462DF095FB034643B33A68DE80916813
:107A2000196000219360796002E09A8801329A809F
:107A30000522C8F8003088F80420BDE8F883022346
:107A400088F80430037A88F80030BCF1010F08D0C0
:107A5000437A88F80130BCF1020F02D0837A88F8AB
:107A60000230002308F80530BDE8F88323680F4A88
:107A70005B68934213D02946204698473A68002312
:107A80009268012189F804101A60FFDE02230B714D
:107A9000E7E70A462046294698470346BCE72846BA
:107AA00023F0FAFBEAE700BFAD750200B5750200EE
:107AB0002DE9F04745684DB18368EA889342044652
:107AC0000E4605D01D440133A3602E72BDE8F08739
:107AD0005B00D0F800905F1CB7F5803FD9F80080BC
:107AE00012D2D8F800201549D2F808A08A4503F12F
:107AF0000A021CD1114628462DF022FB20B1C78076
:107B0000A36860600546DDE7D8F800300C4A5B6882
:107B1000934208D1284623F0BFFB0122002389F8B5
:107B200004206360D2E7294640469847F5E7294696
:107B30004046D0470028E2D1E6E700BFAD7502001D
:107B4000B575020003792DE9F0470C46D9070546C3
:107B500037D4DA0624D413F0600F1DD02E884FF6E8
:107B6000FF77BE4215D0E36AF20903EBC20306F0C9
:107B70007F09D3F8048008EBC900B246C6882146C5
:107B8000FFF7E0FFA38E28F83930BE42A4F834A0F6
:107B9000E9D14FF0FF332B6000232B71BDE8F08754
:107BA0002A884FF6FF718A4237D0E16AA68ED00943
:107BB00001EBC00102F07F00496821F83060A28625
:107BC000C9E7A0682A6826680028C2D0824216D079
:107BD000014600680028BCD08242F9D18288013A6F
:107BE00092B28280002AB4D103680B6033680C4AD9
:107BF0005B6893420CD123F04FFB2B79A9E7828875
:107C0000013A92B28280002AA3D10368A360EDE713
:107C10000146304698472B799BE700231B80FFDE07
:107C2000B57502002DE9F04F0E46097885B02B2975
:107C3000009000F0DE802D2940F09A8071780120BC
:107C400001900644A1F13000C0B2092800F29880EA
:107C5000DFF84C93C0B20021002400254FF0993882
:107C600016F801BF2418ABF13007FFB241EB050550
:107C70004FEA850E092F6FEA07024FF0FF334FEAF4
:107C8000840C4EEA947EF8B24FF0000100F2FF80BF
:107C9000A94508BFA0450BD31CEB040C4EEB050E09
:107CA0001CEB0C044EEB0E05AB4208BFA242D7D230
:107CB0004FF0000A0023204629460A222CF0EAF859
:107CC000A946A0461FFA8AF3B9F5200F03F1010A6D
:107CD00008BFB8F1000F04460D460FFA8AFAE9D240
:107CE000092F0BD802339B1B06EB030A16F801BFC2
:107CF000ABF13002092A0FFA8AFAF5D9BBF12E0F3F
:107D000000F097800BF0DF03452B42D0BBF1000F52
:107D100038D10AF126034C2B00F2DB80002D08BF7E
:107D2000B4F5000F80F0D58007EE904ABAF1000F4D
:107D3000F8EEE77A40F3128192490022D3B21AF0AA
:107D4000010F01EB83031CBF93ED007A67EE877A86
:107D50005FEA6A0A02F10102F0D1019B0BB1F1EE78
:107D6000677A009A0123C2ED027A137010460DE083
:107D700000200190A1F13000C0B209287FF668AF61
:107D80002E2952D0009A00231370104605B0BDE88A
:107D9000F08F96F801B0BBF12D0F35D0BBF12B0F52
:107DA00000F0CB80ABF13003DAB2092A06F101060C
:107DB000ACD80AEB0302B2F59A7F00F3B280002739
:107DC00006E002EB400303EB0A02B2F59A7F77DC90
:107DD00016F801BFABF13002D1B2092903EB8300E1
:107DE000EFD9002F40F0A2809A44BBF1000F90D051
:107DF000C8E7717800200190A1F13000C0B20928D5
:107E000006F10106BCD823E796F802B0ABF13003C7
:107E1000DAB2092A06F102063FF678AF0AEB03024E
:107E2000B2F59A7F4DDC0127D2E7002400254FF000
:107E3000000A96F801B0ABF13000C0B2092806F193
:107E400001063FF65FAF504B4FF099329D424FEA2B
:107E5000850108BF94424FEA840741EA94710ED22B
:107E60003F1945EB010117EB070841EB01090AF146
:107E7000FF3A18EB00040FFA8AFA49F1000516F8E8
:107E800001BFABF13000C0B20928DFD93AE7BBF13E
:107E9000000F6ED1019B8BB1B5F1004F08BF012CD3
:107EA000BFF406AF644265EB45050223009A104615
:107EB000C2E90245137005B0BDE8F08F0323F5E772
:107EC0007FB300994FF00042012308468A600B708F
:107ED0005CE7204629462BF075FCBAF1000F43DD24
:107EE0002A4D002404E05FEA6A0A04F101040AD082
:107EF0001AF0010FF7D0E3B205EBC303D3E9002377
:107F00002BF096FCEFE7019B13B101F100431946FA
:107F1000009A0423C2E902011046137005B0BDE8BF
:107F2000F08F019B0020BBB11949F1E7AAEB030ACE
:107F3000BBF1000F3FF4EDAE24E796F802B0ABF1D1
:107F40003003DAB2092A06F102067FF632AFBBF13E
:107F5000000F3FF4DEAE15E70E49D9E73FF4FDAE62
:107F60000D49CAF1000AE8E6CDD00C4DCAF1000A6D
:107F7000B7E7B5F5801F08BF002CBFF499AE4FF0EE
:107F8000000ABBE63077050099990100907705005B
:107F90000000F0FF0000F07F18770500487705002B
:107FA00099999919002913DD421E10B4094C114406
:107FB0004FF0FF3012F8013F4340DBB2914254F8DA
:107FC000233083EA1020F5D1C0435DF8044B70479D
:107FD00000207047D8770500704700BFF8B523F040
:107FE00019F922F089FF3048304F314E1DF012FB55
:107FF000304B314931484FF6FF744FF0FF32C3E93F
:108000000022C3E90922C3E91222C3E91B229A8193
:10801000C3F81220C3F81620C3F83620C3F83A205C
:10802000C3F85A20C3F85E20C3F87E20C3F882202C
:108030001C815C83DC839C851C86DC87A3F8424022
:10804000A3F85040A3F85440A3F86240A3F8664058
:10805000A3F87440A3F87840A3F88640A3F88A40B8
:10806000174B3C800C8017490480C3E90022C3E908
:1080700002221548154B348000250B60144E4FF436
:108080009663038029462022124835702CF0AEF901
:10809000114B1248124A1D701249134B047015708F
:1080A0000D701D80F8BD00BF3C7600206A64002082
:1080B00068640020E06400203E6600202E660020F8
:1080C0006C6400204464002006660020801A0600CC
:1080D0002C66002024640020AC6400205B66002035
:1080E000D0630020C4640020B065002008B5FFF70D
:1080F0004BFA00BF2DE9F04F9148924C9346002275
:10810000228002809BF80040A3B0012CCDE901132E
:108110001CD0022C24D0032C00F0A180042C00F0F1
:10812000CC80052C00F0D780092C00F0F980029B50
:10813000002B07DD9BF800305A1E042A13D9073B99
:10814000022B10D9019823B0BDE8F08FDBF8043082
:108150001868596805AB03C39DF81830002B35D15A
:10816000029B002BEEDDDBF80830186859689A682E
:108170000AAB07C39DF83060BDF92840002EE1D05E
:10818000714A724B1788D3F800C0019807EB47017A
:1081900006440CEBC1014FF6FF75634637B90DE09D
:1081A000A24208BF58801833994207D0B3F9022081
:1081B0008242F5D15D8018339942F7D10130B04247
:1081C00004F10104E9D123B0BDE8F08F242212FBB1
:1081D0000303DFF88C91CDF80CB08246022602270B
:1081E0009B469AF800105A4BA1F1200833F9183039
:1081F000002B43DB5ED09AF81010CDE91267CDE971
:108200001467CDE91667CDE91867CDE91A67CDE99E
:108210001C67CDE91E67CDE9206761B1DAF804205B
:108220000120114412F8013B22AC04EB830391427C
:1082300043F8400CF6D111AD002455F8042F59F83D
:108240002800E1B2D2B2013417F0F0F8102CF4D1CA
:108250000AF1240AD345C4D1DDF80CB067E7DBF896
:108260000430186859681C8907AB03C301229DF8C4
:108270001C1038481C800EF0BDFE58E7102025F079
:1082800049FB044617F09AF8314A49F82840002380
:1082900022F818309AF800102F4A204617F0B0F84C
:1082A0000028D5D02D4A012342F82830284A22F848
:1082B0001830A0E759F82840EEE7DBF804301868DA
:1082C00059681C8907AB03C322489DF81C101C8009
:1082D0000EF090FE2BE7DBF80440E368206861684D
:1082E000A2680DAE0FC6206930600DAA9DF834104B
:1082F00018480EF01FFF642022F098FF9DF83410FC
:1083000014480EF043FF0DACADF846000FCCDBF87F
:10831000044020606160A260E3603068206106E78D
:10832000DBF80430186859681A8907AB03C31A8050
:108330009DF824209DF81C1006480EF091FEF6E6EC
:10834000DA630020D86300205066002054660020C5
:108350006C640020646600205468002024640020BF
:10836000486400202DE9F04FC94CCA4B87B0B4F9DE
:1083700000A0B3F9003069460AEB8A0202AFA1EB14
:10838000C20295464FEA8A02BA60002B02AA05464D
:10839000FA600FDDDFF84C830026D8F800300121A9
:1083A00033F9160026F00AFCBA4BB3F90030013657
:1083B000B342F2DCB84BB3F90030002B0FDDDFF82D
:1083C00028830026D8F80030022133F9160026F061
:1083D000F5FBB14BB3F900300136B342F2DCAF4BE1
:1083E000B3F90030002B0FDDDFF800830026D8F84A
:1083F0000030022133F9160026F0E0FBA74BB3F959
:1084000000300136B342F2DCB4F90000002840F33A
:10841000EC81DFF890820026D8F80030002133F993
:10842000160026F0CBFBB4F900000136B0428646B8
:10843000F2DC002800F08880994B9A4E984294BF55
:1084400040004FF0FF3025F067FA974BD7F80C90BB
:108450001860BB683D609A087A604FF00A089B4636
:10846000B4F90030002B0FDD4D464FF0000A3368A1
:1084700033F91A0026F074FBB4F9003045F8040B08
:108480000AF1010A5345F2DC0A2022F0CFFEB8F1CE
:108490000108D944E4D1B4F900E03D68BEF1000F11
:1084A00052DDD7E902321A44D11801EB030909EB76
:1084B000030A7B687C487E68006803EB830CFB68DA
:1084C000043B3601FB60A9F104037B60A6F1040EB6
:1084D0000238D7F80490B8600B1F043AAAF10401DF
:1084E0004FEA8C0CF2447D60FD6853F804BF55F8E8
:1084F00004EFFD6052F8045F53F80C00754459F81E
:1085000004EF5D4451F804BF7544AB449559AB4446
:108510009D59AB445AF8045F834451F80C000BEBAF
:10852000050E0EEB0005614880FB050EB868ED17DF
:10853000C5EBAE0520F8025FB4F900E0B86008F1C1
:108540000108C645D0DC7D68544B5348B3F9001090
:10855000504B574A1B880088B2F90020DFF8908101
:10856000544E13FB00131344B8F900205249002461
:108570007344A24233600C702FDDDFF87891D9F894
:108580000030A24623440221587826F017FBD9F880
:10859000003023440221987826F010FBD9F80030EF
:1085A00023440221D87826F009FBD9F8003023446F
:1085B0000221187926F002FBD9F800301A5D002A52
:1085C00040F0B2803268B8F900100AF1010A0132B5
:1085D000514504F11C043260D4DC384BB3F900106F
:1085E000002905DB364BB3F90020002A80F2B98060
:1085F000344C3548B4F90020344900239A420360D2
:108600000B80C0F2EB80DFF8F080B8F90030002B6F
:1086100000F39480202200212D482E4C2BF0E6FE02
:108620002D492E4A2E48DFF8D4C00023C1E900337B
:108630008B60C0E90033C2E90033C2E902338360D2
:1086400030688CF80030238025F066F9A860306827
:1086500025F062F93368124AE860934294BF5800EB
:108660004FF0FF3025F058F933680D4A68619342A6
:1086700094BF58004FF0FF3025F04EF93368286161
:10868000002B4BDD00231A464FF6FF7C38E000BF7D
:10869000FC630020DC630020EE650020F463002012
:1086A000FCFFFF3F006400200464002067666666EC
:1086B0005E66002080640020C56400206A6400209B
:1086C000686400203E660020D4630020D26300204E
:1086D0000C6600203C6600203066002040660020CA
:1086E000F8650020E0630020F0650020F8630020BA
:1086F000CC640020C86400200666002004660020C8
:10870000A968CA54E968CA54D5E90404316824F850
:10871000132020F813C001339942F1DC00231437F1
:108720002B83BD46BDE8F08FB8F900200AF1010A9D
:10873000524504F11C043FF725AF4EE7342025F0E5
:10874000E9F8354B354922781B780978044621F041
:1087500091FA334BB8F900101C60204621F0A4FABE
:1087600058E7DFF8CC802F482F4CD2B2C9B20EF0B8
:108770008FFED8F800102B480EF06CFE29480EF042
:108780000DFEB4F90030002B0BDDDFF8A890B9F92D
:108790000030002B05DDDFF8A0B0BBF90030002B66
:1087A00025DCDFF89880B8F90030002B7FF720AF88
:1087B0003168DFF88C900024D9F8003004EB4402D3
:1087C00003EB820228460123FFF794FCB8F900303E
:1087D00030600134A3420146EEDC09E70F4BB3F9E8
:1087E0000030002BBFF60FAF14E7864621E61420B9
:1087F00025F090F882460EF0BFFBD8F800300B4809
:1088000000932378C0F800A0BBF90020B9F900104C
:1088100050460EF0B9FBC4E72C6600202E660020FF
:108820007C640020546800200C600020D06400208C
:1088300044640020106000200E60002020640020AE
:108840001C640020144A1268F8B5144B002A0E4626
:108850000746196004DD00695200FF212BF0C6FDB8
:108860000F490D8865B10F4B1A680023023232F9A7
:10887000024CB44205D001339D4202F11802F6DCED
:10888000F8BD32F9180B3C6924F810300D8801331B
:10889000AB42ECDBF8BD00BF80640020F465002033
:1088A0005066002054660020F0B42A4CBDF91050E8
:1088B0002468944207462BD027490E88E6B1274901
:1088C0000024096803E0B44201F1180114D0B1F9A1
:1088D0000050954204F10104F5D1B1F9020098422B
:1088E000F1D10C460FCC3D460FC594E8030085E856
:1088F00003003846F0BC70474FF0FF334FF420417F
:1089000078223B603B81B980BA713846F0BC704731
:10891000096931F913100029EEDB35B90F4B1C68DA
:1089200001EB410104EBC104DCE7012DC4D10B4B89
:108930001B6801EB410103EBC1010B7C002BDBD079
:108940004D690FCD3C460FC495E8030084E8030051
:10895000DBE700BFF465002050660020546600206D
:108960002DE9F04F2DED028BAFB0CDE9041302924B
:108970001278012A77D108EE100A029A5368946897
:1089800018685968A26809AB03C320689DF828508D
:108990006168019512AB07C3002D00F03A81099C74
:1089A0000025AA464FF6FF79A04614E0BC4B53F8C9
:1089B000220016F009FD002844D02EAB03EB4A023A
:1089C000C04322F8400C0AF1010A019B0135AB4279
:1089D00008F124086AD098F80020B24B203A33F905
:1089E00012100029F1DD98F81060002EDED098F802
:1089F00018100029DAD0B8F80830A949009351F8C6
:108A0000227013F47F41DAB25FD1002A40F0B280C5
:108A1000564493461EAC384616F0D6FC009B63EADB
:108A2000000378B1484535D024F81A300AF1010A1C
:108A3000B245CAD0384616F0C7FC009B63EA000373
:108A40000028EFD10A2022F0F1FB029C00232246ED
:108A5000194618EE100AFFF74DFB0A2022F0E6FB3C
:108A60002278012A89D0022A00F06C81D31E012BC2
:108A700040F2D280092A00F0CF80052A00F0D2818E
:108A8000072A00F03081082A00F0B88208254FF04C
:108A9000000A0EE024F81AB00AF1010AB245BAD170
:108AA000019B0135AB4208F1240894D1029B1A784E
:108AB0001025531E042B2FD9073A022A2CD9002047
:108AC0002FB0BDEC028BBDE8F08F002A75D11EAB34
:108AD00003EB4A0B564403925C4609E048450AF111
:108AE000010A08BF039B2BF8023BB2453FF46DAF70
:108AF000ABEB0403D8F80C20D15A38460122090AFE
:108B000016F0F0FC384616F05FFC009B63EA0003A9
:108B10000028E3D196E708259DF850000028CFD023
:108B2000049B139C591E059B0B440AF1FF37194601
:108B30002EAB04EB400603EB47070DF1B80C34F9FC
:108B4000023B93FBF5F20CEB420C524505FB123352
:108B5000ACBF37F8402C3CF8402C42FA03F303F04A
:108B60000103B44201F8013FE7D12FB0BDEC028B05
:108B7000BDE8F08F1EAB03EB4A0B564403915C46F5
:108B800009E048450AF1010A08BF039B2BF8023BA4
:108B9000B2453FF41AAFABEB0403D8F80C10002237
:108BA000C95C384616F09EFC384616F00DFC009B5A
:108BB00063EA00030028E4D144E72EAB06EB0A0B7E
:108BC00003EB4A060024423E0BE048450AF1010A45
:108BD00008BF0023DA4526F8023F04F102043FF4FF
:108BE000F4AED8F80C30195B0122090A384616F0A9
:108BF00079FCD8F80C300022195D384616F072FC6A
:108C0000384616F0E1FB009B63EA00030028DCD144
:108C100018E7AA4610257FE7029A536894681868F7
:108C200059681D89A2680FAB03C3206861681D8065
:108C300012AB07C31C4C22F0EDFA2368834237D9EC
:108C40001A48027845788378C17800799DF84040C9
:108C5000012C00F0E480022C00F06B81032C0BBF90
:108C60005C1AAC1AA91AC91A54EA01034DD1029A26
:108C700012784FF0010A010600F1CF809DF84510EF
:108C800021B110F0080F14BF802100212EAC00F09C
:108C9000400004EB4303084323F8400C082508E791
:108CA000486400206C640020D4630020D464002059
:108CB00022F0B0FABDF942509DF83C20C949054464
:108CC000256007A8C84C0EF011FA07999DF82000FE
:108CD00021609DF81C209DF81D509DF81E309DF8C8
:108CE0001F102071B2E7029BC04D9B68186859683D
:108CF0009A6812AB07C30FCD1EAC0FC495E80F00E6
:108D0000102584E80F00AA4606E76FF07E05029B57
:108D1000AC421A782346B8BF2B468D42B8BF0D46E9
:108D20007F2BA8BF7F237F2DA8BF7F25032A1E4648
:108D30002CD0092A2AD0042A00F040814FF0010AE1
:108D4000002398E7029A5368946818685968A268E3
:108D50000BAB03C3206861689DF830A012AB07C35A
:108D6000BAF1000F3FF4D7AE0B9C9E4F0AEB0406FE
:108D70001EAD14F8011B38460EF0AAF9B44225F8CE
:108D8000020BF6D1029B08251A7892E6984B1F78C1
:108D9000002F00F0D180002903D0D4BF01214FF073
:108DA000FF31002C00F0A68140F3A6814FF0010CAA
:108DB000904BB3F90040002CC0F25981B4F5005F2C
:108DC00000F05581B3F91040002CC0F26282B4F576
:108DD000005F00F05E82B3F92040002CC0F2E38116
:108DE000B4F5005F00F0DF81B3F93040002C02DB06
:108DF000B4F5005FA2D1032403EB04131D464FF426
:108E0000A4260027E5E8026764241981A3F80AC0B4
:108E10004FF0010A6C6000232DE7802136E7CC1A61
:108E2000511B21E7029BD3E9014720686168A268D2
:108E3000E368E67C19AD0FC5206928607968386859
:108E4000BA688DF8776012AD07C5BDF87630227824
:108E5000644915A80EF0CEF9B246002E92D09DF8C6
:108E60005430ADF87830012E8CD09DF85530ADF8E7
:108E70007A30022E86D09DF85630ADF87C30032E25
:108E800080D09DF85730ADF87E30042E3FF47AAF95
:108E90009DF85830ADF88030052E3FF473AF9DF843
:108EA0005930ADF88230062E3FF46CAF9DF85A3041
:108EB000ADF88430072E3FF465AF9DF85B30ADF818
:108EC0008630082E3FF45EAF9DF85C30ADF88830F8
:108ED000092E3FF457AF9DF85D30ADF88A300A2E69
:108EE0003FF450AF9DF85E30ADF88C300B2E3FF460
:108EF00049AF9DF85F30ADF88E300C2E3FF442AF95
:108F00009DF86030ADF890300D2E3FF43BAF9DF8EA
:108F10006130ADF892300E2E3FF434AF9DF86230E0
:108F2000ADF894300F2E1CBF9DF86330ADF896302D
:108F300028E7541B591A97E610F0020400F09980B4
:108F40002D490B882B441BB21E2B40F39B810F80B5
:108F50004FF0FF37274BB3F900100029C0F29D8175
:108F6000B1F5005F00F09981B3F910100029C0F24B
:108F70009281B1F5005F00F08E81B3F920100029D5
:108F8000C0F29581B1F5005F00F09181B3F9301026
:108F9000002903DBB1F5005F7FF4D0AE03210D01A2
:108FA0004FF4A42603EB01115E51642400230F81CA
:108FB000CC604B604B814FF0010A5CE60023A71C9C
:108FC000ADF8783080F2018185EAE5747342A4EB54
:108FD000E574A34240F3E9800123ADF878304FF007
:108FE000020A48E664660020D46400200C66002073
:108FF000C464002070650020DA630020029A536880
:109000009468186859681D89A2680FAB03C320686B
:1090100061681D8012AB07C39DF83C20B7490DA8BD
:109020000EF020F99DF835E0BEF1000F70D1B44884
:109030000788FB1E062B62D8B2490B88132B8CBF06
:1090400000270127B04CB14A2380BFB2012313800F
:10905000AF4CB04A0023238003800B801380029B17
:10906000ADF878701A7808254FF0010A21E5002440
:10907000C2E610F0010100F0D480A7490B88334408
:109080001BB21E2B40F3C4800C800124A34BB3F908
:1090900000100029C0F2BA80B1F5005F00F0B68080
:1090A000B3F910100029C0F20681B1F5005F00F09D
:1090B0000281B3F920100029C0F2FB80B1F5005FF6
:1090C00000F0F780B3F93010002903DBB1F5005F41
:1090D0007FF434AE03210D014FF4A42703EB0111FB
:1090E0005F51002364254C814B600B81CD604FF0B4
:1090F000010AC0E5A4465BE64FF0FF3C58E6002FAE
:1091000040F0D180814A7F49138801339BB29EE7AA
:109110007F4EBDF838403788BDF83A007D4DDFB34B
:10912000B5F800C0BCF1000F00F01F819DF8403081
:10913000012B00F01581022B00F01981032B00F0A8
:109140000A81E71B7A00ACEB0001BEF1010F734B03
:109150004FF0000700F0E4804FEA071C013733F9B5
:109160000CE0BEF1000FC0F2A880BEF5005F00F079
:10917000A480042FF0D10027DFF888C181EAE173D1
:10918000002AA3EBE173B8BF5242BCF800101344AD
:109190000B44BFB2ACF80030594A348013882880A1
:1091A000013313805BE7022426E68C1C1FDA86EA73
:1091B000E6736D42A3EBE6739D4214DD0423ADF824
:1091C00078304FF0020A012355E5022CEDDD85EAE7
:1091D000E573A3EBE573B342E7DA0223ADF8783029
:1091E0009A46012347E54FF0020A012343E502298D
:1091F000F9DD86EAE673A3EBE673AB42F3DA082304
:10920000ADF878304FF0020A012334E5002162E71F
:1092100013F11E0FB3BF0C800B8000244FF0FF34FE
:1092200034E73E4BB3F90040002C19DBB4F5005F86
:1092300016D0B3F91010002933DBB1F5005F30D040
:10924000B3F9201000292ADBB1F5005F27D0B3F96C
:109250003010002903DBB1F5005F7FF46FAD03210F
:1092600009014FF4A4275F505C1808310027A6803D
:10927000BDF93E60E5804FF0010A5F503B46E78153
:10928000A681F8E413F11E0FB6BF0F800B800127F3
:1092900060E60124B0E5012181E600217FE602219C
:1092A000DEE70121DCE7174977460B88CAE6022191
:1092B00075E602210FE701210DE703EB0C0E0027F5
:1092C000002A4FF4A42843F80C80CEF80470174607
:1092D000B8BFD71CBF100029AEF808700F46B8BF42
:1092E000CF1C03EB0C0EBF1063447F424FF0640CA5
:1092F000AEF80A700027C3F80CC03DE76466002092
:10930000EE630020E8630020EA630020EC630020A5
:10931000E4630020E6630020D8630020706500202D
:109320004FEA071E013733F90EC0BCF1000F23DBF3
:10933000BCF5005F20D0042FF2D11A4B1B88043BF0
:109340009BB2192B3FF617AF174B1B88132B3FF619
:1093500012AF012710E73F1B7900ACEB0002F4E6E7
:10936000E71B7900A0EB0C02EFE6674614E73F1B12
:109370007A00A0EB0C01E8E64FF4A42743F80E7046
:1093800003EB0E0C0EF108080027BDF93EE0ACF827
:109390000410ACF8062043F80870ACF80E70ACF876
:1093A0000CE0CAE7EC630020EA6300202DE9F84FE7
:1093B000DFF81893BD4DBE4FBE4CBF4EDFF8108393
:1093C000D9F800000368DB689847002840D0D9F836
:1093D000000003681B6998472378C2B23BB902F1C9
:1093E0004F01C9B20629EBD822703370E8E7B12BE0
:1093F0001FD0B22B4BD0B32B66D0B42B58D0B52B8B
:109400000ED0B62B0CD0B72BDAD13378002B40F02E
:10941000F680012A88F8002008D00022227005E09A
:109420003378002B40F0A58088F80020013333709A
:10943000C6E7A24B120900F00F0C33F812100120FE
:1094400000FA0CF00843002123F812002170B7E75E
:109450002B7863B11C09994803F00F0330F81420EE
:10946000012101FA03F322EA030320F8143094499E
:109470000F22481E2AF0A0FF3B880022EA7323B186
:10948000013B9BB23B80002B6DD0BDE8F88F8B4B2E
:10949000120900F00F0033F812104FF0010C0CFA13
:1094A00000F021EA0001002023F81210207087E765
:1094B00096F800E0BEF1000F6CD188F800200EF1A4
:1094C000010E86F800E07BE77C4B95F802C011099D
:1094D00000F00F0033F811E04FF0010A0AFA00F033
:1094E00040EA0E004FF0000E23F8110084F800E06F
:1094F000BCF1000F00F0B680EB78002B00F0B880D4
:109500002B79002B00F0B1806B79002B00F0B68036
:10951000AB79002B00F0AF80EB79002B00F0B4802A
:109520002B7A002B00F099806B7A002B00F0A98039
:10953000AB7A002B00F0B180EB7A002B00F0AA8010
:109540002B7B002B00F0A3806B7B002B00F0AB800B
:10955000AB7B002B00F0A480EB7B002B7FF430AFC3
:109560000F23EA542CE7574AC2E900339360BDE861
:10957000F88F5549B1F90000002824DBB0F5005FF1
:1095800021D0B1F91000002802DBB0F5005F53D103
:10959000012019E098F80010914211DA474B4FF082
:1095A000010A4FEA211C01F00F0B33F81C000AFAE4
:1095B0000BFB013120EA0B00914223F81C00F0D193
:1095C000002323707BE700204FEA001E4FF4A42AFB
:1095D00041F80EA00EF1080C01EB001001EB0C0E8F
:1095E00098F800B0C2804FF0000A6422A0F804B0DE
:1095F00041F80CA0CEF804200022227016E798F85B
:10960000001001297FF412AF022B08F803207FF627
:109610000DAF4FF0000CC8F805C088F809C0A8F8D5
:109620000AC098E80700DFF89CE084F800C08EE8E4
:109630000700C8223A80F9E6B1F9200000280FDBC4
:10964000B0F5005F0CD0B1F93000002803DBB0F5B5
:10965000005F7FF4E2AE0320B6E70823EA54AFE6EA
:109660000220B1E70223EA54AAE60423EA54A7E65B
:109670000323EA54A4E60623EA54A1E60523EA54A8
:109680009EE60923EA549BE60723EA5498E60C2356
:10969000EA5495E60B23EA5492E60A23EA548FE64D
:1096A0000E23EA548CE60D23EA5489E64066002036
:1096B0003C66002004660020086600200C6600203E
:1096C0004166002030660020706500207C64002028
:1096D000F86500202DE9F843634890F9000014462E
:1096E000002861D11D4613780BB1BDE8F8836B5497
:1096F00050780E4625F034FA8046A07825F030FAEE
:109700000746E07825F02CFA8146207925F028FAE2
:1097100008EB07034B440344B4F90AC0B4F908E06A
:10972000002B1946B8BFD91CF44502464FEAA101E7
:1097300042DBB4F90600814248DA4C4DB5F90030FD
:10974000002B02DBB3F5005F71D10026B4F916C01F
:10975000B4F914E03601A2EB0903A7EB080706F100
:109760000802411AA7EB0C0705EB0608A3EB0E0352
:1097700005EB020CB4F91800B4F91A4001FB03F32D
:1097800001FB07F193FBF0F391FBF4F14FF4A420FC
:1097900000276424A851A8F80430A8F80610012076
:1097A000AF50CCF80440A0E701281AD02078B0FAD6
:1097B00080F04009BDE8F88341F24F408342B8DCB5
:1097C0000CF1010CA4F80AC001208EE7BCF1000FD7
:1097D00003DDF445BCBF0123AB55002363810120A9
:1097E00083E7507825F0BCF90646A07825F0B8F953
:1097F0000546E07825F0B4F90746207925F0B0F960
:10980000B4F90C20C31B9342B4F90E20B8BFA38156
:109810009342C8BFE381B4F91030A81B9842B4F951
:109820001230B8BF20829842C8BF6082BEE7B5F947
:109830001030002B12DBB3F5005F0FD0B5F92030EC
:10984000002B0DDBB3F5005F0AD0B5F93030002BEB
:1098500008DBB3F5005F05D0012046E7012675E778
:10986000022673E7032671E7C564002070650020B7
:10987000084BB3F9001000290BDD074B1B681C22B5
:109880000C3311FB023100221A605A601C338B42E8
:10989000FAD17047CC640020C86400202DE9F04F55
:1098A000C34EB6F90030002B85B0054640F3BB81AE
:1098B000C04F00243B6833F9140025F021FAAB684F
:1098C000B0FA80F040091855B6F900300134A342CF
:1098D000F0DCB949B1F90030002B0ADD002318464D
:1098E000AA681055B1F9002001339A4204F101042D
:1098F000F6DCB24BB3F90030002B7CDDDFF8E8B2C8
:10990000DFF8E8A200260EE02B689B5D434553DD9F
:10991000AB6801221A55A94BB3F900300136B342A6
:1099200004F1010467DD2B6933F91430002B3DDBB2
:10993000A34A126803EB430302EBC3031F7993F8B6
:10994000058093F80690DBF8003033F9160025F017
:1099500007F9DAF800309B4A9B4933F91630B2F91F
:109960000020B1F900104FF0FF0C1A441944CDF853
:1099700000C0002321F0C4FA2B6880F3080098553A
:10998000002FC1D0012F1ED0022FC4D1EB681B5D68
:10999000002B40F0BD802A68925DD22A40F2F6800A
:1099A000AA68032111556A689355B4E74FF0780906
:1099B00000274FF0A008C6E74B4519DBD5E9023276
:1099C000125D1A55A7E7EB681B5D002B40F09980EC
:1099D000D5E90012925D895D9044414540F3AD8028
:1099E000AB6801221A55D5E90023925D9A5592E79A
:1099F000AB681F558FE7754FB7F90030002B41DD7D
:109A0000734ADFF8EC81DFF8ECA1DFF8EC9142F06B
:109A1000010203920026002BC8BF4FF0000B0FDDA0
:109A2000DAF80020BBEB060132F91B0018BF012158
:109A300025F048F9B7F900200BF1010B5A45EFDC8E
:109A4000039B4FF448609847B8F90030002B14DDB1
:109A50004FF0000BD9F8002032F91B0025F050F927
:109A6000AA68B0FA80F040091055B8F900200BF14F
:109A7000010B5A4504F10104ECDCB7F90030013662
:109A8000B342C8DC534FB7F90030002B13DDDFF8C9
:109A90006C810026D8F80020AB68C6EBC60102EB4B
:109AA000810228462146FFF715FEB7F9003001363E
:109AB000B3420444EEDC484BB3F90030002B5FDBCB
:109AC000464BB3F90030002B33DC454FB7F900307B
:109AD000002B13DDDFF828810026D8F80020AB68C2
:109AE00006EB460102EB810228462146FEF738FFCD
:109AF000B7F900300136B3420444EEDC05B0BDE8EE
:109B0000F08F012B27D0AB684FF000021A5502E707
:109B1000022B7CD0032B7FF4FEAE2A68925D1D2AB7
:109B200000F28A80AB684FF000021A556B689A55B4
:109B3000F1E62846FFF73AFCC7E7F0293FF650AFB9
:109B4000AA681355D5E90023995D925D91427FF68D
:109B5000E2AE9A55DFE6D5E900239B5D925DA3EB6B
:109B600009094A45AB681FDB0B2A1DD91F55D5E9EA
:109B70000023995D925D9142BFF4CDAE9A55CAE63D
:109B8000184BB3F90030002B9ADA9EE7282A39D90E
:109B900069688A5D01328A556A68925D052A3FF6D6
:109BA00027AFAA681355B6E64FF000021AE700BFC8
:109BB000F4630020F86300205E660020FC63002050
:109BC00054660020086400200A640020DC63002042
:109BD000407D0500CC6400203E6600200666002023
:109BE000206400202E660020006400200464002011
:109BF000EE650020E0630020F0650020C8640020CE
:109C00001C640020AA6813556A68935583E62B6884
:109C10009A5DD22A09D9AB6803221A556B684FF0B6
:109C200000029A5577E6002453E61B5D1D2BAB68B6
:109C30007FF679AF1F556EE6C72A0ED869688A5D30
:109C400001328A556A68925D052AAAD9AB681F5508
:109C50006B684FF000029A555DE6AA6813556B6871
:109C60004FF000029A5556E610B4084C2368002BBA
:109C700008DD0023D0E90212C95CD1542268013307
:109C80009A42F7DC5DF8044B704700BF8064002007
:109C9000084B00224FF6FF711960196119621963B0
:109CA0005A60DA605A61DA615A62DA625A63DA63D8
:109CB000704700BF70650020F0B51C4CBDF914C0A2
:109CC000B4F90000BDF91850BDF91C70BDF9206051
:109CD000002801DB814211D100204FEA001E04EB75
:109CE000001024F80E106D4200210581428083800F
:109CF000A0F806C047818681C181F0BDB4F910008B
:109D0000002809DB814207D0B4F92000002801DBDC
:109D1000814203D10220E0E70120DEE7B4F9300000
:109D2000002801DB8842E8D10320D6E770650020D7
:109D3000144BB3F90020914205D100224FF6FF7079
:109D4000C3E90002DA60B3F91020914205D1002284
:109D50004FF6FF70C3E90402DA61B3F920209142A3
:109D600005D100224FF6FF70C3E90802DA62B3F9A9
:109D70003020914205D100224FF6FF71C3E90C1249
:109D8000DA637047706500202DE9F04F00F1100391
:109D9000074693E8070091B0BC68FD6804AE86E80A
:109DA0000700002C00F0C88023790DF11C08202B3F
:109DB00088E8070040F0C0800DF128090DAB89E864
:109DC000070083E807000146002800F0B5802488DA
:109DD0004FF6FF70844200F0AF80D5F82CB0E20956
:109DE0000BEBC20204F07F04556815EBC40400F0CD
:109DF000A3800E9A019002F1FF3C01EB0C004FF0A2
:109E0000010ACDE90217E58800901746BAF1000F64
:109E100013D1019A954200F08F80E8090BEBC00046
:109E200005F07F05446814EBC50400F085808AF0D6
:109E3000010AE588BAF1000FEBD02079042800F080
:109E4000A880052800F0A080022800F08D80002066
:109E50000446B842DDD15FB1029A013C501E10F8B1
:109E6000011F14F8012F9142D3D1009A8242F6D1FA
:109E70004FF6FF7C6545039F5ED0EC091C3797E8E1
:109E800007000BEBC40705F07F057F6817EBC504DF
:109E900086E8070050D096E807002479202C88E84F
:109EA000070049D183E807000D9E89E80700002ECE
:109EB00042D037F8350060453ED0C2090BEBC202F4
:109EC00000F07F03506810EBC30035D00E9FB0F850
:109ED00006806546BAF1000F12D1A8452CD04FEA92
:109EE000D8130BEBC30308F07F08586810EBC800C9
:109EF00022D08AF0010AB0F80680BAF1000FECD047
:109F00000379042B39D0052B33D0022B18D0002F26
:109F1000E3D14FF6FF7398450ED04FEAD8120BEB02
:109F2000C20208F07F08526812EBC80005D0017920
:109F3000202956D0402935D0002011B0BDE8F08F3F
:109F400004462BF06AF98742C7D1002FE1D0731E77
:109F5000601EDA1901E09A42DBD013F8014F10F8C5
:109F6000011F8C42F7D0B8E720462BF056F90DAB15
:109F70006FE70468E0880834E5E70468002CC6D081
:109F800020462BF04AF9DEE7206800F10804C0887B
:109F90005FE724682046002C3FF45BAF2BF03DF9CF
:109FA0000DAB56E732F838009842C5D0C1090BEB2B
:109FB000C10100F07F02486810EBC200BDD0C1882B
:109FC0001D460020CB09A9420BEBC30301F07F0221
:109FD00000F10100B1D05B6813EBC203ADD0D988AA
:109FE000F0E732F838009842A6D0C1090BEBC10166
:109FF00000F07F02486810EBC2009ED0C2881C4669
:10A000000020D309A2420BEBC30302F07F0100F151
:10A01000010005D05B6813EBC10301D0DA88F0E7DB
:10A02000400811B0BDE8F08FF0B40B460446D1E90A
:10A0300002018AB002AF03F1100587E803009446DD
:10A0400095E8070004AE1C3386E8070093E8070094
:10A0500007AD85E8070097E8030004F10C0282E8E9
:10A06000030096E807002346143484E8070095E8C7
:10A07000070003F1200484E807001846C3F82CC049
:10A080000AB0F0BC704700BF2DE9F04F00F10C039F
:10A09000044693E80700D4E901378DB06C4684E8A4
:10A0A0000700002B5DD094E807001D7903AC202D3C
:10A0B00084E8070055D106AC84E807000CAC04E93D
:10A0C0000700DDF82480B8F1000F4AD018884FF659
:10A0D000FF76B04245D0FD6AC20905EBC20200F02E
:10A0E0007F03506810EBC3003BD0DDF82890B0F838
:10A0F00006B009F1FF374FF0010A4744BAF1000FEB
:10A1000012D1B3452DD04FEADB1305EBC3030BF09F
:10A110007F0B586810EBCB0023D08AF0010AB0F80F
:10A1200006B0BAF1000FECD00379042B35D0052B23
:10A130002FD0022B19D0B9F1000FE2D14FF6FF73E7
:10A140009B450ED04FEADB1205EBC2020BF07F0BF2
:10A15000526812EBCB0005D00179202942D040296A
:10A1600022D000200DB0BDE8F08F04462BF055F84A
:10A170004845C6D1B9F1000FE0D0601E08F1FF33A9
:10A1800013F8011F10F8012F9142BAD19F42F7D165
:10A19000D4E70468E0880834EAE704682046002C25
:10A1A000E6D02BF03AF8E3E732F83B009842D8D0FB
:10A1B000C10905EBC10100F07F02486810EBC20045
:10A1C000D0D0C1880020CA09994205EBC20201F033
:10A1D0007F0400F10100C5D0526812EBC402C1D067
:10A1E000D188F0E732F83B009842BAD0C10905EBBC
:10A1F000C10100F07F02486810EBC200B2D0C188F4
:10A200001E460020CA09B14205EBC20201F07F04DC
:10A2100000F1010005D0536813EBC40301D0D988C5
:10A22000F0E740080DB0BDE8F08F00BFF0B40B467A
:10A230000446D1E9010186B001AE0C3386E8030083
:10A24000174693E8070003AD85E8070096E803008A
:10A2500004F1080282E8030095E807002346103461
:10A2600084E807001846DF6106B0F0BC704700BF05
:10A27000F0B50B460446D1E903018DB003AF03F1FD
:10A28000140587E80300944695E80700D3F820E01A
:10A2900005AE243386E8070093E8070009AD85E89A
:10A2A000070097E8030004F1100282E8030096E833
:10A2B00007002346183484E8070095E8070003F1F7
:10A2C0002804C3F824E084E807001846C3F834C023
:10A2D0000DB0F0BD2DE9F04103460C46D1E9050172
:10A2E00092B00DF1140C04F11C058CE803009646A5
:10A2F00095E8070007AF04F12C0587E8070095E80B
:10A3000007000BAE04F13C0586E8070095E807005E
:10A310000FAD85E807009CE8030003F11802D4F8AC
:10A320002880D4F838C082E8030097E8070003F1DA
:10A33000200484E8070096E8070003F13004C3F81E
:10A340002C8084E8070095E8070003F14004C3F877
:10A350003CC084E807001846C3F84CE012B0BDE8E2
:10A36000F08100BF037913F0100270B40DD00288A1
:10A370004FF6FF76B2423CD0CE6AD10906EBC10659
:10A3800002F07F01726802EBC1020A3B122B0BD86C
:10A39000DFE803F01B0A2D0A0A0A0A0A0A0A0A0A57
:10A3A0000A0A0A0A200A0D00002070BC7047D2E990
:10A3B000003213F1004442F10005012D08BF002CCA
:10A3C00034BF0120002070BC70470068C043C00F3C
:10A3D00070BC7047D2E9002300216FF00040994221
:10A3E00008BF90422CBF0120002070BC70470120A4
:10A3F000DBE70022C9E700BFF0B5037913F01002D4
:10A4000085B010D002884FF6FF7C624500F09E8038
:10A41000C96A4FEAD21C01EBCC0C02F07F01DCF8D8
:10A42000042002EBC102023B1C2B20D8DFE803F022
:10A430003A1F648B851F1F1F871F661F681F1F1F02
:10A440001F1F1F1F1F1F1F1F721F7A1F2200DDEDFE
:10A45000027A9FED457AF4EEC77AF1EE10FA06DB48
:10A460009FED427AF4EEC77AF1EE10FA70D900202F
:10A4700005B0F0BDD2E900453D4B002220462946FB
:10A4800029F05CFC0028F3D035A3D3E90023204653
:10A49000294629F049FC0028EAD02046294629F01F
:10A4A00061FCE5E701466846FDF7BCFB9DF800301E
:10A4B000013B032BDBD801A252F823F04FA402008A
:10A4C000E3A40200D3A40200CDA40200DDE902450A
:10A4D000D2E7DDE90201002908BFB0F1004FC7D380
:10A4E000C5E7DDE9020310F1004443F10005012D49
:10A4F00008BF002CBCD3BAE70168D4E70068B7E70F
:10A50000D0ED007A9FED187AF4EEC77AF1EE10FAEA
:10A51000ADDBA5E7D2E90001002908BFB0F1004F8B
:10A52000A6D3A4E7D2E9000310F1004643F10007E7
:10A53000012F08BF002E9BD399E7007898E70068A9
:10A5400020EAE07094E701680831ACE700226AE78E
:10A55000FDEEE77A17EE900A8AE700BFAFF30080BE
:10A560000000C0FFFFFFDF41000000CFFFFFFF4EF4
:10A570000000E0C12DE9F04F00F11403814693E89B
:10A58000070091B0D9F80C30D9F81050029504AEFC
:10A5900086E80700002B00F0E1801C7907AF202C33
:10A5A00087E8070040F0DA800DF128080DAC88E854
:10A5B000070084E807000190002800F0CF801C8885
:10A5C0004FF6FF718C4200F0C980D5F82CB0E2093B
:10A5D0000BEBC20204F07F05546814EBC50400F0D5
:10A5E000BD80E5880E9ACDF800904FF0010A5B46D9
:10A5F000D346A946039115469A46BBF1000F15D1E3
:10A60000039B994500F0AA804FEAD9110AEBC101DA
:10A6100009F07F024C6814EBC20400F09F808BF0BD
:10A62000010BB4F80690BBF1000FE9D021790429A1
:10A6300000F09880052900F0C980022900F096807A
:10A64000002DDDD14D464FF6FF7C53466545DA4679
:10A65000DDF800909B4600F08180EC0909F12002B2
:10A660000BEBC40407CA646805F07F0514EBC50E44
:10A6700086E8070072D096E807009EF80460202E56
:10A6800087E807006AD10DAB88E8070083E8070078
:10A690000646002862D034F8350060455ED0C10916
:10A6A0000BEBC10100F07F02486810EBC20055D0EF
:10A6B0000E9FB0F806806546BAF1000F12D1A8458A
:10A6C0004CD04FEAD8130BEBC30308F07F0858684F
:10A6D00010EBC80042D08AF0010AB0F80680BAF147
:10A6E000000FECD00379042B74D0052B6AD0022B19
:10A6F00054D0002FE3D14FF6FF7188452ED04FEA9A
:10A70000D8120BEBC20208F07F08546814EBC802A1
:10A7100024D01279402A21D134F8380088421DD043
:10A72000C4090BEBC40400F07F026068D9F82C4028
:10A7300010EBC20012D0C288002C52D00E4602E0AC
:10A74000013CC2884DD0D109B2420BEBC10102F0ED
:10A750007F0003D04B6813EBC000F1D1002011B093
:10A76000BDE8F08F2468002C3FF46AAF20462AF041
:10A7700054FD85427FF444AF002D3FF463AF019B4D
:10A78000591E013C481902E088423FF45BAF11F8C2
:10A79000012F14F8013F9A42F6D031E704462AF01F
:10A7A0003CFD87428BD1002FA5D0731E601EDA19A5
:10A7B00001E09A429FD013F8014F10F8011F8C421C
:10A7C000F7D07CE70468E0880834EAE72468E0888A
:10A7D0000834CEE70468002C8BD020462AF01DFDFB
:10A7E000DFE70299FFF708FE11B0BDE8F08F00BF68
:10A7F0002DE9F04F00F11003074693E8070093B0EE
:10A80000BB68FD68019506AE86E80700002B00F0E6
:10A81000B8801C790DF12408202C88E8070040F04E
:10A82000B0800DF130090FAC89E8070084E807001B
:10A830000146002800F0A5801C884FF6FF70844276
:10A8400000F09F80D5F82CB0E2090BEBC20204F0B7
:10A850007F04556815EBC40400F09380109AE588D6
:10A86000039002F1FF3C01EB0C034FF0010ACDE92C
:10A87000041702931746BAF1000F11D1039B9D42B2
:10A880007FD0E8090BEBC00005F07F03446814EBB0
:10A89000C30476D08AF0010AE588BAF1000FEDD042
:10A8A0002079042800F0AB80052800F0A48002285D
:10A8B0007FD0002FE2D14FF6FF7C6545059F60D029
:10A8C000EC091C3797E807000BEBC40705F07F0580
:10A8D0007C6814EBC50786E8070052D096E80700AD
:10A8E0003E79202E88E807004BD10FAB89E807009E
:10A8F00083E807000646002843D034F83500604559
:10A900003FD0C1090BEBC10100F07F02486810EB9A
:10A91000C20036D0109FB0F806806546BAF1000F2D
:10A9200012D1A8452DD04FEAD8130BEBC30308F082
:10A930007F08586810EBC80023D08AF0010AB0F8ED
:10A940000680BAF1000FECD00379042B4CD0052B14
:10A9500046D0022B19D0002FE3D14FF6FF7290455D
:10A960000FD04FEAD8120BEBC20308F07F085868EB
:10A9700010EBC80006D00199FFF73EFD13B0BDE80B
:10A98000F08F002013B0BDE8F08F04462AF045FC9C
:10A990008742C6D1002FE0D0731E601EDA1901E095
:10A9A0009A42DAD013F8014F10F8011F8C42F7D009
:10A9B000B7E720462AF031FCB8427FF45FAF002FA2
:10A9C0003FF479AF049B013C581E10F8012F14F896
:10A9D000013F9A427FF452AF029B8342F5D16AE76E
:10A9E0000468E0880834D3E70468002CB3D020461C
:10A9F0002AF013FCCCE72468E0880834DCE72468FC
:10AA00002046002CD8D02AF008FCD5E72DE9F04FDD
:10AA100000F10C02034607CAD3E901568DB06B461C
:10AA200083E80700002D57D093E807002C7903AB8B
:10AA3000202C83E807004FD106AB83E807000CAB5E
:10AA400003E90700DDF82490B9F1000F44D028880D
:10AA50004FF6FF7840453FD0D6F82CA0C2090AEB4C
:10AA6000C20200F07F03506810EBC30034D04FF0F7
:10AA7000010B0A9FC588BBF1000F10D145452BD0B3
:10AA8000EB090AEBC30305F07F05586810EBC5001E
:10AA900022D08BF0010BC588BBF1000FEED00379FB
:10AAA000042B36D0052B30D0022B19D0002FE5D146
:10AAB0004FF6FF739D420FD0EB090AEBC30A05F076
:10AAC0007F05DAF8040010EBC50006D03146FFF729
:10AAD00093FC0DB0BDE8F08F00200DB0BDE8F08F05
:10AAE00004462AF09AFB8742C8D1002FE0D009F132
:10AAF000FF33601EDA1901E09A42D9D013F8014FF2
:10AB000010F8011F8C42F7D0B8E70468E0880834D9
:10AB1000E9E70468002CC9D020462AF07EFBE2E772
:10AB20002DE9F04F00F11003054693E807008FB0C0
:10AB3000AB68D5F80C8002AC84E80700002B74D019
:10AB400094E807001E7905AC202E84E807006CD13C
:10AB500008AC84E807000EAC04E90700DDF82CA07F
:10AB6000BAF1000F61D01B884FF6FF77BB425CD073
:10AB7000D8F82C60D90906EBC10103F07F024B68BD
:10AB800013EBC20351D04FF0010BDDF83090DA889F
:10AB9000BBF1000F10D1BA4247D0D10906EBC10179
:10ABA00002F07F024B6813EBC2033ED08BF0010B27
:10ABB000DA88BBF1000FEED01979042957D00529A6
:10ABC00051D0022935D0B9F1000FE4D14FF6FF740E
:10ABD000A2422AD0D10906EBC10102F07F024968E6
:10ABE00011EBC20022D00379402B1ED131F8320084
:10ABF000A0421AD0C20906EBC20200F07F035068DF
:10AC0000E96910EBC30010D0C38819B938E00139E5
:10AC1000C38835D0DA09A34206EBC20203F07F05F0
:10AC200003D0506810EBC500F1D100200FB0BDE893
:10AC3000F08F184601921C462AF0EFFA019A8145DE
:10AC4000A9D1B9F1000FC1D00AF1FF31631E01EBA8
:10AC5000090001E08842B9D011F801CF13F8014F83
:10AC6000A445F7D097E71C68E0880834E7E71C683C
:10AC7000002CA8D0204601922AF0CFFA019ADEE7F4
:10AC80004146FFF7B9FB0FB0BDE8F08F2DE9F04763
:10AC9000054608460C462AF0C0FA074618B3013CA0
:10ACA0006B6A04EB00094FF0000805F1040A05E0A7
:10ACB000E8186A6213460671A14514D05A1C1F2A6F
:10ACC00014F8016FF4D92B44514683F804802868A6
:10ACD00020F0EAF920B96B6A002BEDD10122E7E7F9
:10ACE00001220023E4E7A86A3844A862BDE8F0879F
:10ACF000437DDBB1037D202B12D8DFE803F01F1169
:10AD00001111111111111115151111151111111127
:10AD10001111111111111111111111111111150030
:10AD200001230373002070470023437503695A1CF5
:10AD300002611B78037501224275DCE7037B002B5F
:10AD400014BF0220012070472DE9F04F054600791D
:10AD50008BB001AC202884E80E0055D194E80700A0
:10AD600004AA82E80B0007CA0AAA02E90B00DDF870
:10AD70001C80B8F1000F47D028884FF6FF76B0420C
:10AD800042D0149BD3F82C90C20909EBC20200F008
:10AD90007F03506810EBC30036D0089DB0F806B0B2
:10ADA0006F1E4FF0010A4744BAF1000F12D1B345AC
:10ADB0002AD04FEADB1309EBC3030BF07F0B586873
:10ADC00010EBCB0020D08AF0010AB0F806B0BAF13F
:10ADD000000FECD00379042B31D0052B2BD0022BA4
:10ADE00016D0002DE3D14FF6FF739B450CD04FEAF0
:10ADF000DB1309EBC3090BF07F0BD9F8040000EB60
:10AE0000CB000BB0BDE8F08F00200BB0BDE8F08F99
:10AE100004462AF002FAA842C9D1002DE3D0601EF0
:10AE200008F1FF3313F8011F10F8012F9142BED132
:10AE30009F42F7D1D7E70468E0880834EBE704685D
:10AE40002046002CE7D02AF0E8F9E4E730B500F11D
:10AE50000C02034607CAD3E9014587B003AB83E878
:10AE600007002CB1009520460ECBFFF76DFF04467E
:10AE7000204607B030BD00BF70B500F11003054695
:10AE800093E8070086B0AB68EE6803AC84E807007F
:10AE90009BB10096184694E80E00FFF755FF1C354D
:10AEA000034695E8070084E8070033B1009618468A
:10AEB00094E80E00FFF748FF0346184606B070BD41
:10AEC000F0B500F11403054693E8070087B0EB687E
:10AED0002E6903AC84E807006BB30096184694E82B
:10AEE0000E00FFF731FF034628B30279402A21D133
:10AEF00003884FF6FF7E73451CD0D6F82CC0286A15
:10AF0000D9090CEBC10103F07F024B6813EBC203BC
:10AF100010D0DA8818B911E00138DA880ED0D109DA
:10AF200072450CEBC10102F07F0703D04B6813EBB5
:10AF3000C703F1D10023184607B0F0BD243595E8CA
:10AF4000070084E807000096184694E80E00FFF713
:10AF5000FBFE0346184607B0F0BD00BF38B50446F7
:10AF6000FFF7AEFF30B103792269202B03D0402BCD
:10AF700023D0002038BD00884FF6FF74A042F8D0DF
:10AF8000D56AC20905EBC20200F07F03506810EBDE
:10AF9000C300EFD0C2880020D309A24205EBC3034F
:10AFA00002F07F0100F1010005D05B6813EBC103E3
:10AFB00001D0DA88F0E7400838BD00884FF6FF740A
:10AFC000A042D6D0D56AC20905EBC20200F07F03C9
:10AFD000506810EBC300CDD0C2880020D309A24234
:10AFE00005EBC30302F07F0100F10100C2D05B68F2
:10AFF00013EBC103BED0DA88F0E700BFF0B504461A
:10B0000087B00830FFF75CFF30B30379402B22D1C3
:10B0100003884FF6FF77BB421DD0A569A06BD5F81A
:10B020002CC0D9090CEBC10103F07F024B6813EB74
:10B03000C20310D0DA8818B910E00138DA880DD0D0
:10B04000D109BA420CEBC10102F07F0603D04B6874
:10B0500013EBC603F1D1002007B0F0BD3C3494E8F7
:10B06000070003AC84E807000095184694E80E003A
:10B07000FFF76AFE07B0F0BD10B50446FFF720FFEA
:10B0800010B12169FFF7B8F910BD00BFF8B504464B
:10B090000430FFF715FF28B30379402B21D1008836
:10B0A0004FF6FF76B0421CD06169646BCF6AC2096B
:10B0B00007EBC20200F07F03506810EBC30010D012
:10B0C000C3881CB90FE0013CC3880CD0DA09B34235
:10B0D00007EBC20203F07F0503D0506810EBC500F8
:10B0E000F1D10020F8BDFFF787F9F8BD2DE9F04751
:10B0F00004468CB00830FFF7E3FE20B30379402B01
:10B1000021D103884FF6FF77BB421CD0A269A06B08
:10B11000D66ADA0906EBC20203F07F03526812EB2B
:10B12000C30310D0DA8818B911E00138DA880ED0DC
:10B13000D109BA4206EBC10102F07F0503D04B688A
:10B1400013EBC503F1D100200CB0BDE8F0873C340F
:10B1500094E807001D796C4684E80700202D03ACB5
:10B1600084E80700EFD194E8070006AC84E8070004
:10B170000CAC04E90700DDF82480B8F1000FE2D040
:10B1800018884FF6FF77B842DDD0C20906EBC2023D
:10B1900000F07F03506810EBC300D4D04FF0010AD9
:10B1A000DDF82890C588BAF1000F10D1BD42CAD091
:10B1B000EB0906EBC30305F07F05586810EBC500EB
:10B1C000C1D08AF0010AC588BAF1000FEED0037928
:10B1D000042B51D0052B4BD0022B32D0B9F1000FEC
:10B1E000E4D14FF6FF739D42ADD0EA0906EBC202EF
:10B1F00005F07F05526812EBC500A5D00179202922
:10B2000041D040299FD132F8350098429BD0C109E6
:10B2100006EBC10100F07F02486810EBC20093D03A
:10B22000C1880020CA09994206EBC20201F07F04DE
:10B2300000F1010088D0526812EBC40284D0D1889A
:10B24000F0E7044629F0E9FF8145AFD1B9F1000FDD
:10B25000C7D008F1FF33601E03EB090201E09A42F8
:10B26000BFD013F8014F10F8011F8C42F7D09DE7B3
:10B270000468E0880834E7E70468002CAED0204674
:10B2800029F0CBFFE0E732F8350098423FF45BAF9E
:10B29000C10906EBC10100F07F02486810EBC20053
:10B2A0003FF452AFC1881D460020CA09A94206EBEF
:10B2B000C20201F07F0400F1010005D0536813EBD6
:10B2C000C40301D0D988F0E740080CB0BDE8F0878E
:10B2D0002DE9F04F05468FB00C30FFF7F1FD28B394
:10B2E0000379402B22D103884FF6FF77BB421DD054
:10B2F000EA690192D66AE86BDA0906EBC20203F04A
:10B300007F03526812EBC30310D0DA8818B911E03A
:10B310000138DA880ED0D109BA4206EBC10102F039
:10B320007F0403D04B6813EBC403F1D100200FB0AE
:10B33000BDE8F08F05F1400207CA1F7902AC84E82E
:10B340000700202F05AC84E80700EFD194E8070040
:10B3500008AC84E807000EAC04E907000B9A002A49
:10B36000E4D01B884FF6FF77BB42DFD0D80906EB4D
:10B37000C00003F07F01436813EBC103D6D0DDF8B2
:10B3800030A0B3F806900AF1FF384FF0010B90445B
:10B39000BBF1000F12D1B945C8D04FEAD91006EB66
:10B3A000C00009F07F01436813EBC103BED08BF0EE
:10B3B000010BB3F80690BBF1000FECD0187904280C
:10B3C00052D005284CD0022834D0BAF1000FE2D177
:10B3D0004FF6FF729145A9D04FEAD91006EBC00095
:10B3E00009F07F01446814EBC100A0D00379402B21
:10B3F0009CD134F83100904298D0C10906EBC101CC
:10B4000000F07F034868E96C10EBC3008ED0C3885E
:10B4100091B3154602E00139C3882DD0DA09AB4259
:10B4200006EBC20203F07F0480D0506810EBC4002A
:10B43000F1D17BE7184600921C4629F0EEFE009AF7
:10B440005045A8D1BAF1000FC2D0631E501E10F8AB
:10B4500001CF13F8014FA4459DD18045F7D1B7E73F
:10B460001C68E0880834EBE71C685CB12046009259
:10B4700029F0D3FE009AE3E70199FEF7BDFF0FB074
:10B48000BDE8F08F2046DBE72DE9F047456A6B1CED
:10B490001F2B04460E46174600F22781A91C60198F
:10B4A0002222636202710120A26A0244A26257B39F
:10B4B00006EB07084FF0000904F1040A16F8017BB7
:10B4C0009C4A222501E0157955B35179B94202F120
:10B4D0000202F8D15F1C1F2F00F2E1801A460233EE
:10B4E00022445C21676201201171A26A1F2B104463
:10B4F000A06200F2C680591C2744636201303D718E
:10B50000A0624645DAD11F2900F2E38023442222BB
:10B5100061621A71A36A01200344A362BDE8F08747
:10B520006FB15A1C1F2A3AD8991C1D461346601940
:10B53000636201250771A26A2A44A262E1E75A1CEC
:10B540001F2A00F28E80E1185C20626202330871CB
:10B550001F2B75D8A118752063625A1C08711F2A09
:10B560005DD8234430206262511C18711F2945D8D0
:10B57000A318302061624A1C18711F2A2DD821445B
:10B5800030206262531C08711F2B17D8591C2244AB
:10B59000302063621071A26A0632A262B1E72344CE
:10B5A00051461D7120681FF07FFD20B9636A0BB101
:10B5B000591CC0E71D4602210123B8E72244514629
:10B5C00082F8049020681FF06FFD002874D1636A30
:10B5D000002B00F0A380591CDDE76318514683F867
:10B5E000049020681FF060FD18B9626A0AB1531C0C
:10B5F000CAE73023237101220223C7E722445146C0
:10B6000082F8049020681FF04FFD18B9616A09B1F3
:10B610004A1CB2E73023237102220121AFE7234401
:10B62000514683F8049020681FF03EFD18B9626A05
:10B630000AB1511C9AE7302323710221012297E7B6
:10B640002244514682F8049020681FF02DFD18B95D
:10B65000636A0BB15A1C82E775232371022201230E
:10B660007FE7234451461F7120681FF01DFD18B964
:10B67000626A0AB1531C6BE75C2323710122022327
:10B6800068E72744514687F8049020681FF00CFDB6
:10B69000D0B9D4E90930002B44D0591C30E72344F9
:10B6A000514683F8049020681FF0FEFC40B9676A99
:10B6B000002F3BD07B1C18E702210123002266E704
:10B6C0000223012700220BE7A06A022101230027A1
:10B6D00012E72344002521461D7151F8040B1FF089
:10B6E000E3FC98B12B46012110E7284421460025B0
:10B6F000057151F8040B1FF0D7FC20B9636A0BB138
:10B70000591CD1E61D4602210123C8E6636A002BBD
:10B71000E9D0A36A0344A362BDE8F0871A46022178
:10B72000012334E71F4602210123E5E63A460223BE
:10B730000127D5E6F87305002DE9F04F437D85B06C
:10B740000446002B00F00581057DDFF830B30022B0
:10B75000134662750092CBB1267D0023AE4263751D
:10B760001DD0002E00F0F1805C2E20D067686FB1F4
:10B77000A168FB88994200F0B8800F440131A160B4
:10B780003E72637DE7E7C2F30903009323695A1C05
:10B7900022611E7826750023AE426375E1D163688D
:10B7A000002B14BF0020042005B0BDE8F08F2269F3
:10B7B000511C21611178217501206075002900F06C
:10B7C000C480752910D0AB4A2F2304E012F8023F41
:10B7D000002B00F0B6809942F8D15678002E00F088
:10B7E000B08000236375C1E7911C637521615378B4
:10B7F00023756075002B00F0A880402B86BF23F0D6
:10B800002003A3F13701A3F13001C8B20F2800F2E1
:10B8100098800021D31C61752361917821750123E3
:10B820006375002900F09180402986BF21F0200136
:10B8300037393039C9B20F2900F283800026131D31
:10B8400066752361D3782375012641EA0011667578
:10B85000002B7AD0402B86BF23F02003373B303BB0
:10B86000DBB20F2B6DD800206075501D206112795E
:10B87000227543EA011301211BB26175002A64D0CD
:10B88000402A86BF22F02002373A303AD2B20F2A3D
:10B8900057D842EA03139AB202F5205189B2002028
:10B8A000B1F5806F1BB26075FFF46DAF02F51051FA
:10B8B00089B2B1F5806F56D37F2A40F2A88003F099
:10B8C0003F0363F07F03B2F5006F8DF809308DF808
:10B8D00008004FEA921380F0B38063F03F03DFB2B9
:10B8E0008DF80A700DF10B0860E0D4F800A0490053
:10B8F000DAF8009001F10108B8F5803FD9F800307E
:10B9000012D29B685C4A934201F10A0140F0938095
:10B91000384629F015FC28B1A0F80680A1686060BF
:10B9200007462AE7D9F800305B685B4517D13846EF
:10B930001FF0B2FC01238AF804300022637D6260AC
:10B9400009E7032005B0BDE8F08F022005B0BDE88F
:10B95000F08F03695A1C02611D780575F5E63946BA
:10B9600048469847E6E7C2F30903009A8DF80800B5
:10B9700043EA822303F58032C2F30531C2F38742E2
:10B9800042F0F00703F03F02C3F3851361F07F013B
:10B9900062F07F0263F07F038DF80B108DF80C705E
:10B9A0008DF809208DF80A300DF10D0808F1FF38E7
:10B9B00008E01E440133A360377218F8017D002FA0
:10B9C0003FF4DFAE6668002EF7D0A368F28893429A
:10B9D000EFD15A00D4F800A002F10109B9F5803F77
:10B9E000DAF8003019D21968886802F10A01224A8F
:10B9F0009042844636D13046019329F0A1FB019B49
:10BA000058B1A0F80690A36860600646D1E7D9B2A5
:10BA10002046FCF74DF8637D9DE61A6852685A454A
:10BA20001CD130461FF038FC00234FF001028AF889
:10BA300004206360C1E70A464846394698476AE7EA
:10BA400003F03F029B1162F07F0243F0E0078DF8A4
:10BA50000A208DF80B700DF10C08A7E73146184647
:10BA60009047E1E70A4618460193314663469847F6
:10BA7000019BC5E7F8730500AD750200B5750200BE
:10BA80002DE9F047427D86B004460D46002A76D067
:10BA9000027D202A12D8DFE802F07A11111111116B
:10BAA0001111117070111170111111111111111169
:10BAB00011111111111111111111700001217B2AA5
:10BAC000217300F206815A2A42D9A2F15B01202992
:10BAD00000F2FF80DFE811F07100FD00FD00FD00C5
:10BAE000FD00FD00FD00FD00FD00FD00FD00C300A8
:10BAF000FD00FD00FD00FD00FD00FD00FD0021003A
:10BB0000FD00FD00FD00FD00FD00E000FD00FD006A
:10BB1000FD00FD00FD00FD006400BC49134600204F
:10BB200001259A4240F0288111F8012F6075002A02
:10BB300000F01C8123695E1C26611B7823756575E6
:10BB4000002BEED14FF00208404606B0BDE8F0876A
:10BB5000222A02D0272A40F0BC8063680022A2601B
:10BB6000002B00F00C812046FFF7E6FD804698B9D7
:10BB700029462046FBF704FF0EE000226275226989
:10BB8000511C2161127822750121617581E7237BA7
:10BB9000002BD7D14FF00108404606B0BDE8F08732
:10BBA00020214FF0FF3229712A60204629464FF0AC
:10BBB000000200F083F98046EEE7DEB240224FF04B
:10BBC000FF332A712B60002E00F00E810023637575
:10BBD0002046FFF78DF880460028DDD1637D002BDD
:10BBE00000F00581237D5D2B36D0013E4FF6FF77B7
:10BBF0004FF00109D4F818A002A85146FBF7E2FC67
:10BC00000299002900F054816B88BDF80C20BB42DA
:10BC100000F00B81DAF82C004FEAD31C00EBCC00CB
:10BC200003F07F03406800EBC303DA806A80334689
:10BC30004FF000022046FFF723FF0028BBD120462B
:10BC4000FFF756F80028B6D1637D002B00F0F48092
:10BC5000237D5D2B40F0D380002363759CE7002398
:10BC60002B70637D06212971002B00F0CD80237D90
:10BC70006749002B3FF466AF9A427DD111F8012F3E
:10BC800000236375002A71D02369581C20611B783A
:10BC9000237501206075ECE701232B70637D06217D
:10BCA0002971002B00F0BC80237D5A49002B3FF402
:10BCB00049AF934260D111F8012F00236375002A28
:10BCC00054D02369581C20611B78237501206075AE
:10BCD000ECE700239E4604F11B014FF0010C15E038
:10BCE000392A03D902F0DF00452817D13F2B03F191
:10BCF000010013D084F815E001F8012F2269C3B2C6
:10BD0000501C20611278227584F815C02F2AE7D8BC
:10BD10002B2AA2F12D00E9D00128E7D923440022E3
:10BD20001A7704F11C0102A8FBF77CFF9DF808803C
:10BD300008F1FF33032B1FD8DFE803F03E45320242
:10BD4000DDE904673946304628F054F8824627F08A
:10BD500017FD02460B463046394627F0D1FF814693
:10BD6000002871D00E23C5F800A02B714FF00008F9
:10BD7000404606B0BDE8F0874FF003080CE72668A0
:10BD8000254A306803681B68934240F08E80282063
:10BD90001FF068FA002845D0204B43606060E2E65F
:10BDA000DDE90467012F08BF002E5ED20A232E6052
:10BDB0002B714FF00008EFE6049A2A600E232B71D6
:10BDC0004FF00008E8E6DDE9049A19F100464AF16F
:10BDD0000007012F08BF002E57D20C23C5F8009092
:10BDE0002B714FF00008D7E64FF00508D4E6236921
:10BDF0005A1C22611B78237501226275F3E62C2BF5
:10BE0000BAD100236375F5E601493DE71C740500CE
:10BE1000147405000C740500BD75020001001F00BC
:10BE200025494EE701233371B8E7002362F30F037E
:10BE300062F31F432B60FAE623695A1C22611B78C8
:10BE4000237584F8159004E7A1696846FBF79EFC0A
:10BE5000009B002B3FF4A0AEBDF804202A801E21D9
:10BE60002971C846C3E9006796E6A1696846FBF7F1
:10BE70008DFC009BE3B1BDF804202A801A212971B2
:10BE80004FF00008C3E9006786E6A1696846FBF742
:10BE90007DFC009B63B1BDF804202A801C21297120
:10BEA0004FF00008C3E9009A76E62821984771E729
:10BEB0004FF0040870E600BF0C7405002DE9F04F48
:10BEC000DFB289B0002F4AD00022036942750446D0
:10BED0008A46012011461A460133236112782275E1
:10BEE0006075202A12D8DFE802F032111111111109
:10BEF00011111130301111301111111111111111D5
:10BF000011111111111111111111300001237D2A8C
:10BF100023735AD0019763680022A260002B00F0BF
:10BF2000B380637D002B55D0217D27295BD022294A
:10BF300059D02F2900F20981A1F14103192B40F2B8
:10BF40000C81032009B0BDE8F08F6175C3E7237B46
:10BF5000002B40F03E81012009B0BDE8F08F0520A4
:10BF600009B0BDE8F08F1B68002B40F01A81002D4E
:10BF700040F0C3804FF6FF739E4200F04C81F309FE
:10BF80000BEBC30B06F07F06DBF8043013EBC606A1
:10BF900000F0418149463046FBF7D4FD019B314614
:10BFA000013B4FF000022046FFF76AFD0028D3D185
:10BFB0002046FEF79DFE0028CED1637D002B00F0C9
:10BFC0002281237D7D2B40F0DF800020607509B049
:10BFD000BDE8F08F23695A1C22611978217501236D
:10BFE00027296375A3D12046FFF7A6FB0028B3D10C
:10BFF000637D002B00F0A180237D202B56D801A269
:10C0000052F823F04FBF0200ADC00200ADC00200E5
:10C01000ADC00200ADC00200ADC00200ADC0020064
:10C02000ADC00200ADC0020035C1020035C1020042
:10C03000ADC00200ADC0020035C10200ADC00200BB
:10C04000ADC00200ADC00200ADC00200ADC0020034
:10C05000ADC00200ADC00200ADC00200ADC0020024
:10C06000ADC00200ADC00200ADC00200ADC0020014
:10C07000ADC00200ADC00200ADC00200ADC0020004
:10C08000ADC0020035C1020025687E4A28680368F9
:10C090001B68934240F0EA8028201FF0E3F8002854
:10C0A00000F0A780784B436060603AE701273A2BA5
:10C0B00027737FF446AFD4E9013213444FF00001F7
:10C0C00061751972BAF80030D4F818904FF6FF78FD
:10C0D000434500F0A080D9F82CB0DA090BEBC2027E
:10C0E00003F07F05536813EBC50300F0948062688A
:10C0F0000292A268DE8815468FB9464500F08B8013
:10C10000F1090BEBC10106F07F024B6813EBC20390
:10C1100000F0818087F00107DE88002FEDD01979CB
:10C1200004293FF420AF052957D0022939D0002D2A
:10C13000E3D11FE74FF00003637523695A1C2261A6
:10C140001B7823750122627557E7392905D95E29C5
:10C150007FF6F2AE7A293FF6F4AE01254FF00003E8
:10C1600063752046FBF7A4FC637D002B44D0217D42
:10C170002F29A1F1410335D8192BEFD96368002B82
:10C180007FF43AAF0420E7E62C2B7FF4DAAE4FF0D1
:10C19000000363752046FEF7ABFD00283FF4BBAEFD
:10C1A000DAE61846039329F038F8039B8542A4D1B8
:10C1B000002D3FF4DFAE029AD11D581E01EB050E93
:10C1C00011F8012F10F8013F9A4296D18E45F7D110
:10C1D000D0E6022009B0BDE8F08F1968C88801F1E7
:10C1E0000803E3E73929B9D95E29C5D97A29B5D930
:10C1F000C4E701232B7157E723695A1C2261197880
:10C2000021756575B4E723695A1C22611B78237573
:10C2100001226275D6E6494604A8FBF7D3F9049DCE
:10C22000002DAFD0494606A8FBF7CCF9069E002E9C
:10C23000A8D0BDF81C20EA80BAF80230BDF814007E
:10C240004FF6FF77BB4217D0D9F82C10DF0901EB6E
:10C25000C70103F07F03496801EBC303D880AAF844
:10C26000022029462046FBF78BFB97E628219847BA
:10C2700000287FF417AFBCE7AAF80000AAF8022054
:10C28000EFE700BFBD75020001001F002DE9F04F70
:10C29000038E9BB00746044657F80CBBADF804204C
:10C2A000884600F1380903B30026C36AB2460BE0A2
:10C2B0001EF0F2FFE36AC5F800A0208EC5F804A0C6
:10C2C0000136B1B2884211D9B5B203EBC505696830
:10C2D00008460029EFD0DBF80030564A5B689342ED
:10C2E000E6D058469847E36AE5E7C36A00204FF670
:10C2F000FF719F422086A1860CD0DBF800104D4DC7
:10C300004E68AE4240F0888018461EF0C5FF0423F8
:10C31000E7626386A16826680023237161B1454DF9
:10C3200033680A685B68A260AB42084662D11EF0BF
:10C33000B3FFA1680029F3D1002584F83C509DF893
:10C3400005308DF8185049464FF0000203A8CDE99A
:10C3500004558DF821500394CDF81C800994FFF703
:10C360008FFB054618B99DF82050002D48D1049840
:10C3700040B1039B2F491A6813685B688B424FD109
:10C380001EF08AFF268ED4F80080DEB1D4F82CA0EF
:10C39000D8F80030284A9B6806F10056013E0AEBA7
:10C3A000C6099342B9F80210D9F804004FEAC10156
:10C3B0002DD128F0C5FE28B1B9F80230C9F8040023
:10C3C0002AF83630E06A874210D0218E638E8B4285
:10C3D0000CD0D8F80030184A9B6893424FEAC1014C
:10C3E00022D128F0ADFE238EE062638628461BB082
:10C3F000BDE8F08F30469847A168002990D19BE7AF
:10C4000094F83C5015F0080518BF0325AFE70A461D
:10C41000014640469847CEE719465846B04776E76A
:10C42000014610469847ADE70A4601464046984700
:10C43000D9E700BFB5750200AD750200000000002D
:10C440002DE9F04F57EC106B89B00446894610EE89
:10C45000100A00220023394627F052FC002845D15B
:10C4600032463B4605463946304627F02BF8024611
:10C470000B463046394627F043FC30B3626A531C02
:10C480001F2B00F2EF8222446E21636211715A1C4D
:10C490001F2A00F2D5822344752162621971551C4E
:10C4A0001F2D00F2BF8222446C21656211716A1C4B
:10C4B0001F2A00F2AA8263196C2162621971A36AB1
:10C4C0000433A36209B0BDE8F08F00220023304698
:10C4D000394627F01FFC48B12D212046FBF734FADE
:10C4E000A36A07F1004B18445F46A0624B46012542
:10C4F000B9F1000F05D005EB8505013B4FEA450575
:10C50000F9D10FF20843D3E900233046394627F02A
:10C5100015FC002800F0FA80FEA3D3E90023304682
:10C52000394627F00BFC002840F032838246FBA3FB
:10C53000D3E900233046394627F000FC002840F0BC
:10C540001983F8A3D3E900233046394627F0F6FBD8
:10C55000002840F00183F5A3D3E900233046394693
:10C5600027F0ECFB002840F0E982F2A3D3E9002396
:10C570003046394627F0E2FB002840F0D182EFA395
:10C58000D3E900233046394627F0D8FB002840F095
:10C59000B982ECA3D3E900233046394627F0CEFB1D
:10C5A000002840F0A182D44B00223046394627F0C3
:10C5B000C5FB002840F08A82D04B00223046394625
:10C5C00027F0BCFB002840F073823046394627F044
:10C5D000F1FB0928804610D9C9490346A1FB05256E
:10C5E0001A4609F1FF39A1FB0303632A4FEAD50577
:10C5F0004FFA89F94FEAD303F0D8404627F09EF866
:10C6000002460B463046394626F05AFF0646284673
:10C610000F4627F093F802460B463046394627F07E
:10C6200007F906460F4627F0C5FB834627F086F834
:10C6300002460B463046394626F042FF02460B467C
:10C6400026F040FF27F0B6FB0BEB0006AE42C0F031
:10C65000BF8108F10108BAF1000F40F0CB8100263C
:10C66000B9F1000F13DDA64BA64802E0002A00F046
:10C67000BB81A3FB0626F60803FB06F109F1FF398F
:10C68000B0EB710F5FFA89F24FFA89F9EED20DF132
:10C690001E0B9B495D46A1FB0832D20802EB8203C8
:10C6A000A8EB43034046303309282F46904605F84F
:10C6B000013DF0D8BBEB050800F0A680013D05EB7D
:10C6C0000803211D606A0093023F01960D4609E0B0
:10C6D00004EB000C626210468CF80460009BBB42C5
:10C6E00000F09180421C1F2A17F8016FF0D92044F6
:10C6F0004FF000030371206829461EF0D5FC002886
:10C700007ED1606A0028E9D10122E1E700220023FE
:10C710003046394627F01CFB00286FD064A3D3E9CC
:10C7200000233046394627F0FFFA002866D062A37E
:10C73000D3E900233046394627F0ECFA002840F0D0
:10C74000DB8282465EA3D3E900233046394627F0D8
:10C75000E1FA002840F0C2825BA3D3E9002330460F
:10C76000394627F0D7FA002840F0AA8258A3D3E927
:10C7700000233046394627F0CDFA002840F0928257
:10C7800055A3D3E900233046394627F0C3FA0028E1
:10C7900040F0438252A3D3E900233046394627F0C4
:10C7A000B9FA002840F02B824FA3D3E9002330468A
:10C7B000394627F0AFFA002840F013824CA3D3E9A2
:10C7C00000233046394627F0A5FA002840F0FC81C6
:10C7D0004D4B00223046394627F09CFA00283FF4A2
:10C7E000F4AE30463946454B002227F021F80AF1D5
:10C7F000FF3A06460F460FFA8AFAE6E68246E4E674
:10C800000122002064E7019EA26A08EB0203A362F2
:10C81000B9F1000F40F09A80BAF1000F3FF452AE28
:10C8200065212046FBF790F8A66ABAF1000F06448E
:10C83000A662C0F228811FFA8AFA314F5946A7FB37
:10C840000A32D20802EB8203AAEB4303504630338C
:10C8500009280D461FFA82FA01F8013DEFD8BBEB1B
:10C86000010B00F020810139636A01EB0B06023DE8
:10C87000002704F1040907E0E0186262134680F81B
:10C880000480B54200F00E815A1C1F2A15F8018F52
:10C89000F2D9234449461F7120681EF005FC002888
:10C8A00040F0FD80636A002BEBD10122E4E700BF7A
:10C8B000F168E388B5F8E43E148BD77DB207FE0A31
:10C8C000C2DEB781455491250CD13196FC53DA3242
:10C8D00080688965D63980391656E79EAF03D23C09
:10C8E00048AFBC9AF2D77A3EFCA9F1D24D62503FD4
:10C8F0009A9999999999B93F0000594000002440AC
:10C90000CDCCCCCC999999190000F03F00000000E3
:10C91000D01263413CBF737FDD4F1575321D30F976
:10C920004877825AF5F93FE9034F384D176E05B540
:10C93000B5B893460080E03779C34143000000005A
:10C9400084D79741000000000088C34009F1FF39F7
:10C950005FFA89F908ABA3EB090106AFCE4D09399F
:10C960003A46A5FB0603DB0803EB8300A6EB400673
:10C97000303602F8016D8A421E46F2D108ABA3EBB5
:10C980000902A7EB09072E21033F09F1020902F86A
:10C990000A1C636A07EB09050026211D06E0E01862
:10C9A0006262134680F80480BD421FD05A1C1F2AC1
:10C9B00017F8018FF3D9234400911E7120681EF0EF
:10C9C00073FB009968B9636A002BEDD10122E6E799
:10C9D000B14BB24A03FB06F3B2EB730FBFF440AEA8
:10C9E00055E601220023DAE7914650E6A36A4B445C
:10C9F000A36211E7B8F1090F7FF631AE0AF1010A1F
:10CA00000FFA8AFA4FF0010829E66319214600253A
:10CA10001D7151F8040B1EF047FB002800F0CF8079
:10CA2000012248E5224400252146157151F8040BE6
:10CA30001EF03AFB002800F0BD802A46012532E5B1
:10CA40002344002521461D7151F8040B1EF02CFBD8
:10CA5000002840F0AC80626A002A7FF420AD1346C3
:10CA6000012218E522442146157151F8040B1EF0ED
:10CA70001BFB002840F09880636A002B7FF407AD11
:10CA80001A460123FFE42D212046FAF75DFFA66A2E
:10CA9000CAF1000A06441FFA8AFAA662CDE601220C
:10CAA0000023E9E6A66A5E44A66209B0BDE8F08FFD
:10CAB0003046394660A3D3E9002326F0B9FE0AF1D7
:10CAC000010A06460F460FFA8AFA7EE530463946D5
:10CAD0005BA3D3E9002326F0ABFE0AF1020A064667
