:020000022000DC
:107000000000042005D3040045D3040047D3040046
:1070100049D304004BD304004DD30400000000000A
:107020000000000000000000000000001DD204006D
:1070300051D30400000000003DD2040055D30400E9
:1070400061D5040057D3040057D3040059700300DE
:107050000D71030057D3040095A9040057D3040011
:1070600057D3040057D3040057D3040057D3040068
:1070700057D3040057D3040057D3040057D3040058
:1070800057D304006DCF040057D3040057D3040036
:1070900057D3040057D30400B584040057D3040029
:1070A00057D3040057D3040057D3040057D3040028
:1070B00057D3040057D30400000000000000000074
:1070C00057D3040057D3040057D30400DDDE040077
:1070D00057D3040057D3040057D30400FDAF030077
:1070E00057D3040095DA040057D3040000000000D1
:1070F0000000000057D304000000000055DF04002A
:10710000000000000000000000000000000000007F
:10711000000000000000000000000000000000006F
:10712000000000000000000000000000000000005F
:10713000000000000000000000000000000000004F
:10714000000000000000000000000000000000003F
:10715000000000000000000000000000000000002F
:10716000000000000000000000000000000000001F
:10717000000000000000000000000000000000000F
:1071800000000000000000000000000000000000FF
:1071900000000000000000000000000000000000EF
:1071A00000000000000000000000000000000000DF
:1071B00000000000000000000000000000000000CF
:1071C00000000000000000000000000000000000BF
:1071D00000000000000000000000000000000000AF
:1071E000000000000000000000000000000000009F
:1071F000000000000000000000000000000000008F
:10720000F1EE103A43F08073E1EE103A704700BFA0
:1072100010B5054C237833B9044B13B10448AFF3D0
:1072200000800123237010BD88630020000000004F
:107230006CB2050008B5034B1BB103490348AFF31B
:10724000008008BD000000008C6300206CB20500C7
:10725000154B002B08BF134B9D46A3F5803A002128
:107260008B460F461348144A121A2CF04FFE0F4B50
:10727000002B00D098470E4B002B00D098470020E1
:10728000002104000D000D48002802D00C48AFF387
:1072900000802CF07BFD2000290026F08BF82CF0DC
:1072A0004FFD00BF000008000000042000000000A7
:1072B00000000000886300202C9D002000000000DA
:1072C0000000000010B5174800F08CFE154807F0CC
:1072D000B7FB15480BF094FB0121162027F0FEF9AF
:1072E0001620002127F07EFA104B1868002802DBD8
:1072F000022127F0F3F90E4C2068002809DB012158
:1073000027F0ECF92068012127F06CFA094B0022E4
:107310001A70044801F00AF8BDE8104002480BF06A
:1073200077BB00BFA8630020A46300201460002086
:10733000186000204A66002001480DF033B900BFF4
:10734000A463002008B5044800F04AFEBDE80840E8
:1073500002480BF053BB00BFA8630020A4630020C9
:107360002DE9F84F114648481A461D462CF0A6FD57
:10737000464B93F90030012B06D1454B93F9002081
:10738000012A04BF02221A703F4A1378312B53D1CD
:1073900093795679D179D4789078177A92F80180D8
:1073A0001B0403EB066303EB01232402117904EBB6
:1073B0000044DF190C4457D1B8F1000F4AD0354BC7
:1073C000DFF8E0B01968344ED94600254FF0310A95
:1073D0003768324A8BF800A04FEA244C631E201213
:1073E0008BF801C08BF803403B448BF8020004F19A
:1073F0001C0EC4F1040C06E0013413F8010F02F86E
:10740000010F744509D08C420CEB0400F4DBC0F191
:107410002002002158442CF079FD214B4946186880
:1074200020221EF0FDFE1B4B1968A14217DD01351D
:10743000A845CDD1BDE8F88F28460DF083F919494C
:107440000B78002BF6D0164B20221868BDE8F84FB9
:107450001EF0E6BE0F4B1B68A342EBDC0E4E3068FD
:10746000BDE8F84F23F0A8BC0B4E291F306808FB7D
:1074700001F1651A284400F099FD874218BF2C4697
:10748000B8F1000F9BD1E5E79C6700200264002063
:1074900003640020C8670020C4670020FF67002045
:1074A000C4630020FC67002010B584B0044608497E
:1074B000684620F0C7FA6946204620F083FA6846FD
:1074C00020F0A0FA034B2360204604B010BD00BF9B
:1074D0008C6E05000C6F05002DE9F04186B0244943
:1074E000244FDFF8A080044602A820F0ABFA582011
:1074F00025F0A0FF01262023122202A900960546AE
:107500001EF0C2FD02A83D6020F07CFA1A4902A8D4
:1075100020F098FA582025F08DFF2023082202A998
:10752000009605461EF0B0FD02A8C8F8005020F0F5
:1075300069FA124B002220461A6020F027FA10B197
:1075400006B0BDE8F081D8F800000D4932461EF0C3
:1075500009FED8F8000003689B6898470028EFD11F
:10756000386803689B68984706B0BDE8F08100BFA3
:10757000B46E0500C4630020DC6E0500CC630020FF
:1075800061730200C8630020BFF34F8F0549064BAB
:10759000CA6802F4E0621343CB60BFF34F8F00BFB1
:1075A000FDE700BF00ED00E00400FA0508461146C3
:1075B0002DF056BB084623F0FFBB00BF084623F062
:1075C000E1BB00BF098870B44FF6FF75A94228D00F
:1075D000DE6A8180CB0906EBC30301F07F015B68A3
:1075E00003EBC101016041B3C988C18022B916E033
:1075F000013ADC881CD02146C1F3CF13A94206EB27
:10760000C30301F07F040CD05B6813EBC403EFD11C
:107610001A4661F30F0261F31F42C0E9003270BCE9
:10762000704700224FF0FF3370BCC0E90023704761
:10763000C480036070BC81807047C580EFE700BFE5
:107640002DE9F0418B8E4FF6FF72934282B00C46CB
:10765000054616D0CA6AD90902EBC10203F07F01C0
:10766000526832F83100A08602EBC10200204FF6CA
:10767000FF71107128462A60AB80D18002B0BDE84E
:10768000F081098E2768002932D1638E002B00F02B
:1076900085800123E66A5A4A23864FF480604FF0C2
:1076A00080083B681B68934274D123F06BFB238EE8
:1076B000E76A7060013B9BB207EBC30100284A6890
:1076C00008BF4FF000080020A6F80080708022B1AB
:1076D00037F83360488886422ED8012100224FF6C1
:1076E000FF73284621712A60AB8002B0BDE8F081AB
:1076F000E66A4B1E9BB206EBC30E3046DEF8042052
:107700002AB1BEF802C036F83380E0451CD8638E3B
:10771000994223D03A4A4B1C9BB2B3F5007F00EB51
:10772000C106238615BF4FF480604FF47E704FF082
:1077300080084FF07F08B4E700EBC313441C9BB2F2
:1077400002EBC0024C8091E70CEBC3130CF101017A
:107750009BB202EBCC02AEF8021087E7B3F5007FD4
:10776000BBD004F10C025B0096421FFA83F83B6821
:1077700016D024489B6883424FEAC80135D1304671
:107780002DF06EFA0028A8D01D4A218EE062A4F8E0
:107790003280C0E701463846984788E7E66AE0E766
:1077A000174A1B68019293424FEAC80022D123F086
:1077B000E9FA019A002890D0D6F800C07168B36841
:1077C000D6F80CE0C0F80CE0C0F800C0416083605F
:1077D000D6F810C07169B369D6F81CE0C0F81CE097
:1077E000C0F810C041618361CFE70A463846314690
:1077F0009847C7E7014638469847019ADAE700BF3D
:10780000BD750200AD7502002DE9F0418B8E4FF67B
:10781000FF72934282B00C46054611D0CA6AD9095C
:1078200002EBC10203F07F01526832F83100A086FA
:1078300002EBC10228462A60AB8002B0BDE8F081AD
:10784000098E2768002932D1638E002B00F08580D5
:107850000123E66A594A23864FF480604FF080087E
:107860003B681B68934274D123F08CFA238EE76A3D
:107870007060013B9BB207EBC30100284A6808BF58
:107880004FF000080020A6F80080708022B137F881
:107890003360488886422ED8012100224FF6FF73BC
:1078A000284621712A60AB8002B0BDE8F081E66A0B
:1078B0004B1E9BB206EBC30E3046DEF804202AB105
:1078C000BEF802C036F83380E0451CD8638E99427A
:1078D00023D03A4A4B1C9BB2B3F5007F00EBC106A4
:1078E000238615BF4FF480604FF47E704FF0800800
:1078F0004FF07F08B4E700EBC313441C9BB202EBCC
:10790000C0024C8096E70CEBC3130CF101019BB253
:1079100002EBCC02AEF802108CE7B3F5007FBBD0CF
:1079200004F10C025B0096421FFA83F83B6816D004
:1079300023489B6883424FEAC80135D130462DF079
:107940008FF90028A8D01D4A218EE062A4F8328069
:10795000C0E701463846984788E7E66AE0E7174AF5
:107960001B68019293424FEAC80022D123F00AFA21
:10797000019A002890D0D6F800C07168B368D6F894
:107980000CE0C0F80CE0C0F800C041608360D6F89D
:1079900010C07169B369D6F81CE0C0F81CE0C0F8EB
:1079A00010C041618361CFE70A46384631469847A7
:1079B000C7E7014638469847019ADAE7BD750200E5
:1079C000AD75020070B5456A6A1C1F2A04460E4652
:1079D00004D8631962621E71012070BD431901460B
:1079E00000251D7151F8040B23F0EEF808B10122B7
:1079F000EFE7656A002DFAD070BD00BFD0E9013114
:107A00000B4400222DE9F0411A72D0E900760446B9
:107A1000B868A56898B1EA1D3244C3889D420BD16D
:107A20003DB3F31DC11D01E09A4222D013F801EFCE
:107A300011F801CFE645F7D000680028EDD1B5F583
:107A4000803FD7F8008019D2D8F8003018489B68DA
:107A5000834205F1090121D130462DF001F968B1C9
:107A60002368C5809A680260002298606260BDE861
:107A7000F081838801338380BDE8F081D8F800303D
:107A80000C4A5B6893420ED03146404698472268C4
:107A900000239268012139711A60FFDE0A464046D0
:107AA00031469847DBE7304623F086F9EFE700BF21
:107AB000AD750200B57502002DE9F04745684DB17E
:107AC0008368EA88934204460E4605D01D4401337C
:107AD000A3602E72BDE8F0875B00D0F800905F1CB9
:107AE000B7F5803FD9F8008012D2D8F800201549A8
:107AF000D2F808A08A4503F10A021CD11146284693
:107B00002DF0AEF820B1C780A36860600546DDE7C0
:107B1000D8F800300C4A5B68934208D1284623F01D
:107B20004BF90122002389F804206360D2E729463B
:107B300040469847F5E729464046D0470028E2D11D
:107B4000E6E700BFAD750200B575020003792DE9C7
:107B5000F0470C46D907054637D4DA0624D413F08B
:107B6000600F1DD02E884FF6FF77BE4215D0E36A16
:107B7000F20903EBC20306F07F09D3F8048008EB97
:107B8000C900B246C6882146FFF7E0FFA38E28F859
:107B90003930BE42A4F834A0E9D14FF0FF332B6056
:107BA00000232B71BDE8F0872A884FF6FF718A42C7
:107BB00037D0E16AA68ED00901EBC00102F07F0048
:107BC000496821F83060A286C9E7A0682A6826685B
:107BD0000028C2D0824216D0014600680028BCD0DE
:107BE0008242F9D18288013A92B28280002AB4D1CD
:107BF00003680B6033680C4A5B6893420CD123F036
:107C0000DBF82B79A9E78288013A92B28280002AB8
:107C1000A3D10368A360EDE70146304698472B796E
:107C20009BE700231B80FFDEB57502002DE9F04FB6
:107C30000E46097885B02B29009000F0DE802D29B2
:107C400040F09A807178012001900644A1F1300043
:107C5000C0B2092800F29880DFF84C93C0B200212E
:107C6000002400254FF0993816F801BF2418ABF115
:107C70003007FFB241EB05054FEA850E092F6FEA89
:107C800007024FF0FF334FEA840C4EEA947EF8B2BD
:107C90004FF0000100F2FF80A94508BFA0450BD3BB
:107CA0001CEB040C4EEB050E1CEB0C044EEB0E050E
:107CB000AB4208BFA242D7D24FF0000A00232046B1
:107CC00029460A222BF076FEA946A0461FFA8AF31F
:107CD000B9F5200F03F1010A08BFB8F1000F0446FF
:107CE0000D460FFA8AFAE9D2092F0BD802339B1BF3
:107CF00006EB030A16F801BFABF13002092A0FFAAE
:107D00008AFAF5D9BBF12E0F00F097800BF0DF0354
:107D1000452B42D0BBF1000F38D10AF126034C2B82
:107D200000F2DB80002D08BFB4F5000F80F0D58095
:107D300007EE904ABAF1000FF8EEE77A40F31281AD
:107D400092490022D3B21AF0010F01EB83031CBF4A
:107D500093ED007A67EE877A5FEA6A0A02F1010220
:107D6000F0D1019B0BB1F1EE677A009A0123C2EDCD
:107D7000027A137010460DE000200190A1F130004E
:107D8000C0B209287FF668AF2E2952D0009A00238E
:107D90001370104605B0BDE8F08F96F801B0BBF146
:107DA0002D0F35D0BBF12B0F00F0CB80ABF13003A2
:107DB000DAB2092A06F10106ACD80AEB0302B2F5E1
:107DC0009A7F00F3B280002706E002EB400303EB4A
:107DD0000A02B2F59A7F77DC16F801BFABF13002E8
:107DE000D1B2092903EB8300EFD9002F40F0A28024
:107DF0009A44BBF1000F90D0C8E771780020019041
:107E0000A1F13000C0B2092806F10106BCD823E771
:107E100096F802B0ABF13003DAB2092A06F1020695
:107E20003FF678AF0AEB0302B2F59A7F4DDC0127EB
:107E3000D2E7002400254FF0000A96F801B0ABF11C
:107E40003000C0B2092806F101063FF65FAF504B83
:107E50004FF099329D424FEA850108BF94424FEAA4
:107E6000840741EA94710ED23F1945EB010117EBEB
:107E7000070841EB01090AF1FF3A18EB00040FFA79
:107E80008AFA49F1000516F801BFABF13000C0B223
:107E90000928DFD93AE7BBF1000F6ED1019B8BB106
:107EA000B5F1004F08BF012CBFF406AF644265EB8B
:107EB00045050223009A1046C2E90245137005B039
:107EC000BDE8F08F0323F5E77FB300994FF0004240
:107ED000012308468A600B705CE7204629462BF098
:107EE00001FABAF1000F43DD2A4D002404E05FEAF5
:107EF0006A0A04F101040AD01AF0010FF7D0E3B2C4
:107F000005EBC303D3E900232BF022FAEFE7019B33
:107F100013B101F100431946009A0423C2E902019A
:107F20001046137005B0BDE8F08F019B0020BBB177
:107F30001949F1E7AAEB030ABBF1000F3FF4EDAEDC
:107F400024E796F802B0ABF13003DAB2092A06F161
:107F500002067FF632AFBBF1000F3FF4DEAE15E74D
:107F60000E49D9E73FF4FDAE0D49CAF1000AE8E633
:107F7000CDD00C4DCAF1000AB7E7B5F5801F08BF98
:107F8000002CBFF499AE4FF0000ABBE62C7205003E
:107F900099990100907205000000F0FF0000F07F49
:107FA000147205004872050099999919002913DD8A
:107FB000421E10B4094C11444FF0FF3012F8013F3B
:107FC0004340DBB2914254F8233083EA1020F5D1CC
:107FD000C0435DF8044B704700207047D87205001D
:107FE000704700BFF8B522F0A5FE22F015FD30481D
:107FF000304F314E1DF09EF8304B314931484FF62D
:10800000FF744FF0FF32C3E90022C3E90922C3E93C
:108010001222C3E91B229A81C3F81220C3F816204A
:10802000C3F83620C3F83A20C3F85A20C3F85E20BC
:10803000C3F87E20C3F882201C815C83DC839C858E
:108040001C86DC87A3F84240A3F85040A3F85440B4
:10805000A3F86240A3F86640A3F87440A3F8784000
:10806000A3F88640A3F88A40174B3C800C80174940
:108070000480C3E90022C3E902221548154B34806D
:1080800000250B60144E4FF496630380294620228E
:10809000124835702BF03AFF114B1248124A1D70EE
:1080A0001249134B047015700D701D80F8BD00BF90
:1080B0002C7600205E6400205C640020D0640020E8
:1080C0002E6600201E6600206064002038640020B8
:1080D000F6650020801A06001C6600201864002047
:1080E000A06400204B660020D0630020B86400200C
:1080F000A065002008B5FFF747FA00BF2DE9F04F53
:1081000093461278A1B0012ACDE9011319D0022AB1
:1081100021D0032A00F09E80042A00F0C780052A9F
:1081200000F0D180029B002B07DD9BF800305A1E27
:10813000042A13D9073B012B10D9019821B0BDE8BF
:10814000F08FDBF804301868596806AB03C39DF85C
:108150001C30002B35D1029B002BEEDDDBF8083004
:10816000186859689A6808AB07C39DF82860BDF97C
:108170002040002EE1D0664A664B1788D3F800C035
:10818000019807EB470106440CEBC1014FF6FF7560
:10819000634637B90DE0A24208BF588018339942B0
:1081A00007D0B3F902208242F5D15D80183399429D
:1081B000F7D10130B04204F10104E9D121B0BDE8AA
:1081C000F08F242212FB0303DFF85C91CDF80CB092
:1081D0008246022602279B469AF800104E4BA1F1D8
:1081E000200833F91830002B41DB5CD09AF81010CE
:1081F000CDE91067CDE91267CDE91467CDE91667BF
:10820000CDE91867CDE91A67CDE91C67CDE91E678E
:1082100061B1DAF804200120114412F8013B20ACCE
:1082200004EB8303914243F8400CF6D10FAD0024D8
:1082300055F8042F59F82800E1B2D2B2013416F0F3
:1082400085FE102CF4D10AF1240AD345C4D1DDF8FF
:108250000CB067E7DBF80430186804909B88ADF831
:108260001430C1B201222D480EF0B4FB5AE71020A1
:1082700025F0E0F8044616F031FE274A49F8284078
:10828000002322F818309AF80010254A204616F0EC
:1082900047FE0028D7D0234A012342F828301E4A3F
:1082A00022F81830A2E759F82840EEE7DBF804304E
:1082B000186804909B88ADF81430C1B200221748AA
:1082C0000EF088FB2EE7DBF80440E3682068616865
:1082D000A2680BAE0FC6206930600BAA9DF82C1067
:1082E0000E480EF001FC642022F030FD9DF82C10A9
:1082F0000A480EF025FC0BACADF83E000FCCDBF8C5
:10830000044020606160A260E3603068206109E79A
:10831000406600204466002060640020546600200F
:1083200044680020186400203C6400202DE9F04FD0
:10833000C64CC74B87B0B4F900A0B3F9003069460A
:108340000AEB8A0202AFA1EBC20295464FEA8A020B
:10835000BA60002B02AA0546FA600FDDDFF8388309
:108360000026D8F80030012133F9160026F0B6F9BE
:10837000B74BB3F900300136B342F2DCB54BB3F979
:108380000030002B0FDDDFF814830026D8F8003012
:10839000022133F9160026F0A1F9AE4BB3F90030F3
:1083A0000136B342F2DCAC4BB3F90030002B0FDDE9
:1083B000DFF8EC820026D8F80030022133F91600ED
:1083C00026F08CF9A44BB3F900300136B342F2DC4D
:1083D000B4F90000002840F3E781DFF8848200262A
:1083E000D8F80030002133F9160026F077F9B4F9F7
:1083F00000000136B0428646F2DC002800F088809A
:10840000964B974E984294BF40004FF0FF3025F0B6
:1084100013F8944BD7F80C901860BB683D609A082D
:108420007A604FF00A089B46B4F90030002B0FDD4C
:108430004D464FF0000A336833F91A0026F020F950
:10844000B4F9003045F8040B0AF1010A5345F2DC97
:108450000A2022F07BFCB8F10108D944E4D1B4F938
:1084600000E03D68BEF1000F52DDD7E902321A4448
:10847000D11801EB030909EB030A7B6879487E6890
:10848000006803EB830CFB68043B3601FB60A9F139
:1084900004037B60A6F1040E0238D7F80490B8609C
:1084A0000B1F043AAAF104014FEA8C0CF2447D60E0
:1084B000FD6853F804BF55F804EFFD6052F8045FFF
:1084C00053F80C00754459F804EF5D4451F804BFAB
:1084D0007544AB449559AB449D59AB445AF8045F7D
:1084E000834451F80C000BEB050E0EEB00055E48C3
:1084F00080FB050EB868ED17C5EBAE0520F8025FEE
:10850000B4F900E0B86008F10108C645D0DC7D6828
:10851000514B5048B3F900104D4B544A1B8800880A
:10852000B2F90020DFF87C81514E13FB0013134495
:10853000B8F900204F4900247344A24233600C7004
:108540002FDDDFF86491D9F80030A24623440221E0
:10855000587826F0C3F8D9F80030234402219878DF
:1085600026F0BCF8D9F8003023440221D87826F050
:10857000B5F8D9F8003023440221187926F0AEF876
:10858000D9F800301A5D002A40F0A8803268B8F9A6
:1085900000100AF1010A0132514504F11C04326055
:1085A000D4DC354BB3F90010002905DB334BB3F9AC
:1085B0000020002A80F2AF80314CB4F90030002B4B
:1085C000C0F2EB80DFF8E480B8F90030002B00F354
:1085D0008F80202200212B482B4C2BF097FC2B491D
:1085E0002B4A2C48DFF8C8C00023C1E900338B6058
:1085F000C0E90033C2E90033C2E902338360306866
:108600008CF80030238024F017FFA860306824F035
:1086100013FF3368114AE860934294BF58004FF04B
:10862000FF3024F009FF33680C4A6861934294BF1D
:1086300058004FF0FF3024F0FFFE33682861002B14
:1086400046DD00231A464FF6FF7C33E0F06300203E
:10865000D2630020DE650020E8630020FCFFFF3FBE
:10866000F4630020F8630020676666664E660020AB
:1086700074640020B96400205E6400205C64002003
:108680002E660020FC6500202C660020206600205D
:1086900030660020E8650020D4630020E0650020FB
:1086A000EC630020C0640020BC640020F66500205C
:1086B000F4650020A968CA54E968CA54D5E90404DD
:1086C000316824F8132020F813C001339942F1DCFB
:1086D000002314372B83BD46BDE8F08FB8F9002086
:1086E0000AF1010A524504F11C043FF72FAF58E785
:1086F000342024F09FFE384B384922781B780978C3
:10870000044621F047F8364BB8F900101C602046AB
:1087100021F05AF85DE7DFF8DC803248324CD2B203
:10872000C9B20EF08FFBD8F800102E480EF06CFB8B
:108730002C480EF00DFBB4F90030002B0BDDDFF8F8
:10874000B890B9F90030002B05DDDFF8B0B0BBF907
:108750000030002B2ADCDFF8A880B8F90030002BAD
:108760007FF72AAF3168DFF89C900024D9F80030F9
:1087700004EB440203EB820228460123FFF7BEFC10
:10878000B8F9003030600134A3420146EEDC174CEA
:10879000B4F90030002BBFF615AF104BB3F9003021
:1087A000002BBFF60FAF14E7864626E6142024F010
:1087B00041FE82460EF0D0F8D8F800300C48009305
:1087C0002378C0F800A0BBF90020B9F9001050468A
:1087D0000EF0CAF8BFE700BF1C6600201E6600202E
:1087E00070640020446800200C6000202E66002089
:1087F000C464002038640020106000200E60002057
:108800001464002010640020144A1268F8B5144B58
:10881000002A0E460746196004DD00695200FF2158
:108820002BF074FB0F490D8865B10F4B1A680023BC
:10883000023232F9024CB44205D001339D4202F1BA
:108840001802F6DCF8BD32F9180B3C6924F8103038
:108850000D880133AB42ECDBF8BD00BF746400202F
:10886000E46500204066002044660020F0B42A4CF5
:10887000BDF910502468944207462BD027490E8832
:10888000E6B127490024096803E0B44201F1180168
:1088900014D0B1F90050954204F10104F5D1B1F9B9
:1088A00002009842F1D10C460FCC3D460FC594E82A
:1088B000030085E803003846F0BC70474FF0FF33F3
:1088C0004FF4204178223B603B81B980BA71384631
:1088D000F0BC7047096931F913100029EEDB35B996
:1088E0000F4B1C6801EB410104EBC104DCE7012DD7
:1088F000C4D10B4B1B6801EB410103EBC1010B7CA5
:10890000002BDBD04D690FCD3C460FC495E803002A
:1089100084E80300DBE700BFE46500204066002038
:10892000446600202DE9F04F2DED028BADB0CDE96E
:10893000041302921278012A77D108EE100A029AE3
:108940005368946818685968A2680AAB03C3206822
:108950009DF82C506168019510AB07C3002D00F005
:1089600037810A9C0025AA464FF6FF79A04614E0FD
:10897000B74B53F8220016F0B7FA002844D02CABBE
:1089800003EB4A02C04322F8400C0AF1010A019BA2
:1089900001359D4208F1240867D098F80020AD4BBE
:1089A000203A33F912100029F1DD98F81060002EFA
:1089B000DED098F818100029DAD0B8F80830A449A9
:1089C000009351F8227013F47F41DAB25CD1002A8F
:1089D00040F0AF80564493461CAC384616F084FAFB
:1089E000009B63EA000378B1484532D024F81A307E
:1089F0000AF1010AB245CAD0384616F075FA009B52
:108A000063EA00030028EFD10A2022F09FF9029CBC
:108A100000232246194618EE100AFFF76FFB0A20C2
:108A200022F094F92278012A89D0022A00F05B8191
:108A3000D31E012B40F21E81052A00F09481072AE3
:108A400000F01082082A00F0C68008254FF0000AC6
:108A50000EE024F81AB00AF1010AB245BDD1019B1B
:108A600001359D4208F1240897D1029B1A78102500
:108A7000531E042B2FD9073A012A2CD900202DB0E0
:108A8000BDEC028BBDE8F08F002A75D11CAB03EB67
:108A90004A0B564403925C4609E048450AF1010A34
:108AA00008BF039B2BF8023BB2453FF470AFABEB22
:108AB0000403D8F80C20D15A38460122090A16F0CE
:108AC000A1FA384616F010FA009B63EA000300286A
:108AD000E3D199E708259DF848000028CFD0049BF2
:108AE000119C591E059B0B440AF1FF3719462CAB0C
:108AF00004EB400603EB47070DF1B00C34F9023BE1
:108B000093FBF5F20CEB420C524505FB1233ACBF64
:108B100037F8402C3CF8402C42FA03F303F00103F1
:108B2000B44201F8013FE7D12DB0BDEC028BBDE8A6
:108B3000F08F1CAB03EB4A0B564403915C4609E0F3
:108B400048450AF1010A08BF039B2BF8023BB245D6
:108B50003FF41DAFABEB0403D8F80C100022C95C46
:108B6000384616F04FFA384616F0BEF9009B63EA15
:108B700000030028E4D147E72CAB06EB0A0B03EB1C
:108B80004A060024423E0BE048450AF1010A08BFAC
:108B90000023DA4526F8023F04F102043FF4F7AE61
:108BA000D8F80C30195B0122090A384616F02AFA67
:108BB000D8F80C300022195D384616F023FA3846F2
:108BC00016F092F9009B63EA00030028DCD11BE752
:108BD000AA4610257FE7029BD3E901432068596824
:108BE0009A68089005461868A388ADF8243010AB41
:108BF00007C31949EAB20EA80EF00EF89DF839C065
:108C0000BCF1000F40F0DC81144C2388DA1E062AE8
:108C100000F2568212490B88132B8CBF4FF0000CC8
:108C20004FF0010C0F4A104813801FFA8CF30122F9
:108C300002800E4D0E4800222A8022800A80028087
:108C4000ADF87030029B08251A784FF0010A0FE743
:108C50003C6400206064002054660020E263002031
:108C6000DC630020DE630020E0630020D863002086
:108C7000DA630020029BD3E90143206859689A68AF
:108C8000089005461868A388ADF8243010AB07C3D8
:108C9000C749EAB206A80DF003FF9DF824409DF8ED
:108CA00018209DF819109DF81A309DF81B00012C12
:108CB00000F0EA80022C00F0EA80032C0BBF1C1AA3
:108CC0008C1A881AC01A54EA000330D1029A12781A
:108CD0004FF0010A2CA901EB43039DF81C1023F867
:108CE000401C0825C4E6029A5368946818685968BD
:108CF000A2680CAB03C3206861689DF834A010AB78
:108D000007C3BAF1000F3FF4E5AE0C9CA84F0AEB85
:108D100004061CAD14F8011B38460DF0B3FEB44236
:108D200025F8020BF6D1029B08251A78A0E6029BD3
:108D30001A786FF07E039C422646B8BF1E468342D7
:108D4000B8BF03467F2EA8BF7F267F2BA8BF7F23F7
:108D5000032A1D4600F09E80042A00F015814FF082
:108D6000010A0023B6E7029BD3E901472068616846
:108D7000A268E368E67C17AD0FC5206928607968B2
:108D80003868BA688DF86F6010AD07C5BDF86E30F1
:108D90002278874913A80DF007FFB246002EC2D0F3
:108DA0009DF84C30ADF87030012EBCD09DF84D30A0
:108DB000ADF87230022EB6D09DF84E30ADF874305A
:108DC000032EB0D09DF84F30ADF87630042EAAD0E7
:108DD0009DF85030ADF87830052EA4D09DF8513074
:108DE000ADF87A30062E9ED09DF85230ADF87C302A
:108DF000072E98D09DF85330ADF87E30082E92D0D3
:108E00009DF85430ADF88030092E8CD09DF8553047
:108E1000ADF882300A2E86D09DF85630ADF88430F9
:108E20000B2E80D09DF85730ADF886300C2E3FF4D5
:108E30007AAF9DF85830ADF888300D2E3FF473AFFF
:108E40009DF85930ADF88A300E2E3FF46CAF9DF886
:108E50005A30ADF88C300F2E1CBF9DF85B30ADF84A
:108E60008E3060E7029B534D9B68186859689A687A
:108E700010AB07C30FCD1CAC0FC495E80F00102535
:108E800084E80F00AA4626E6C41A501A1BE7541AB3
:108E9000181A18E7484B1978002940D0002803D049
:108EA000D4BF01204FF0FF30002C03D0D4BF4FF0CF
:108EB000FF340124414BB3F900100029C0F20781AF
:108EC000B1F5005F00F00381B3F910100029C0F282
:108ED0003A81B1F5005F00F03681B3F92010002926
:108EE000C0F22F81B1F5005F00F02B81B3F9301093
:108EF000002903DBB1F5005F7FF431AF032103EB01
:108F0000011319464FF4A4260027E1E802676425FF
:108F100018815C814FF0010A4D600023DAE6274B8F
:108F2000B3F9000000281DDBB0F5005F1AD0B3F9DB
:108F300010100029C0F20381B1F5005F00F0FF803E
:108F4000B3F920100029C0F2F880B1F5005F00F0FD
:108F5000F480B3F93010002903DBB1F5005F7FF432
:108F6000FEAE032109014FF4A4245C5058180831C7
:108F700000248680BDF92260C5804FF0010A5C5054
:108F80002346C4818681A5E60023A11CADF870307C
:108F900080F2AF8085EAE5717342A1EBE5718B4207
:108FA00040F397800123ADF870304FF0020A91E64C
:108FB00054660020FC650020B86400206065002035
:108FC000834EBDF83C403388BDF83E00814D002BF8
:108FD0006DD02F88002F71D09DF82420012A00F039
:108FE000F380022A00F0EC80032A00F0D080E31A1C
:108FF0005A00391ABCF1010F774B00F0AE80B3F97B
:109000000070002FC0F2A780B7F5005F00F0A380CA
:10901000B3F91070002FC0F29C80B7F5005F00F02C
:109020009880B3F92070002FC0F28F80B7F5005FF1
:1090300000F08B80B3F93070002F03DBB7F5005FD1
:1090400040F0858003274FEA071E03EB07174FF018
:10905000000C002A4FF4A42843F80E80C7F804C07F
:109060009446B8BF02F1030C4FEAAC0C0029A7F8F4
:1090700008C00F46B8BFCF1C03EB0E0CBF107344E3
:109080007F424FF0640EACF80A700027C3F80CE082
:10909000DFF850C10029B8BF4942002ABCF80030AF
:1090A000B8BF52420A441A44ACF80020BBB24B4944
:1090B00034800A88288001320A80C1E53B46F6E701
:1090C000C3BB474847490288013292B2B0E500214C
:1090D00015E7831C1FDA002EC5F10003B8BF7642E6
:1090E000B34214DD0423ADF870304FF0020A0123BF
:1090F000F0E5022CEDDD85EAE573A3EBE5739E4216
:10910000E7DD0223ADF870309A460123E2E54FF027
:10911000020A0123DEE50228F9DD86EAE673A3EB05
:10912000E6739D42F3DD0823ADF870304FF0020A7C
:109130000123CFE52B490B8874E5022112E70121B9
:1091400010E70221DBE60121D9E602277BE70027B1
:109150009EE7012777E7002775E700274FEA071CFE
:10916000013733F90CE0BEF1000F14DBBEF5005FF0
:1091700011D0042FF2D11A4B1B88043B9BB2192B40
:10918000E5D8194B1B88132BE1D8012780E71B1B5F
:1091900059003A1A2EE74FF4A42843F80C8003EB49
:1091A0000C070CF1080EBDF92280B9804FF0000CBD
:1091B000FA8043F80EC0A7F80EC0A7F80C80DAE7D3
:1091C0001B1B5A00C11B15E7E31A5900C21B11E70C
:1091D000D8630020DA63002060650020E26300208D
:1091E000E0630020DC630020DE6300202DE9F84FFF
:1091F000DFF81893BD4DBE4FBE4CBF4EDFF8108355
:10920000D9F800000368DB689847002840D0D9F8F7
:10921000000003681B6998472378C2B23BB902F18A
:109220004F01C9B20629EBD822703370E8E7B12BA1
:109230001FD0B22B4BD0B32B66D0B42B58D0B52B4C
:109240000ED0B62B0CD0B72BDAD13378002B40F0F0
:10925000F680012A88F8002008D00022227005E05C
:109260003378002B40F0A58088F80020013333705C
:10927000C6E7A24B120900F00F0C33F812100120C0
:1092800000FA0CF00843002123F812002170B7E720
:109290002B7863B11C09994803F00F0330F81420B0
:1092A000012101FA03F322EA030320F81430944960
:1092B0000F22481E2AF010FE3B880022EA7323B1D9
:1092C000013B9BB23B80002B6DD0BDE8F88F8B4BF0
:1092D000120900F00F0033F812104FF0010C0CFAD5
:1092E00000F021EA0001002023F81210207087E727
:1092F00096F800E0BEF1000F6CD188F800200EF166
:10930000010E86F800E07BE77C4B95F802C011095E
:1093100000F00F0033F811E04FF0010A0AFA00F0F4
:1093200040EA0E004FF0000E23F8110084F800E030
:10933000BCF1000F00F0B680EB78002B00F0B88095
:109340002B79002B00F0B1806B79002B00F0B680F8
:10935000AB79002B00F0AF80EB79002B00F0B480EC
:109360002B7A002B00F099806B7A002B00F0A980FB
:10937000AB7A002B00F0B180EB7A002B00F0AA80D2
:109380002B7B002B00F0A3806B7B002B00F0AB80CD
:10939000AB7B002B00F0A480EB7B002B7FF430AF85
:1093A0000F23EA542CE7574AC2E900339360BDE823
:1093B000F88F5549B1F90000002824DBB0F5005FB3
:1093C00021D0B1F91000002802DBB0F5005F53D1C5
:1093D000012019E098F80010914211DA474B4FF044
:1093E000010A4FEA211C01F00F0B33F81C000AFAA6
:1093F0000BFB013120EA0B00914223F81C00F0D155
:10940000002323707BE700204FEA001E4FF4A42ABC
:1094100041F80EA00EF1080C01EB001001EB0C0E50
:1094200098F800B0C2804FF0000A6422A0F804B09F
:1094300041F80CA0CEF804200022227016E798F81C
:10944000001001297FF412AF022B08F803207FF6E9
:109450000DAF4FF0000CC8F805C088F809C0A8F897
:109460000AC098E80700DFF89CE084F800C08EE8A6
:109470000700C8223A80F9E6B1F9200000280FDB86
:10948000B0F5005F0CD0B1F93000002803DBB0F577
:10949000005F7FF4E2AE0320B6E70823EA54AFE6AC
:1094A0000220B1E70223EA54AAE60423EA54A7E61D
:1094B0000323EA54A4E60623EA54A1E60523EA546A
:1094C0009EE60923EA549BE60723EA5498E60C2318
:1094D000EA5495E60B23EA5492E60A23EA548FE60F
:1094E0000E23EA548CE60D23EA5489E63066002008
:1094F0002C660020F4650020F8650020FC65002043
:109500003166002020660020606500207064002025
:10951000E8650020084BB3F9001000290BDD074B6C
:109520001B681C220C3311FB023100221A605A60A6
:109530001C338B42FAD17047C0640020BC64002009
:10954000F8B548780C4625F09BF80646A07825F03B
:1095500097F80546E07825F093F80746207925F03E
:109560008FF8B4F90C20C31B9A42B4F90E20C8BF7F
:10957000A3819A42B8BFE381B4F91030A81B83429B
:10958000B4F91230C8BF20828342B8BF6082F8BDF0
:109590002DE9F843534C94F900401546002C62D154
:1095A0001E46137813B12046BDE8F88373545078F3
:1095B0000F4625F065F88046A87825F061F8044646
:1095C000E87825F05DF88146287925F059F808EB10
:1095D00004034B440344B5F90AC0B5F908E0002B75
:1095E0001946B8BFD91CF44502464FEAA10142DB37
:1095F000B5F90600814248DA3B4EB6F90030002B3F
:1096000002DBB3F5005F4FD10027B5F914E0B5F9DF
:1096100016C03F01A2EB0903A4EB080407F10802FE
:10962000411AA4EB0C0406EB0708A3EB0E0306EBB0
:10963000020CB5F91800B5F91AE001FB03F3002597
:1096400001FB04F193FBF0F364244FF4A420F051E8
:1096500091FBFEF1A8F80430A8F806100120B550DF
:10966000CCF80440A0E7012C1AD02878B0FA80F09A
:109670004009BDE8F88341F24F408342B8DC0CF169
:10968000010CA5F80AC001208EE7BCF1000F03DD34
:10969000F445BCBF0123F35500236B81012083E710
:1096A0001146FFF74DFFE0E7B6F91030002B12DB53
:1096B000B3F5005F0FD0B6F92030002B0DDBB3F50A
:1096C000005F0AD0B6F93030002B08DBB3F5005F3D
:1096D00005D0012068E7012797E7022795E70327D0
:1096E00093E700BFB9640020606500202DE9F04FCA
:1096F000C34EB6F90030002B85B0054640F3BB8160
:10970000C04F00243B6833F9140025F089F8AB689A
:10971000B0FA80F040091855B6F900300134A34280
:10972000F0DCB949B1F90030002B0ADD00231846FE
:10973000AA681055B1F9002001339A4204F10104DE
:10974000F6DCB24BB3F90030002B7CDDDFF8E8B279
:10975000DFF8E8A200260EE02B689B5D434553DD51
:10976000AB6801221A55A94BB3F900300136B34258
:1097700004F1010467DD2B6933F91430002B3DDB64
:10978000A34A126803EB430302EBC3031F7993F868
:10979000058093F80690DBF8003033F9160024F0CA
:1097A0006FFFDAF800309B4A9B4933F91630B2F963
:1097B0000020B1F900104FF0FF0C1A441944CDF805
:1097C00000C0002321F02CF92B6880F30800985585
:1097D000002FC1D0012F1ED0022FC4D1EB681B5D1A
:1097E000002B40F0BD802A68925DD22A40F2F680BC
:1097F000AA68032111556A689355B4E74FF07809B8
:1098000000274FF0A008C6E74B4519DBD5E9023227
:10981000125D1A55A7E7EB681B5D002B40F099809D
:10982000D5E90012925D895D9044414540F3AD80D9
:10983000AB6801221A55D5E90023925D9A5592E74B
:10984000AB681F558FE7754FB7F90030002B41DD2E
:10985000734ADFF8EC81DFF8ECA1DFF8EC9142F01D
:10986000010203920026002BC8BF4FF0000B0FDD52
:10987000DAF80020BBEB060132F91B0018BF01210A
:1098800024F0B0FFB7F900200BF1010B5A45EFDCD3
:10989000039B4FF448609847B8F90030002B14DD63
:1098A0004FF0000BD9F8002032F91B0024F0B8FF6C
:1098B000AA68B0FA80F040091055B8F900200BF101
:1098C000010B5A4504F10104ECDCB7F90030013614
:1098D000B342C8DC534FB7F90030002B13DDDFF87B
:1098E0006C810026D8F80020AB68C6EBC60102EBFD
:1098F000810228462146FFF74BFEB7F900300136BA
:10990000B3420444EEDC484BB3F90030002B5FDB7C
:10991000464BB3F90030002B33DC454FB7F900302C
:10992000002B13DDDFF828810026D8F80020AB6873
:1099300006EB460102EB810228462146FEF7F2FFC4
:10994000B7F900300136B3420444EEDC05B0BDE89F
:10995000F08F012B27D0AB684FF000021A5502E7B9
:10996000022B7CD0032B7FF4FEAE2A68925D1D2A69
:1099700000F28A80AB684FF000021A556B689A5566
:10998000F1E62846FFF732FCC7E7F0293FF650AF73
:10999000AA681355D5E90023995D925D91427FF63F
:1099A000E2AE9A55DFE6D5E900239B5D925DA3EB1D
:1099B00009094A45AB681FDB0B2A1DD91F55D5E99C
:1099C0000023995D925D9142BFF4CDAE9A55CAE6EF
:1099D000184BB3F90030002B9ADA9EE7282A39D9C0
:1099E00069688A5D01328A556A68925D052A3FF688
:1099F00027AFAA681355B6E64FF000021AE700BF7A
:109A0000E8630020EC6300204E660020F063002035
:109A100044660020FC630020FE630020D263002027
:109A200040780500C06400202E660020F665002006
:109A3000146400201E660020F4630020F8630020F8
:109A4000DE650020D4630020E0650020BC640020B7
:109A500010640020AA6813556A68935583E62B6842
:109A60009A5DD22A09D9AB6803221A556B684FF068
:109A700000029A5577E6002453E61B5D1D2BAB6868
:109A80007FF679AF1F556EE6C72A0ED869688A5DE2
:109A900001328A556A68925D052AAAD9AB681F55BA
:109AA0006B684FF000029A555DE6AA6813556B6823
:109AB0004FF000029A5556E610B4084C2368002B6C
:109AC00008DD0023D0E90212C95CD15422680133B9
:109AD0009A42F7DC5DF8044B704700BF74640020C5
:109AE000084B00224FF6FF71196019611962196362
:109AF0005A60DA605A61DA615A62DA625A63DA638A
:109B0000704700BF60650020F0B51C4CBDF914C063
:109B1000B4F90000BDF91850BDF91C70BDF9206002
:109B2000002801DB814211D100204FEA001E04EB26
:109B3000001024F80E106D420021058142808380C0
:109B4000A0F806C047818681C181F0BDB4F910003C
:109B5000002809DB814207D0B4F92000002801DB8E
:109B6000814203D10220E0E70120DEE7B4F93000B2
:109B7000002801DB8842E8D10320D6E76065002099
:109B8000144BB3F90020914205D100224FF6FF702B
:109B9000C3E90002DA60B3F91020914205D1002236
:109BA0004FF6FF70C3E90402DA61B3F92020914255
:109BB00005D100224FF6FF70C3E90802DA62B3F95B
:109BC0003020914205D100224FF6FF71C3E90C12FB
:109BD000DA637047606500202DE9F04F00F1100353
:109BE000064693E8070091B0B468D6F80CE004ADDF
:109BF00085E80700002C00F0DE80237907AF202BDA
:109C000087E8070040F0D7800DF128090DAB89E8FF
:109C1000070083E807000146002800F0CC80208878
:109C20004FF6FF7C604500F0C680DEF82CB0C2091C
:109C30000BEBC20200F07F00546814EBC00000F090
:109C4000BA800E9AC488029202F1FF3E01EB0E0226
:109C50004FF0010A009203965A46029ECDF804C0C6
:109C6000A0468B46BAF1000F15D10199884500F046
:109C7000A2804FEAD81402EBC40408F07F086068A1
:109C800010EBC80000F097808AF0010AB0F8068057
:109C9000BAF1000FE9D090F804C00468BCF1040FD9
:109CA00000F09380BCF1050F40F08980E088083413
:109CB000B042DAD15EB1013C0BF1FF3010F801CFB8
:109CC00014F8011F8C45D0D100998142F6D14FF68E
:109CD000FF7CE045039E444693466CD006F11C0091
:109CE000E6090BEBC60607C8766804F07F0416EB9E
:109CF000C40E85E807005ED095E807009EF8045082
:109D0000202D87E8070056D183E807000D9F89E8DA
:109D10000700002F4FD036F8343063454BD0DA09B6
:109D20000BEBC20203F07F04536813EBC40342D071
:109D30000E9EDC8806F1FF3832465646B844BA46D5
:109D4000E14617467EB94C4535D0E2090BEBC2021D
:109D500004F07F04536813EBC4032CD086F0010693
:109D6000DC88002EEFD01A791D68042A35D0052A28
:109D700028D1E8880835B842E5D157B1013D0AF14C
:109D8000FF3313F8011F15F8012F9142DBD19845DD
:109D9000F7D14FF6FF739C420DD0E2090BEBC202E4
:109DA00004F07F04526812EBC40005D00179202929
:109DB0003AD0402919D0002011B0BDE8F08F002022
:109DC000044675E7002FBED1E3E764B12046029256
:109DD0002AF0B3FF029A0DAB6AE72846002DCAD0DD
:109DE0002AF0ABFFC7E7204662E732F8340098421A
:109DF000E1D0C1090BEBC10100F07F02486810EB14
:109E0000C200D9D0C1881D460020CB09A9420BEB66
:109E1000C30301F07F0200F10100CDD05B6813EBBA
:109E2000C203C9D0D988F0E732F834009842C2D0D2
:109E3000C1090BEBC10100F07F02486810EBC200C2
:109E4000BAD0C2881C460020D309A2420BEBC30340
:109E500002F07F0100F1010005D05B6813EBC10344
:109E600001D0DA88F0E7400811B0BDE8F08F00BFFC
:109E7000F0B40B460446D1E902018AB002AF03F107
:109E8000100587E80300944695E8070004AE1C33EC
:109E900086E8070093E8070007AD85E8070097E824
:109EA000030004F10C0282E8030096E80700234651
:109EB000143484E8070095E8070003F1200484E8DF
:109EC00007001846C3F82CC00AB0F0BC704700BFAA
:109ED0002DE9F04F00F10C03044693E80700D4E9A4
:109EE00001368DB06C4684E80700002B64D094E8FE
:109EF00007001D7903AC202D84E807005CD106AC77
:109F000084E807000CAC04E90700DDF82490B9F1FF
:109F1000000F51D01B884FF6FF7A53454CD0F56A9D
:109F2000DA0905EBC20203F07F04536813EBC403A4
:109F300042D00A9FDC8807F1FF3B4FF00108CB4479
:109F4000B8F1000F10D1544536D0E20905EBC2023A
:109F500004F07F04536813EBC4032DD088F001088C
:109F6000DC88B8F1000FEED01A791E68042A2AD0D6
:109F7000052A25D1F0880836B842E4D157B1013E10
:109F800009F1FF3313F8011F16F8012F9142DAD1BE
:109F90005B45F7D14FF6FF739C420DD0E20905EB0C
:109FA000C20204F07F04526812EBC40005D00179AC
:109FB00020292CD040290CD000200DB0BDE8F08F16
:109FC000002FC0D1E6E73046002ED5D02AF0B5FEEE
:109FD000D2E732F834009842EED0C10905EBC10156
:109FE00000F07F02486810EBC200E6D0C188002074
:109FF000CA09994205EBC20201F07F0400F1010099
:10A00000DBD0526812EBC402D7D0D188F0E732F827
:10A0100034009842D0D0C10905EBC10100F07F02A5
:10A02000486810EBC200C8D0C1881E460020CA098B
:10A03000B14205EBC20201F07F0400F1010005D03E
:10A04000536813EBC40301D0D988F0E740080DB082
:10A05000BDE8F08FF0B40B460446D1E9010186B0AB
:10A0600001AE0C3386E80300174693E8070003AD02
:10A0700085E8070096E8030004F1080282E803007F
:10A0800095E807002346103484E807001846DF618E
:10A0900006B0F0BC704700BFF0B50B460446D1E9EE
:10A0A00003018DB003AF03F1140587E80300944664
:10A0B00095E80700D3F820E005AE243386E80700D2
:10A0C00093E8070009AD85E8070097E8030004F16D
:10A0D000100282E8030096E807002346183484E85B
:10A0E000070095E8070003F12804C3F824E084E89A
:10A0F00007001846C3F834C00DB0F0BD2DE9F0419B
:10A1000003460C46D1E9050192B00DF1140C04F19F
:10A110001C058CE80300964695E8070007AF04F19C
:10A120002C0587E8070095E807000BAE04F13C0515
:10A1300086E8070095E807000FAD85E807009CE872
:10A14000030003F11802D4F82880D4F838C082E85C
:10A15000030097E8070003F1200484E8070096E86D
:10A16000070003F13004C3F82C8084E8070095E869
:10A17000070003F14004C3F83CC084E80700184618
:10A18000C3F84CE012B0BDE8F08100BF037913F0D2
:10A19000100270B40DD002884FF6FF76B2423CD068
:10A1A000CE6AD10906EBC10602F07F01726802EBAC
:10A1B000C1020A3B122B0BD8DFE803F01B0A2D0A61
:10A1C0000A0A0A0A0A0A0A0A0A0A0A0A200A0D00E0
:10A1D000002070BC7047D2E9003213F1004442F114
:10A1E0000005012D08BF002C34BF0120002070BCE9
:10A1F00070470068C043C00F70BC7047D2E90023AD
:10A2000000216FF00040994208BF90422CBF01200E
:10A21000002070BC70470120DBE70022C9E700BFC7
:10A22000F0B5037913F0100285B00FD002884FF615
:10A23000FF7C624576D0C96A4FEAD21C01EBCC0C98
:10A2400002F07F01DCF8042002EBC102043B1A2B70
:10A250001FD8DFE803F03946491E1E1E4C1E511E52
:10A260000E1E1E1E1E1E1E1E1E1E1E1E541E5C1EAA
:10A270002100D0ED007A9FED427AF4EEC77AF1EE3C
:10A2800010FA06DB9FED3F7AF4EEC77AF1EE10FA92
:10A290006AD9002005B0F0BDD2E900453A4B002252
:10A2A0002046294629F0DAFA0028F3D032A3D3E970
:10A2B00000232046294629F0C7FA0028EAD0204684
:10A2C000294629F0DFFAE5E701686846FDF7AEFCAC
:10A2D0009DF80030013B032BDBD8DFE803F03B3077
:10A2E000282501680831F0E7007805B0F0BD006866
:10A2F00020EAE07005B0F0BD006805B0F0BDD2E91D
:10A300000001002908BFB0F1004FC3D3C1E7D2E973
:10A31000000310F1004643F10007012F08BF002E93
:10A32000B8D3B6E7002291E7DDE90245B6E7DDE9FB
:10A330000201002908BFB0F1004FABD3A9E7DDE966
:10A34000020310F1004443F10005012D08BF002C69
:10A35000A0D39EE7DDED027A9FED097AF4EEC77A8D
:10A36000F1EE10FA95DB8DE7FDEEE77A17EE900A35
:10A3700090E700BFAFF300800000C0FFFFFFDF41A8
:10A38000000000CFFFFFFF4E0000E0C12DE9F04FBD
:10A3900000F11403804693E8070091B004ADD8F8AB
:10A3A0000C3085E80700D8F810200092002B00F050
:10A3B000F78095E807001C7907AE202C86E8070097
:10A3C00040F0EE800AAF0DAC87E8070084E8070094
:10A3D000002800F0E5801B884FF6FF72934200F0E2
:10A3E000DF800099D1F82CA0D9090AEBC10103F054
:10A3F0007F044B6813EBC40300F0D2800E99DC8815
:10A4000001924FF001091A46A34643468846514639
:10A410008246B9F1000F15D1019A934500F0C08032
:10A420004FEADB1001EBC0000BF07F0B426812EB30
:10A43000CB0200F0B58089F00109B2F806B0B9F19D
:10A44000000FE9D010791468042800F0B5800528C1
:10A4500040F0AA80E08808348045DDD1B8F1000FD3
:10A460000CD00AF1FF30621E00EB080410F801EF77
:10A4700012F801CFE645CFD18442F7D198464FF686
:10A48000FF739B455C468A4600F08A804FEAD41CE5
:10A4900008F120020AEBCC0C07CADCF804C004F077
:10A4A0007F041CEBC40E85E8070079D095E807000F
:10A4B0009EF80450202D86E8070071D10DAD87E885
:10A4C000070085E8070000286AD03CF834209A424B
:10A4D00066D0D1090AEBC10102F07F044A6812EB91
:10A4E000C4025DD04E460E9FD4889B4681467EB9FD
:10A4F0005C4555D0E3090AEBC30304F07F045A68B6
:10A5000012EBC4024CD086F00106D488002EEFD0A6
:10A5100013791568042B59D0052B4AD1E8880835E2
:10A520008742E5D15FB109F1FF33013DDA1913F834
:10A53000010F15F8011F8842DAD19A42F7D14FF680
:10A54000FF7294422CD0E3090AEBC30304F07F04AA
:10A550005B6813EBC40024D00179402920D133F883
:10A56000340090421CD0C1090AEBC10100F07F0306
:10A570004868D8F82C1010EBC30011D0C38859B329
:10A58000154602E00139C38826D0DA09AB420AEB4E
:10A59000C20203F07F0003D0536813EBC000F1D177
:10A5A000002011B0BDE8F08FB8F1000F7FF434AF98
:10A5B00064E7002F9CD1C2E7002CF5D02046CDE9FE
:10A5C00002312AF0BAFBDDE9023145E7002DF0D077
:10A5D00028462AF0B2FBA3E70099FFF721FE11B04D
:10A5E000BDE8F08F2DE9F04F00F11003064693E827
:10A5F000070093B0B468F368019306AD85E80700DF
:10A60000002C00F0E08094F804C009AFBCF1200FEA
:10A6100087E8070040F0D7800DF130080DF13C0CC1
:10A6200088E807008CE807000146002800F0CB808E
:10A6300020884FF6FF7C604500F0C580D3F82CB031
:10A64000C2090BEBC20200F07F00546814EBC0009B
:10A6500000F0B980109AC488059602F1FF3E01EB24
:10A660000E034FF0010A1646CDF80CC05A4602936D
:10A67000A1468B46BAF1000F15D10399894500F028
:10A68000A2804FEAD91402EBC40409F07F09606884
:10A6900010EBC90000F097808AF0010AB0F806902C
:10A6A000BAF1000FE9D090F804C00468BCF1040FBF
:10A6B00000F09480BCF1050F40F08980E0880834F8
:10A6C000B042DAD15EB1013C0BF1FF3010F801CF9E
:10A6D00014F8011F8C45D0D102998842F6D14FF66B
:10A6E000FF7CE145059E4C4693466CD006F11C006C
:10A6F000E6090BEBC60607C8766804F07F0416EB84
:10A70000C40E85E807005ED095E807009EF8045067
:10A71000202D87E8070056D10FAB88E8070083E8B3
:10A720000700804600284ED036F8340060454AD0F5
:10A73000C2090BEBC20200F07F04506810EBC400AA
:10A7400041D0109EC4886746BAF1000F10D1BC42B8
:10A7500039D0E3090BEBC30304F07F04586810EB16
:10A76000C40030D08AF0010AC488BAF1000FEED0DC
:10A7700003790568042B38D0052B2CD1E8880835DF
:10A780008642E4D15EB108F1FF33013D9A1913F816
:10A79000010F15F8011F8842D9D19A42F7D14FF61F
:10A7A000FF7294420FD0E2090BEBC20B04F07F045E
:10A7B000DBF8040010EBC40006D00199FFF730FD70
:10A7C00013B0BDE8F08F002013B0BDE8F08F002E6D
:10A7D0007FF453AF83E7002EB9D1E0E75CB12046A8
:10A7E00004922AF0AAFA049A6AE7002DF3D02846C8
:10A7F0002AF0A3FAC4E7204662E700BF2DE9F04F34
:10A8000000F10C02034607CAD3E901468DB06B463E
:10A8100083E80700002C65D093E80700257903AB97
:10A82000202D83E807005DD106AB83E807000CAB61
:10A8300003E90700DDF824A0BAF1000F52D0208808
:10A840004FF6FF7948454DD0D6F82CB0C3090BEB35
:10A85000C30300F07F04586810EBC40042D04FF0EF
:10A8600001080A9FC488B8F1000F10D14C4539D0B7
:10A87000E3090BEBC30304F07F04586810EBC4003A
:10A8800030D088F00108C488B8F1000FEED0037909
:10A890000568042B2DD0052B28D1E8880835874280
:10A8A000E4D15FB10AF1FF33013DDA1913F8010F6A
:10A8B00015F8011F8842D9D19A42F7D14FF6FF739C
:10A8C0009C420FD0E3090BEBC30B04F07F04DBF8D1
:10A8D000040010EBC40006D03146FFF7A1FC0DB018
:10A8E000BDE8F08F00200DB0BDE8F08F002FBDD186
:10A8F000E4E7002DFAD028462AF01FFACFE700BF80
:10A900002DE9F04F00F11003064693E807008DB0E3
:10A91000B368D6F80C806C4684E80700002B00F082
:10A92000828094E807001D7903AC202D84E807009D
:10A9300079D106AC84E807000CAC04E90700DDF827
:10A9400024B0BBF1000F6ED01A884FF6FF739A4205
:10A9500069D0D8F82C90D10909EBC10102F07F042D
:10A960004A6812EBC4025ED04FF0010A0A9FD488F5
:10A97000BAF1000F10D19C4255D0E10909EBC10199
:10A9800004F07F044A6812EBC4024CD08AF0010A3A
:10A99000D488BAF1000FEED011791568042949D096
:10A9A000052944D1E88808358742E4D15FB10BF12D
:10A9B000FF32013DD11912F801CF15F8010F84457E
:10A9C000D9D19142F7D14FF6FF7294422BD0E309CF
:10A9D00009EBC30304F07F04596811EBC40322D0D0
:10A9E0001B79402B1FD131F8340090421BD0C10994
:10A9F00009EBC10100F07F034868F16910EBC30067
:10AA000011D0C388F1B1154602E00139C38819D0CD
:10AA1000DA09AB4209EBC20203F07F0403D05068AD
:10AA200010EBC400F1D100200DB0BDE8F08F002F75
:10AA3000A1D1C8E7002DFAD028462AF07EF94FF6BA
:10AA4000FF73B1E74146FFF7EBFB0DB0BDE8F08FB8
:10AA50002DE9F047054608460C462AF06EF90746F0
:10AA600018B3013C6B6A04EB00094FF0000805F1D4
:10AA7000040A05E0E8186A6213460671A14514D07D
:10AA80005A1C1F2A14F8016FF4D92B44514683F83D
:10AA90000480286820F098F820B96B6A002BEDD16B
:10AAA0000122E7E701220023E4E7A86A3844A8620C
:10AAB000BDE8F087437DDBB1037D202B12D8DFE8B2
:10AAC00003F01F111111111111111115151111158B
:10AAD0001111111111111111111111111111111166
:10AAE00011111500012303730020704700234375E3
:10AAF00003695A1C02611B78037501224275DCE769
:10AB0000037B002B14BF0220012070472DE9F04F7A
:10AB1000054600798BB001AC202884E80E005BD19B
:10AB200094E8070004AA82E80B0007CA0AAA02E90F
:10AB30000B00DDF81C90B9F1000F4DD028884FF6BE
:10AB4000FF78404548D0149BD3F82CA0C3090AEBEA
:10AB5000C30300F07F04586810EBC4003CD0089E8B
:10AB6000C48806F1FF3B0127CB447FB9444533D06D
:10AB7000E3090AEBC30304F07F04586810EBC40038
:10AB80002AD087F00107C488002FEFD00379056829
:10AB9000042B28D0052B23D1E8880835B042E5D115
:10ABA00056B1013D09F1FF3313F8011F15F8012FCC
:10ABB0009142DBD19B45F7D14FF6FF739C420BD0FE
:10ABC000E3090AEBC30A04F07F04DAF8040000EB9F
:10ABD000C4000BB0BDE8F08F00200BB0BDE8F08FD3
:10ABE000002EC3D1E8E72846002DD7D02AF0A5F8DB
:10ABF000D4E700BF30B500F10C02034607CAD3E921
:10AC0000014587B003AB83E807002CB100952046CF
:10AC10000ECBFFF77BFF0446204607B030BD00BFD8
:10AC2000F0B500F11403054693E8070087B0EB6820
:10AC30002E6903AC84E807006BB30096184694E8CD
:10AC40000E00FFF763FF034628B30279402A21D1A3
:10AC500003884FF6FF7E73451CD0D6F82CC0286AB7
:10AC6000D9090CEBC10103F07F024B6813EBC2035F
:10AC700010D0DA8818B911E00138DA880ED0D1097D
:10AC800072450CEBC10102F07F0703D04B6813EB58
:10AC9000C703F1D10023184607B0F0BD243595E86D
:10ACA000070084E807000096184694E80E00FFF7B6
:10ACB0002DFF0346184607B0F0BD00BF38B5044667
:10ACC000FFF7AEFF30B103792269202B03D0402B70
:10ACD00023D0002038BD00884FF6FF74A042F8D082
:10ACE000D56AC20905EBC20200F07F03506810EB81
:10ACF000C300EFD0C2880020D309A24205EBC303F2
:10AD000002F07F0100F1010005D05B6813EBC10385
:10AD100001D0DA88F0E7400838BD00884FF6FF74AC
:10AD2000A042D6D0D56AC20905EBC20200F07F036B
:10AD3000506810EBC300CDD0C2880020D309A242D6
:10AD400005EBC30302F07F0100F10100C2D05B6894
:10AD500013EBC103BED0DA88F0E700BFF0B50446BC
:10AD600087B00830FFF75CFF30B30379402B22D166
:10AD700003884FF6FF77BB421DD0A569A06BD5F8BD
:10AD80002CC0D9090CEBC10103F07F024B6813EB17
:10AD9000C20310D0DA8818B910E00138DA880DD073
:10ADA000D109BA420CEBC10102F07F0603D04B6817
:10ADB00013EBC603F1D1002007B0F0BD3C3494E89A
:10ADC000070003AC84E807000095184694E80E00DD
:10ADD000FFF79CFE07B0F0BD10B50446FFF720FF5B
:10ADE00010B12169FFF71CFA10BD00BFF8B5044689
:10ADF0000430FFF715FF28B30379402B21D10088D9
:10AE00004FF6FF76B0421CD06169646BCF6AC2090D
:10AE100007EBC20200F07F03506810EBC30010D0B4
:10AE2000C3881CB90FE0013CC3880CD0DA09B342D7
:10AE300007EBC20203F07F0503D0506810EBC5009A
:10AE4000F1D10020F8BDFFF7EBF9F8BD2DE9F0478F
:10AE500004468CB00830FFF7E3FE20B30379402BA3
:10AE600021D103884FF6FF77BB421CD0A269A06BAB
:10AE7000D66ADA0906EBC20203F07F03526812EBCE
:10AE8000C30310D0DA8818B911E00138DA880ED07F
:10AE9000D109BA4206EBC10102F07F0503D04B682D
:10AEA00013EBC503F1D100200CB0BDE8F0873C34B2
:10AEB00094E807001D796C4684E80700202D03AC58
:10AEC00084E80700EFD194E8070006AC84E80700A7
:10AED0000CAC04E90700DDF82480B8F1000FE2D0E3
:10AEE0001B884FF6FF7A5345DDD0DA0906EBC20224
:10AEF00003F07F04536813EBC403D4D04FF001096F
:10AF00000A9FDC88B9F1000F10D15445CBD0E2097B
:10AF100006EBC20204F07F04536813EBC403C2D0F3
:10AF200089F00109DC88B9F1000FEED01A791D68AB
:10AF3000042A47D0052A42D1E88808358742E4D15F
:10AF40005FB108F1FF33013DDA1913F8010F15F86D
:10AF5000011F8842D9D19A42F7D14FF6FF739C4224
:10AF6000A1D0E20906EBC20204F07F04526812EBA2
:10AF7000C40099D0017920292AD0402993D132F8F0
:10AF8000340098428FD0C10906EBC10100F07F0266
:10AF9000486810EBC20087D0C1880020CA099942D6
:10AFA00006EBC20201F07F0400F101003FF47CAF28
:10AFB000526812EBC4023FF477AFD188EEE7002F5E
:10AFC000A3D1CAE7002DFAD0284629F0B6FEB5E78E
:10AFD00032F8340098423FF466AFC10906EBC10174
:10AFE00000F07F02486810EBC2003FF45DAFC188FB
:10AFF0001D460020CA09A94206EBC20201F07F04E7
:10B0000000F1010005D0536813EBC40301D0D988C7
:10B01000F0E740080CB0BDE8F08700BF2DE9F04F25
:10B0200005468FB00C30FFF7FBFD30B30379402BA2
:10B0300023D103884FF6FF77BB421ED0D5F81C9072
:10B04000E86BD9F82C60DA0906EBC20203F07F0343
:10B05000526812EBC30310D0DA8818B911E0013836
:10B06000DA880ED0D109BA4206EBC10102F07F04A2
:10B0700003D04B6813EBC403F1D100200FB0BDE83F
:10B08000F08F05F1400207CA1F7902AC84E807007F
:10B09000202F05AC84E80700EFD194E8070008AC46
:10B0A00084E807000EAC04E90700DDF82CB0BBF122
:10B0B000000FE2D01B884FF6FF7A5345DDD0DA0946
:10B0C00006EBC20203F07F04536813EBC403D4D031
:10B0D0000C9FDC887A1E4FF001085A44B8F1000F2B
:10B0E00010D15445C9D0E10906EBC10104F07F0439
:10B0F0004B6813EBC403C0D088F00108DC88B8F1BA
:10B10000000FEED019791B68042946D0052941D1DA
:10B11000D8880833B842E4D157B1013B0BF1FF3175
:10B1200011F801CF13F8010F8445DAD18A42F7D123
:10B130004FF6FF729442A0D0E30906EBC30304F07C
:10B140007F045B6813EBC40098D00179402994D147
:10B1500033F83400904290D0C10906EBC10100F0F1
:10B160007F034868E96C10EBC30086D0C388E9B15F
:10B17000154602E00139C38818D0DA09AB4206EB64
:10B18000C20203F07F043FF478AF506810EBC400B4
:10B19000F0D172E7002FA4D1CAE76BB11846019233
:10B1A000009329F0CAFDDDE90032B3E74946FFF715
:10B1B00037F80FB0BDE8F08F1846ABE770B500F177
:10B1C0001003054693E8070086B0AB68EE6803AC51
:10B1D00084E807009BB10096184694E80E00FFF73C
:10B1E00095FC1C35034695E8070084E8070033B159
:10B1F0000096184694E80E00FFF788FC03461846B0
:10B2000006B070BD2DE9F047456A6B1C1F2B044644
:10B210000E46174600F22781A91C6019222263629C
:10B2200002710120A26A0244A26257B306EB07082A
:10B230004FF0000904F1040A16F8017B9C4A22250C
:10B2400001E0157955B35179B94202F10202F8D102
:10B250005F1C1F2F00F2E1801A46023322445C215A
:10B26000676201201171A26A1F2B1044A06200F2D4
:10B27000C680591C2744636201303D71A062464577
:10B28000DAD11F2900F2E3802344222261621A717D
:10B29000A36A01200344A362BDE8F0876FB15A1C82
:10B2A0001F2A3AD8991C1D4613466019636201256E
:10B2B0000771A26A2A44A262E1E75A1C1F2A00F21F
:10B2C0008E80E1185C206262023308711F2B75D8F2
:10B2D000A118752063625A1C08711F2A5DD8234487
:10B2E00030206262511C18711F2945D8A3183020E4
:10B2F00061624A1C18711F2A2DD8214430206262D5
:10B30000531C08711F2B17D8591C2244302063622C
:10B310001071A26A0632A262B1E7234451461D7140
:10B3200020681FF051FC20B9636A0BB1591CC0E7BB
:10B330001D4602210123B8E72244514682F80490B9
:10B3400020681FF041FC002874D1636A002B00F0D4
:10B35000A380591CDDE76318514683F804902068E8
:10B360001FF032FC18B9626A0AB1531CCAE73023D5
:10B37000237101220223C7E72244514682F8049038
:10B3800020681FF021FC18B9616A09B14A1CB2E7B4
:10B390003023237102220121AFE72344514683F871
:10B3A000049020681FF010FC18B9626A0AB1511CA1
:10B3B0009AE7302323710221012297E72244514664
:10B3C00082F8049020681FF0FFFB18B9636A0BB184
:10B3D0005A1C82E775232371022201237FE723444D
:10B3E00051461F7120681FF0EFFB18B9626A0AB15D
:10B3F000531C6BE75C2323710122022368E7274477
:10B40000514687F8049020681FF0DEFBD0B9D4E9DC
:10B410000930002B44D0591C30E72344514683F8AF
:10B42000049020681FF0D0FB40B9676A002F3BD022
:10B430007B1C18E702210123002266E70223012773
:10B4400000220BE7A06A02210123002712E7234410
:10B45000002521461D7151F8040B1FF0B5FB98B172
:10B460002B46012110E7284421460025057151F89B
:10B47000040B1FF0A9FB20B9636A0BB1591CD1E67C
:10B480001D4602210123C8E6636A002BE9D0A36AA6
:10B490000344A362BDE8F0871A460221012334E782
:10B4A0001F4602210123E5E63A4602230127D5E69D
:10B4B000186F05002DE9F04F437D85B00446002B41
:10B4C00000F00581057DDFF830B300221346627578
:10B4D0000092CBB1267D0023AE4263751DD0002EB5
:10B4E00000F0F1805C2E20D067686FB1A168FB8806
:10B4F000994200F0B8800F440131A1603E72637D33
:10B50000E7E7C2F30903009323695A1C22611E78FE
:10B5100026750023AE426375E1D16368002B14BF2A
:10B520000020042005B0BDE8F08F2269511C216184
:10B530001178217501206075002900F0C4807529FB
:10B5400010D0AB4A2F2304E012F8023F002B00F08A
:10B55000B6809942F8D15678002E00F0B0800023D2
:10B560006375C1E7911C637521615378237560751C
:10B57000002B00F0A880402B86BF23F02003A3F10E
:10B580003701A3F13001C8B20F2800F298800021E2
:10B59000D31C61752361917821750123637500299E
:10B5A00000F09180402986BF21F0200137393039E1
:10B5B000C9B20F2900F283800026131D667523612E
:10B5C000D3782375012641EA00116675002B7AD0E5
:10B5D000402B86BF23F02003373B303BDBB20F2BE1
:10B5E0006DD800206075501D20611279227543EAE4
:10B5F000011301211BB26175002A64D0402A86BF65
:10B6000022F02002373A303AD2B20F2A57D842EA13
:10B6100003139AB202F5205189B20020B1F5806F70
:10B620001BB26075FFF46DAF02F5105189B2B1F530
:10B63000806F56D37F2A40F2A88003F03F0363F067
:10B640007F03B2F5006F8DF809308DF808004FEADE
:10B65000921380F0B38063F03F03DFB28DF80A707D
:10B660000DF10B0860E0D4F800A04900DAF8009072
:10B6700001F10108B8F5803FD9F8003012D29B687B
:10B680005C4A934201F10A0140F09380384629F068
:10B69000E7FA28B1A0F80680A168606007462AE7AB
:10B6A000D9F800305B685B4517D138461FF084FB42
:10B6B00001238AF804300022637D626009E70320D9
:10B6C00005B0BDE8F08F022005B0BDE8F08F03693A
:10B6D0005A1C02611D780575F5E6394648469847BB
:10B6E000E6E7C2F30903009A8DF8080043EA8223D3
:10B6F00003F58032C2F30531C2F3874242F0F0070E
:10B7000003F03F02C3F3851361F07F0162F07F0213
:10B7100063F07F038DF80B108DF80C708DF8092005
:10B720008DF80A300DF10D0808F1FF3808E01E44CD
:10B730000133A360377218F8017D002F3FF4DFAEAC
:10B740006668002EF7D0A368F2889342EFD15A00C2
:10B75000D4F800A002F10109B9F5803FDAF8003011
:10B7600019D21968886802F10A01224A9042844677
:10B7700036D13046019329F073FA019B58B1A0F8F5
:10B780000690A36860600646D1E7D9B22046FCF770
:10B7900093F9637D9DE61A6852685A451CD130467C
:10B7A0001FF00AFB00234FF001028AF804206360B7
:10B7B000C1E70A464846394698476AE703F03F0220
:10B7C0009B1162F07F0243F0E0078DF80A208DF8AC
:10B7D0000B700DF10C08A7E7314618469047E1E7DA
:10B7E0000A4618460193314663469847019BC5E7D0
:10B7F000186F0500AD750200B57502002DE9F04F18
:10B80000427D8DB004460D46002A77D0027D202A65
:10B8100012D8DFE802F07B11111111111111117111
:10B820007111117111111111111111111111111148
:10B83000111111111111710001217B2A217300F2E4
:10B8400093815A2A41D9A2F15B01202900F28C810F
:10B85000DFE811F0FA008A018A018A018A018A016F
:10B860008A018A018A018A018A014F018A018A01BB
:10B870008A018A018A018A018A0121008A018A01DA
:10B880008A018A018A016D018A018A018A018A017D
:10B890008A018A016400B7491346002001259342BA
:10B8A00040F0A48111F8013F6075002B00F0BA81CF
:10B8B0002269561C2661127822756575002AEED120
:10B8C000022630460DB0BDE8F08F222A02D0272A8A
:10B8D00040F04A8163680022A260002B00F0A98139
:10B8E0002046FFF7E7FD0646A0B92046FCF786F89C
:10B8F000052328602B710DE0002262752269511C1E
:10B900002161127822750121617580E7237B002B6C
:10B91000D6D1012630460DB0BDE8F08F5FFA83FA2C
:10B9200020224FF0FF332A712B60BAF1000F00F094
:10B930007E81002363752046FFF7BCF80646002889
:10B94000E8D1637D002B00F02282237D7D2B00F067
:10B95000CD8001964FF0000B5646A8466368C4F8A8
:10B9600008B0002B00F07682637D002B00F0178278
:10B97000217D272900F01D82222900F01A822F291B
:10B9800000F22B81A1F14103192B00F22F81012537
:10B9900084F815B02046FCF78FF8637D002B00F08B
:10B9A000B482217D2F29A1F1410300F26382192B7A
:10B9B000EED96368002B00F096822046FFF77AF8F4
:10B9C000002840F0FC81637D002B00F03B82237D4A
:10B9D0003A2B40F00B81D4E90132134484F815B0BE
:10B9E00083F808B0B8F800304FF6FF794B4500F007
:10B9F0009281A2690592D2F82CA0D9090AEBC10163
:10BA000003F07F024B6813EBC20300F0848162688D
:10BA1000A1680292DF8842460125A0460C461146E5
:10BA2000002D40F03F814F4500F07381FA090AEB89
:10BA3000C20207F07F07536813EBC70300F0698168
:10BA4000DF8885F00105EBE7DFB240224FF0FF33DE
:10BA50002A712B60002F00F0EA80002363752046D6
:10BA6000FFF728F8064600287FF454AF637D002BCB
:10BA700000F08581237D5D2B38D0013F4FF6FF78A4
:10BA80004FF00109D4F818A008A85146FBF7D8FDDB
:10BA90000899002900F027826B88BDF824204345CF
:10BAA00000F0C181DAF82C004FEAD31C00EBCC0087
:10BAB00003F07F03406800EBC303DA806A803B46F3
:10BAC0004FF000022046FFF799FE002840F07781F2
:10BAD0002046FEF7EFFF002840F07181637D002BC8
:10BAE00000F0A881237D5D2B40F0908100236375D9
:10BAF00010E700232B70637D06212971002B00F0D5
:10BB00008D81237D1C49002B3FF4DAAE9A426DD122
:10BB100011F8012F00236375002A00F08380236948
:10BB2000581C20611B78237501206075EBE7012309
:10BB30002B70637D06212971002B00F06D81237D20
:10BB40000E49002B3FF4BCAE9A424FD111F8012FA1
:10BB500000236375002A65D02369581C20611B7877
:10BB6000237501206075ECE700231F4604F11B01DB
:10BB7000012619E03C6F0500346F05002C6F0500AD
:10BB8000392A03D902F0DF00452815D13F2B03F1F4
:10BB9000010011D0677501F8012F2269C3B2501C52
:10BBA00020611278227566752F2AE9D82B2AA2F116
:10BBB0002D00EBD00128E9D9234400221A7704F1A3
:10BBC0001C0108A8FCF732F89DF82060731E032BB7
:10BBD0000CD8DFE803F04F55401039297FF6D7AE77
:10BBE0005E297FF6CFAE7A297FF6D1AE03263046A6
:10BBF0000DB0BDE8F08FDDE90A894946404627F0DF
:10BC000089FE824627F04CFB02460B4640464946D9
:10BC100027F006FE0746002800F036810E23C5F8FF
:10BC200000A02B71002630460DB0BDE8F08F052630
:10BC300070E62668BA4A306803681B68934240F091
:10BC4000548128201FF09EF8002800F0E980B54BB1
:10BC50004360606044E6DDE90A89B9F1010F08BF7D
:10BC6000B8F1000F80F030810A23C5F800802B71F5
:10BC700000264FE60A9A2A600E232B71002649E619
:10BC8000DDE90A7A17F100484AF10009B9F1010F1C
:10BC900008BFB8F1000F80F008810C232F602B71D2
:10BCA000002637E61A791B68042A00F0A380052ACB
:10BCB00000F08780002C7FF4B6AE4FF6FF739F42F2
:10BCC0004446884627D0FB090AEBC30A07F07F07E2
:10BCD000DAF8043013EBC7071DD005993846FBF797
:10BCE00035FF3946731E4FF000022046FFF786FDF0
:10BCF000002864D12046FEF7DDFE00285FD1637D79
:10BD0000002B00F01581237D7D2B40F0F180019EFA
:10BD1000ECE6444688462046FBF770FED4F818A0AF
:10BD20008146514606A8FBF78BFC069D002D00F0CE
:10BD3000DA80514608A8FBF783FC089F002F00F02B
:10BD4000D280BDF82420EA80B8F80230C5F800900F
:10BD50004FF6FF70052183422971BDF81C1000F0D9
:10BD6000F580DAF82C00DD0900EBC50003F07F0355
:10BD7000406800EBC303D980A8F80220B1E723692B
:10BD80005A1C22611B7823750122627573E62369B0
:10BD90005A1C22611B78237501226275D6E523693E
:10BDA0005A1C2261197821750123272963757FF4B4
:10BDB000E3AD2046FFF77EFB00283FF4FEAD0646CC
:10BDC000A8E5D88803F1080284427FF42CAE002C49
:10BDD0003FF473AF029B0733013A03EB040E02E01A
:10BDE0009E453FF46AAF13F801CF12F8010F844566
:10BDF000F6D018E6002B00F08F80184604910393CC
:10BE000028F09BFF039B04991A46DDE72C2B7FF457
:10BE1000EDAE0023637535E643499DE643497EE672
:10BE20000123337115E7002362F30F0362F31F430D
:10BE30002B6044E623695A1C22611B78237584F821
:10BE4000159050E623695A1C22611B782375012244
:10BE50006275BDE52568324A286803681B6893420D
:10BE600071D128201EF08EFF002869D02D4B436031
:10BE7000606079E539297FF68BAD5E297FF697AD55
:10BE80007A297FF685AD94E5A16906A8FBF7BCFC8D
:10BE9000069B002B3FF43EADBDF81C202A801E21DE
:10BEA00029713E46C3E9008934E5A16906A8FBF77C
:10BEB000ABFC069BBBB1BDF81C202A801C2129715C
:10BEC0000026C3E9007A25E5A16906A8FBF79CFCDA
:10BED000069B43B1BDF81C202A801A212971002637
:10BEE000C3E9008916E5042614E528219847ABE646
:10BEF0002C2B7FF47BAE84F815B02046FEF7DAFDDC
:10BF000000283FF42BAD064604E523695A1C226144
:10BF100019782175657545E5002C3FF4CEAE82E5B4
:10BF2000BD75020001001F002C6F0500346F050075
:10BF300023695A1C22611B78237501226275E3E68E
:10BF400001232B7194E7282198478DE7A8F800106A
:10BF5000A8F80220C5E600BF2DE9F04F038E9BB084
:10BF60000746044657F80CBBADF80420884600F19C
:10BF7000380903B30026C36AB2460BE01EF01CFF6B
:10BF8000E36AC5F800A0208EC5F804A00136B1B25E
:10BF9000884211D9B5B203EBC50569680846002986
:10BFA000EFD0DBF80030564A5B689342E6D0584643
:10BFB0009847E36AE5E7C36A00204FF6FF719F42A6
:10BFC0002086A1860CD0DBF800104D4D4E68AE42A5
:10BFD00040F0888018461EF0EFFE0423E762638677
:10BFE000A16826680023237161B1454D33680A6852
:10BFF0005B68A260AB42084662D11EF0DDFEA1681C
:10C000000029F3D1002584F83C509DF805308DF8C7
:10C01000185049464FF0000203A8CDE904558DF8A9
:10C0200021500394CDF81C800994FFF7E7FB0546E7
:10C0300018B99DF82050002D48D1049840B1039BB9
:10C040002F491A6813685B688B424FD11EF0B4FE0B
:10C05000268ED4F80080DEB1D4F82CA0D8F80030B9
:10C06000284A9B6806F10056013E0AEBC609934236
:10C07000B9F80210D9F804004FEAC1012DD128F017
:10C08000EFFD28B1B9F80230C9F804002AF83630BB
:10C09000E06A874210D0218E638E8B420CD0D8F894
:10C0A0000030184A9B6893424FEAC10122D128F020
:10C0B000D7FD238EE062638628461BB0BDE8F08F73
:10C0C00030469847A168002990D19BE794F83C50EE
:10C0D00015F0080518BF0325AFE70A46014640469C
:10C0E0009847CEE719465846B04776E701461046CE
:10C0F0009847ADE70A46014640469847D9E700BF52
:10C10000B5750200AD7502002DE9F04F57EC106BCC
:10C1100089B00446894610EE100A002200233946F1
:10C1200027F07EFB002845D132463B46054639467E
:10C13000304626F057FF02460B463046394627F078
:10C140006FFB30B3626A531C1F2B00F2EF82224454
:10C150006E21636211715A1C1F2A00F2D58223449A
:10C16000752162621971551C1F2D00F2BF82224495
:10C170006C21656211716A1C1F2A00F2AA82631980
:10C180006C2162621971A36A0433A36209B0BDE82D
:10C19000F08F002200233046394627F04BFB48B190
:10C1A0002D212046FBF70EFCA36A07F1004B184433
:10C1B0005F46A0624B460125B9F1000F05D005EBA3
:10C1C0008505013B4FEA4505F9D10FF20843D3E954
:10C1D00000233046394627F041FB002800F0FA8062
:10C1E000FEA3D3E900233046394627F037FB002869
:10C1F00040F032838246FBA3D3E900233046394620
:10C2000027F02CFB002840F01983F8A3D3E9002382
:10C210003046394627F022FB002840F00183F5A381
:10C22000D3E900233046394627F018FB002840F0B8
:10C23000E982F2A3D3E900233046394627F00EFB0A
:10C24000002840F0D182EFA3D3E9002330463946DD
:10C2500027F004FB002840F0B982ECA3D3E90023C7
:10C260003046394627F0FAFA002840F0A182D44B34
:10C2700000223046394627F0F1FA002840F08A8241
:10C28000D04B00223046394627F0E8FA002840F02B
:10C2900073823046394627F01DFB0928804610D9A5
:10C2A000C9490346A1FB05251A4609F1FF39A1FB3F
:10C2B0000303632A4FEAD5054FFA89F94FEAD303FE
:10C2C000F0D8404626F0CAFF02460B4630463946B3
:10C2D00026F086FE064628460F4626F0BFFF024699
:10C2E0000B463046394627F033F806460F4627F00E
:10C2F000F1FA834626F0B2FF02460B463046394635
:10C3000026F06EFE02460B4626F06CFE27F0E2FA9F
:10C310000BEB0006AE42C0F0BF8108F10108BAF194
:10C32000000F40F0CB810026B9F1000F13DDA64BC2
:10C33000A64802E0002A00F0BB81A3FB0626F6080F
:10C3400003FB06F109F1FF39B0EB710F5FFA89F2D7
:10C350004FFA89F9EED20DF11E0B9B495D46A1FB08
:10C360000832D20802EB8203A8EB43034046303385
:10C3700009282F46904605F8013DF0D8BBEB05088B
:10C3800000F0A680013D05EB0803211D606A0093C3
:10C39000023F01960D4609E004EB000C6262104674
:10C3A0008CF80460009BBB4200F09180421C1F2A65
:10C3B00017F8016FF0D920444FF000030371206893
:10C3C00029461EF001FC00287ED1606A0028E9D1D0
:10C3D0000122E1E7002200233046394627F048FADF
:10C3E00000286FD064A3D3E900233046394627F0F4
:10C3F0002BFA002866D062A3D3E9002330463946E1
:10C4000027F018FA002840F0DB8282465EA3D3E9C9
:10C4100000233046394627F00DFA002840F0C2824A
:10C420005BA3D3E900233046394627F003FA0028FE
:10C4300040F0AA8258A3D3E900233046394627F0BA
:10C44000F9F9002840F0928255A3D3E90023304641
:10C45000394627F0EFF9002840F0438252A3D3E990
:10C4600000233046394627F0E5F9002840F02B82BA
:10C470004FA3D3E900233046394627F0DBF90028E3
:10C4800040F013824CA3D3E900233046394627F00D
:10C49000D1F9002840F0FC814D4B0022304639464E
:10C4A00027F0C8F900283FF4F4AE30463946454B32
:10C4B000002226F04DFF0AF1FF3A06460F460FFA1A
:10C4C0008AFAE6E68246E4E60122002064E7019E5D
:10C4D000A26A08EB0203A362B9F1000F40F09A8050
:10C4E000BAF1000F3FF452AE65212046FBF76AFA1D
:10C4F000A66ABAF1000F0644A662C0F228811FFAAC
:10C500008AFA314F5946A7FB0A32D20802EB82035E
:10C51000AAEB43035046303309280D461FFA82FA2E
:10C5200001F8013DEFD8BBEB010B00F02081013990
:10C53000636A01EB0B06023D002704F1040907E0E2
:10C54000E0186262134680F80480B54200F00E8164
:10C550005A1C1F2A15F8018FF2D9234449461F712E
:10C5600020681EF031FB002840F0FD80636A002B3C
:10C57000EBD10122E4E700BFF168E388B5F8E43EBF
:10C58000148BD77DB207FE0AC2DEB78145549125D0
:10C590000CD13196FC53DA3280688965D6398039FE
:10C5A0001656E79EAF03D23C48AFBC9AF2D77A3E0C
:10C5B000FCA9F1D24D62503F9A9999999999B93F46
:10C5C0000000594000002440CDCCCCCC9999991959
:10C5D0000000F03F00000000D01263413CBF737FB9
:10C5E000DD4F1575321D30F94877825AF5F93FE96C
:10C5F000034F384D176E05B5B5B893460080E03748
:10C6000079C341430000000084D797410000000037
:10C610000088C34009F1FF395FFA89F908ABA3EB41
:10C62000090106AFCE4D09393A46A5FB0603DB08E2
:10C6300003EB8300A6EB4006303602F8016D8A4218
:10C640001E46F2D108ABA3EB0902A7EB09072E2186
:10C65000033F09F1020902F80A1C636A07EB0905A6
:10C660000026211D06E0E0186262134680F804806F
:10C67000BD421FD05A1C1F2A17F8018FF3D923443B
:10C6800000911E7120681EF09FFA009968B9636AD4
:10C69000002BEDD10122E6E7B14BB24A03FB06F3D2
:10C6A000B2EB730FBFF440AE55E601220023DAE788
:10C6B000914650E6A36A4B44A36211E7B8F1090F13
:10C6C0007FF631AE0AF1010A0FFA8AFA4FF001083B
:10C6D00029E66319214600251D7151F8040B1EF04F
:10C6E00073FA002800F0CF80012248E5224400259B
:10C6F0002146157151F8040B1EF066FA002800F06F
:10C70000BD802A46012532E52344002521461D71BE
:10C7100051F8040B1EF058FA002840F0AC80626A11
:10C72000002A7FF420AD1346012218E52244214659
:10C73000157151F8040B1EF047FA002840F098805C
:10C74000636A002B7FF407AD1A460123FFE42D2115
:10C750002046FBF737F9A66ACAF1000A06441FFA19
:10C760008AFAA662CDE601220023E9E6A66A5E44C3
:10C77000A66209B0BDE8F08F3046394660A3D3E920
:10C78000002326F0E5FD0AF1010A06460F460FFADE
:10C790008AFA7EE5304639465BA3D3E9002326F0CA
:10C7A000D7FD0AF1020A06460F460FFA8AFA67E534
:10C7B0003046394656A3D3E9002326F0C9FD0AF1D5
:10C7C000040A06460F460FFA8AFA50E53046394603
:10C7D00051A3D3E9002326F0BBFD0AF1080A06465F
:10C7E0000F460FFA8AFA38E5304639464CA3D3E9AA
:10C7F000002326F0ADFD0AF1100A06460F460FFA97
:10C800008AFA20E53046394647A3D3E9002326F0CB
:10C810009FFD0AF1200A06460F460FFA8AFA08E53C
:10C820003046394642A3D3E9002326F091FD0AF1B0
:10C83000400A06460F460FFA8AFAF0E430463946B7
:10C840003DA3D3E9002326F083FD0AF1800A0646C2
:10C850000F460FFA8AFAD8E43046394638A3D3E9AE
:10C86000002326F075FD4FF4807A06460F46C2E499
:10C870002A4601236BE42B46012270E4656A002DF1
:10C880007FF479AC3DE7656A002D7FF47CAC2BE743
:10C8900030463946344B002226F05AFDAAF1020AEE
:10C8A00006460F460FFA8AFAF6E53046394626A3C1
:10C8B000D3E9002326F04CFDAAF1040A06460F46F0
:10C8C0000FFA8AFADEE53046394621A3D3E9002380
:10C8D00026F03EFDAAF1080A06460F460FFA8AFA2C
:10C8E000C6E5304639461CA3D3E9002326F030FDC7
:10C8F000AAF1100A06460F460FFA8AFAAEE500BF03
:10C900009A9999999999B93F7B14AE47E17A843FF6
:10C910002D431CEBE2361A3F3A8C30E28E79453ECD
:10C92000BC89D897B2D29C3C33A7A8D523F6493905
:10C930003DA7F444FD0FA5329D978CCF08BA5B2527
:10C94000436FAC642806C80A000000000088C3409A
:10C950000000000084D797410080E03779C341434D
:10C96000CDCCCCCC99999919000059403046394624
:10C9700019A3D3E9002326F0EBFCAAF1200A06460E
:10C980000F460FFA8AFA5FE53046394614A3D3E919
:10C99000002326F0DDFCAAF1400A06460F460FFAF6
:10C9A0008AFA47E5304639460FA3D3E9002326F03B
:10C9B000CFFCAAF1800A06460F460FFA8AFA2FE545
:10C9C000304639460AA3D3E9002326F0C1FC6FF0B4
:10C9D000FF0A06460F4619E5176E05B5B5B893462A
:10C9E000F5F93FE9034F384D321D30F94877825A47
:10C9F0003CBF737FDD4F15752DE9F04F03790C4671
:10CA000013F0100187B0054651D001884FF6FF7032
:10CA1000814200F01182D26AC80902EBC00201F023
:10CA20007F01526802EBC102033B3D2B41D8DFE896
:10CA300013F0480071007F00870040004000400074
:10CA400090004000D60040009501400040004000AA
:10CA500040004000400040004000400040004000D6
:10CA6000A00140000A0140003A014000420140009C
:10CA700040004000400040004000400040004000B6
:10CA800040004000400040004000400040004000A6
:10CA90004000400040004000400040004000400096
:10CAA0004000400040004000400040006F010A4646
:10CAB000BAE7C6492046FDF7CBFFA06A07B0BDE83C
:10CAC000F08F2E68F588002D00F0B2810736636A7A
:10CAD00006EB05094FF0000804F1040A06E0E0182F
