:020000022000DC
:1070000000000420A9CD0400E9CD0400EBCD04006C
:10701000EDCD0400EFCD0400F1CD04000000000030
:10702000000000000000000000000000C1CC0400CF
:10703000F5CD040000000000E1CC0400F9CD04000F
:1070400005D00400FBCD0400FBCD0400FD6A030065
:10705000B16B0300FBCD040039A40400FBCD040098
:10706000FBCD0400FBCD0400FBCD0400FBCD0400F0
:10707000FBCD0400FBCD0400FBCD0400FBCD0400E0
:10708000FBCD040011CA0400FBCD0400FBCD0400BD
:10709000FBCD0400FBCD0400597F0400FBCD0400B0
:1070A000FBCD0400FBCD0400FBCD0400FBCD0400B0
:1070B000FBCD0400FBCD0400000000000000000038
:1070C000FBCD0400FBCD0400FBCD040081D90400FE
:1070D000FBCD0400FBCD0400FBCD0400A1AA0300FE
:1070E000FBCD040039D50400FBCD040000000000F6
:1070F00000000000FBCD040000000000F9D90400EE
:10710000000000000000000000000000000000007F
:10711000000000000000000000000000000000006F
:10712000000000000000000000000000000000005F
:10713000000000000000000000000000000000004F
:10714000000000000000000000000000000000003F
:10715000000000000000000000000000000000002F
:10716000000000000000000000000000000000001F
:10717000000000000000000000000000000000000F
:1071800000000000000000000000000000000000FF
:1071900000000000000000000000000000000000EF
:1071A00000000000000000000000000000000000DF
:1071B00000000000000000000000000000000000CF
:1071C00000000000000000000000000000000000BF
:1071D00000000000000000000000000000000000AF
:1071E000000000000000000000000000000000009F
:1071F000000000000000000000000000000000008F
:10720000F1EE103A43F08073E1EE103A704700BFA0
:1072100010B5054C237833B9044B13B10448AFF3D0
:1072200000800123237010BD88630020000000004F
:107230000CAD050008B5034B1BB103490348AFF380
:10724000008008BD000000008C6300200CAD05002C
:10725000154B002B08BF134B9D46A3F5803A002128
:107260008B460F461348144A121A2CF09FFB0F4B03
:10727000002B00D098470E4B002B00D098470020E1
:10728000002104000D000D48002802D00C48AFF387
:1072900000802CF0CDFA2000290025F0DDFD2CF037
:1072A000A1FA00BF00000800000004200000000058
:1072B0000000000088630020249D002000000000E2
:1072C0000000000010B5174800F08CFE154807F0CC
:1072D00037FA15480BF022FA0121162026F050FF4C
:1072E0001620002126F0D0FF104B1868002802DB82
:1072F000022126F045FF0E4C2068002809DB012101
:1073000026F03EFF2068012126F0BEFF094B002237
:107310001A70044801F00AF8BDE8104002480BF06A
:1073200005BA00BFA8630020A463002014600020F9
:10733000186000204266002001480CF0EDBE00BF3E
:10734000A463002008B5044800F04AFEBDE80840E8
:1073500002480BF0E1B900BFA8630020A46300203D
:107360002DE9F84F114648481A461D462CF0F6FA0A
:10737000464B93F90030012B06D1454B93F9002081
:10738000012A04BF02221A703F4A1378312B53D1CD
:1073900093795679D179D4789078177A92F80180D8
:1073A0001B0403EB066303EB01232402117904EBB6
:1073B0000044DF190C4457D1B8F1000F4AD0354BC7
:1073C000DFF8E0B01968344ED94600254FF0310A95
:1073D0003768324A8BF800A04FEA244C631E201213
:1073E0008BF801C08BF803403B448BF8020004F19A
:1073F0001C0EC4F1040C06E0013413F8010F02F86E
:10740000010F744509D08C420CEB0400F4DBC0F191
:107410002002002158442CF0C9FA214B4946186833
:1074200020221EF04FFC1B4B1968A14217DD0135CD
:10743000A845CDD1BDE8F88F28460CF033FF194997
:107440000B78002BF6D0164B20221868BDE8F84FB9
:107450001EF038BC0F4B1B68A342EBDC0E4E3068AD
:10746000BDE8F84F23F0FAB90B4E291F306808FB2E
:1074700001F1651A284400F099FD874218BF2C4697
:10748000B8F1000F9BD1E5E794670020F663002078
:10749000F7630020C0670020BC670020F76700206A
:1074A000C4630020F467002010B584B00446084986
:1074B000684620F019F8694620461FF0D5FF684657
:1074C0001FF0F2FF034B2360204604B010BD00BF45
:1074D0002C690500AC6905002DE9F04186B024490E
:1074E000244FDFF8A080044602A81FF0FDFF5820BB
:1074F00025F0F2FC01262023122202A9009605465F
:107500001EF014FB02A83D601FF0CEFF1A4902A82E
:107510001FF0EAFF582025F0DFFC2023082202A9F3
:10752000009605461EF002FB02A8C8F800501FF0A6
:10753000BBFF124B002220461A601FF079FF10B1EA
:1075400006B0BDE8F081D8F800000D4932461EF0C3
:107550005BFBD8F8000003689B6898470028EFD1D0
:10756000386803689B68984706B0BDE8F08100BFA3
:1075700054690500C46300207C690500CC630020C9
:1075800061730200C8630020BFF34F8F0549064BAB
:10759000CA6802F4E0621343CB60BFF34F8F00BFB1
:1075A000FDE700BF00ED00E00400FA0508461146C3
:1075B0002DF0A6B8084623F051B900BF084623F0C5
:1075C00033B900BF098870B44FF6FF75A94228D0BF
:1075D000DE6A8180CB0906EBC30301F07F015B68A3
:1075E00003EBC101016041B3C988C18022B916E033
:1075F000013ADC881CD02146C1F3CF13A94206EB27
:10760000C30301F07F040CD05B6813EBC403EFD11C
:107610001A4661F30F0261F31F42C0E9003270BCE9
:10762000704700224FF0FF3370BCC0E90023704761
:10763000C480036070BC81807047C580EFE700BFE5
:107640002DE9F0418B8E4FF6FF72934282B00C46CB
:10765000054616D0CA6AD90902EBC10203F07F01C0
:10766000526832F83100A08602EBC10200204FF6CA
:10767000FF71107128462A60AB80D18002B0BDE84E
:10768000F081098E2768002932D1638E002B00F02B
:1076900085800123E66A5A4A23864FF480604FF0C2
:1076A00080083B681B68934274D123F0BDF8238E99
:1076B000E76A7060013B9BB207EBC30100284A6890
:1076C00008BF4FF000080020A6F80080708022B1AB
:1076D00037F83360488886422ED8012100224FF6C1
:1076E000FF73284621712A60AB8002B0BDE8F081AB
:1076F000E66A4B1E9BB206EBC30E3046DEF8042052
:107700002AB1BEF802C036F83380E0451CD8638E3B
:10771000994223D03A4A4B1C9BB2B3F5007F00EB51
:10772000C106238615BF4FF480604FF47E704FF082
:1077300080084FF07F08B4E700EBC313441C9BB2F2
:1077400002EBC0024C8091E70CEBC3130CF101017A
:107750009BB202EBCC02AEF8021087E7B3F5007FD4
:10776000BBD004F10C025B0096421FFA83F83B6821
:1077700016D024489B6883424FEAC80135D1304671
:107780002CF0BEFF0028A8D01D4A218EE062A4F88C
:107790003280C0E701463846984788E7E66AE0E766
:1077A000174A1B68019293424FEAC80022D123F086
:1077B0003BF8019A002890D0D6F800C07168B368F1
:1077C000D6F80CE0C0F80CE0C0F800C0416083605F
:1077D000D6F810C07169B369D6F81CE0C0F81CE097
:1077E000C0F810C041618361CFE70A463846314690
:1077F0009847C7E7014638469847019ADAE700BF3D
:10780000BD750200AD7502002DE9F0418B8E4FF67B
:10781000FF72934282B00C46054611D0CA6AD9095C
:1078200002EBC10203F07F01526832F83100A086FA
:1078300002EBC10228462A60AB8002B0BDE8F081AD
:10784000098E2768002932D1638E002B00F08580D5
:107850000123E66A594A23864FF480604FF080087E
:107860003B681B68934274D122F0DEFF238EE76AE7
:107870007060013B9BB207EBC30100284A6808BF58
:107880004FF000080020A6F80080708022B137F881
:107890003360488886422ED8012100224FF6FF73BC
:1078A000284621712A60AB8002B0BDE8F081E66A0B
:1078B0004B1E9BB206EBC30E3046DEF804202AB105
:1078C000BEF802C036F83380E0451CD8638E99427A
:1078D00023D03A4A4B1C9BB2B3F5007F00EBC106A4
:1078E000238615BF4FF480604FF47E704FF0800800
:1078F0004FF07F08B4E700EBC313441C9BB202EBCC
:10790000C0024C8096E70CEBC3130CF101019BB253
:1079100002EBCC02AEF802108CE7B3F5007FBBD0CF
:1079200004F10C025B0096421FFA83F83B6816D004
:1079300023489B6883424FEAC80135D130462CF07A
:10794000DFFE0028A8D01D4A218EE062A4F8328014
:10795000C0E701463846984788E7E66AE0E7174AF5
:107960001B68019293424FEAC80022D122F05CFFCB
:10797000019A002890D0D6F800C07168B368D6F894
:107980000CE0C0F80CE0C0F800C041608360D6F89D
:1079900010C07169B369D6F81CE0C0F81CE0C0F8EB
:1079A00010C041618361CFE70A46384631469847A7
:1079B000C7E7014638469847019ADAE7BD750200E5
:1079C000AD75020070B5456A6A1C1F2A04460E4652
:1079D00004D8631962621E71012070BD431901460B
:1079E00000251D7151F8040B22F040FE08B1012260
:1079F000EFE7656A002DFAD070BD00BFD0E9013114
:107A00000B4400222DE9F0411A72D0E900760446B9
:107A1000B868A56898B1EA1D3244C3889D420BD16D
:107A20003DB3F31DC11D01E09A4222D013F801EFCE
:107A300011F801CFE645F7D000680028EDD1B5F583
:107A4000803FD7F8008019D2D8F8003018489B68DA
:107A5000834205F1090121D130462CF051FE68B175
:107A60002368C5809A680260002298606260BDE861
:107A7000F081838801338380BDE8F081D8F800303D
:107A80000C4A5B6893420ED03146404698472268C4
:107A900000239268012139711A60FFDE0A464046D0
:107AA00031469847DBE7304622F0D8FEEFE700BFCB
:107AB000AD750200B57502002DE9F04745684DB17E
:107AC0008368EA88934204460E4605D01D4401337C
:107AD000A3602E72BDE8F0875B00D0F800905F1CB9
:107AE000B7F5803FD9F8008012D2D8F800201549A8
:107AF000D2F808A08A4503F10A021CD11146284693
:107B00002CF0FEFD20B1C780A36860600546DDE76C
:107B1000D8F800300C4A5B68934208D1284622F01E
:107B20009DFE0122002389F804206360D2E72946E4
:107B300040469847F5E729464046D0470028E2D11D
:107B4000E6E700BFAD750200B575020003792DE9C7
:107B5000F0470C46D907054637D4DA0624D413F08B
:107B6000600F1DD02E884FF6FF77BE4215D0E36A16
:107B7000F20903EBC20306F07F09D3F8048008EB97
:107B8000C900B246C6882146FFF7E0FFA38E28F859
:107B90003930BE42A4F834A0E9D14FF0FF332B6056
:107BA00000232B71BDE8F0872A884FF6FF718A42C7
:107BB00037D0E16AA68ED00901EBC00102F07F0048
:107BC000496821F83060A286C9E7A0682A6826685B
:107BD0000028C2D0824216D0014600680028BCD0DE
:107BE0008242F9D18288013A92B28280002AB4D1CD
:107BF00003680B6033680C4A5B6893420CD122F037
:107C00002DFE2B79A9E78288013A92B28280002A60
:107C1000A3D10368A360EDE70146304698472B796E
:107C20009BE700231B80FFDEB57502002DE9F04FB6
:107C30000E46097885B02B29009000F0DE802D29B2
:107C400040F09A807178012001900644A1F1300043
:107C5000C0B2092800F29880DFF84C93C0B200212E
:107C6000002400254FF0993816F801BF2418ABF115
:107C70003007FFB241EB05054FEA850E092F6FEA89
:107C800007024FF0FF334FEA840C4EEA947EF8B2BD
:107C90004FF0000100F2FF80A94508BFA0450BD3BB
:107CA0001CEB040C4EEB050E1CEB0C044EEB0E050E
:107CB000AB4208BFA242D7D24FF0000A00232046B1
:107CC00029460A222BF0C8FBA946A0461FFA8AF3D0
:107CD000B9F5200F03F1010A08BFB8F1000F0446FF
:107CE0000D460FFA8AFAE9D2092F0BD802339B1BF3
:107CF00006EB030A16F801BFABF13002092A0FFAAE
:107D00008AFAF5D9BBF12E0F00F097800BF0DF0354
:107D1000452B42D0BBF1000F38D10AF126034C2B82
:107D200000F2DB80002D08BFB4F5000F80F0D58095
:107D300007EE904ABAF1000FF8EEE77A40F31281AD
:107D400092490022D3B21AF0010F01EB83031CBF4A
:107D500093ED007A67EE877A5FEA6A0A02F1010220
:107D6000F0D1019B0BB1F1EE677A009A0123C2EDCD
:107D7000027A137010460DE000200190A1F130004E
:107D8000C0B209287FF668AF2E2952D0009A00238E
:107D90001370104605B0BDE8F08F96F801B0BBF146
:107DA0002D0F35D0BBF12B0F00F0CB80ABF13003A2
:107DB000DAB2092A06F10106ACD80AEB0302B2F5E1
:107DC0009A7F00F3B280002706E002EB400303EB4A
:107DD0000A02B2F59A7F77DC16F801BFABF13002E8
:107DE000D1B2092903EB8300EFD9002F40F0A28024
:107DF0009A44BBF1000F90D0C8E771780020019041
:107E0000A1F13000C0B2092806F10106BCD823E771
:107E100096F802B0ABF13003DAB2092A06F1020695
:107E20003FF678AF0AEB0302B2F59A7F4DDC0127EB
:107E3000D2E7002400254FF0000A96F801B0ABF11C
:107E40003000C0B2092806F101063FF65FAF504B83
:107E50004FF099329D424FEA850108BF94424FEAA4
:107E6000840741EA94710ED23F1945EB010117EBEB
:107E7000070841EB01090AF1FF3A18EB00040FFA79
:107E80008AFA49F1000516F801BFABF13000C0B223
:107E90000928DFD93AE7BBF1000F6ED1019B8BB106
:107EA000B5F1004F08BF012CBFF406AF644265EB8B
:107EB00045050223009A1046C2E90245137005B039
:107EC000BDE8F08F0323F5E77FB300994FF0004240
:107ED000012308468A600B705CE7204629462AF099
:107EE00053FFBAF1000F43DD2A4D002404E05FEA9E
:107EF0006A0A04F101040AD01AF0010FF7D0E3B2C4
:107F000005EBC303D3E900232AF074FFEFE7019BDD
:107F100013B101F100431946009A0423C2E902019A
:107F20001046137005B0BDE8F08F019B0020BBB177
:107F30001949F1E7AAEB030ABBF1000F3FF4EDAEDC
:107F400024E796F802B0ABF13003DAB2092A06F161
:107F500002067FF632AFBBF1000F3FF4DEAE15E74D
:107F60000E49D9E73FF4FDAE0D49CAF1000AE8E633
:107F7000CDD00C4DCAF1000AB7E7B5F5801F08BF98
:107F8000002CBFF499AE4FF0000ABBE6CC6C0500A4
:107F900099990100306D05000000F0FF0000F07FAE
:107FA000B46C0500E86C050099999919002913DD56
:107FB000421E10B4094C11444FF0FF3012F8013F3B
:107FC0004340DBB2914254F8233083EA1020F5D1CC
:107FD000C0435DF8044B704700207047786D050082
:107FE000704700BFF8B522F0F7FB22F067FA30487F
:107FF000304F314E1CF0F0FD304B314931484FF6D7
:10800000FF744FF0FF32C3E90022C3E90922C3E93C
:108010001222C3E91B229A81C3F81220C3F816204A
:10802000C3F83620C3F83A20C3F85A20C3F85E20BC
:10803000C3F87E20C3F882201C815C83DC839C858E
:108040001C86DC87A3F84240A3F85040A3F85440B4
:10805000A3F86240A3F86640A3F87440A3F8784000
:10806000A3F88640A3F88A40174B3C800C80174940
:108070000480C3E90022C3E902221548154B34806D
:1080800000250B60144E4FF496630380294620228E
:10809000124835702BF08AFC114B1248124A1D70A1
:1080A0001249134B047015700D701D80F8BD00BF90
:1080B000247600205264002050640020C464002014
:1080C0002666002016660020546400202C640020E0
:1080D000EE650020801A0600146600200C64002063
:1080E0009464002043660020D0630020AC6400202C
:1080F0009865002008B5FFF747FA00BF2DE9F04F5B
:1081000092461278A1B0012ACDE9011318D0022AB3
:1081100020D0032A00F09D80042A00F0C680052AA2
:1081200000F0D080029B002B06DD9AF800305A1E2A
:10813000042A12D9072B10D0019821B0BDE8F08F86
:10814000DAF804301868596806AB03C39DF81C3090
:10815000002B35D1029B002BEEDDDAF808301868D1
:1081600059689A6808AB07C39DF82860BDF920409C
:10817000002EE1D0664A674B1788D3F800C00198FB
:1081800007EB470106440CEBC1014FF6FF75634650
:1081900037B90DE0A24208BF58801833994207D082
:1081A000B3F902208242F5D15D8018339942F7D1AC
:1081B0000130B04204F10104E9D121B0BDE8F08FF3
:1081C000242212FB0303DFF86081CDF80CA0814666
:1081D000022602279A4699F800104F4BA1F1200B76
:1081E00033F91B30002B41DB5CD099F81010CDE93E
:1081F0001067CDE91267CDE91467CDE91667CDE9BF
:108200001867CDE91A67CDE91C67CDE91E6761B132
:10821000D9F804200120114412F8013B20AC04EBF2
:108220008303914243F8400CF6D10FAD002455F87A
:10823000042F58F82B00E1B2D2B2013416F0D8FB6B
:10824000102CF4D109F12409CA45C4D1DDF80CA0E1
:1082500068E7DAF80430186804909B88ADF81430A9
:10826000C1B201222D480EF047F95BE7102024F03F
:1082700033FE044616F084FB274A48F82B400023BF
:1082800022F81B3099F80010254A204616F09AFB78
:108290000028D7D0234A012342F82B301E4A22F867
:1082A0001B30A2E758F82B40EEE7DAF804301868E4
:1082B00004909B88ADF81430C1B2002217480EF02C
:1082C0001BF92FE7DAF80440E36820686168A268C8
:1082D0000BAD0FC5206928600BAA9DF82C100F4824
:1082E0000EF094F9642022F083FA9DF82C100B48CC
:1082F0000EF0B8F90BACADF83E000FCCDAF8044044
:1083000020606160A260E360286820610AE700BF26
:10831000386600203C660020546400204C66002033
:108320003C6800200C640020306400202DE9F04FF0
:10833000C64CC74B87B0B4F900A0B3F9003069460A
:108340000AEB8A0202AFA1EBC20295464FEA8A020B
:10835000BA60002B02AA0546FA600FDDDFF8388309
:108360000026D8F80030012133F9160025F008FF67
:10837000B74BB3F900300136B342F2DCB54BB3F979
:108380000030002B0FDDDFF814830026D8F8003012
:10839000022133F9160025F0F3FEAE4BB3F900309D
:1083A0000136B342F2DCAC4BB3F90030002B0FDDE9
:1083B000DFF8EC820026D8F80030022133F91600ED
:1083C00025F0DEFEA44BB3F900300136B342F2DCF7
:1083D000B4F90000002840F3E781DFF8848200262A
:1083E000D8F80030002133F9160025F0C9FEB4F9A1
:1083F00000000136B0428646F2DC002800F088809A
:10840000964B974E984294BF40004FF0FF3024F0B7
:1084100065FD944BD7F80C901860BB683D609A08D6
:108420007A604FF00A089B46B4F90030002B0FDD4C
:108430004D464FF0000A336833F91A0025F072FEFA
:10844000B4F9003045F8040B0AF1010A5345F2DC97
:108450000A2022F0CDF9B8F10108D944E4D1B4F9E9
:1084600000E03D68BEF1000F52DDD7E902321A4448
:10847000D11801EB030909EB030A7B6879487E6890
:10848000006803EB830CFB68043B3601FB60A9F139
:1084900004037B60A6F1040E0238D7F80490B8609C
:1084A0000B1F043AAAF104014FEA8C0CF2447D60E0
:1084B000FD6853F804BF55F804EFFD6052F8045FFF
:1084C00053F80C00754459F804EF5D4451F804BFAB
:1084D0007544AB449559AB449D59AB445AF8045F7D
:1084E000834451F80C000BEB050E0EEB00055E48C3
:1084F00080FB050EB868ED17C5EBAE0520F8025FEE
:10850000B4F900E0B86008F10108C645D0DC7D6828
:10851000514B5048B3F900104D4B544A1B8800880A
:10852000B2F90020DFF87C81514E13FB0013134495
:10853000B8F900204F4900247344A24233600C7004
:108540002FDDDFF86491D9F80030A24623440221E0
:10855000587825F015FED9F8003023440221987888
:1085600025F00EFED9F8003023440221D87825F0FA
:1085700007FED9F8003023440221187925F000FEC7
:10858000D9F800301A5D002A40F0A8803268B8F9A6
:1085900000100AF1010A0132514504F11C04326055
:1085A000D4DC354BB3F90010002905DB334BB3F9AC
:1085B0000020002A80F2AF80314CB4F90030002B4B
:1085C000C0F2EB80DFF8E480B8F90030002B00F354
:1085D0008F80202200212B482B4C2BF0E7F92B49D0
:1085E0002B4A2C48DFF8C8C00023C1E900338B6058
:1085F000C0E90033C2E90033C2E902338360306866
:108600008CF80030238024F069FCA860306824F0E6
:1086100065FC3368114AE860934294BF58004FF0FC
:10862000FF3024F05BFC33680C4A6861934294BFCE
:1086300058004FF0FF3024F051FC33682861002BC4
:1086400046DD00231A464FF6FF7C33E0E46300204A
:10865000D2630020D6650020DC630020FCFFFF3FD2
:10866000E8630020EC6300206766666646660020CB
:1086700068640020AD640020526400205064002033
:1086800026660020F465002024660020186600207D
:1086900028660020E0650020D4630020D865002013
:1086A000E0630020B4640020B0640020EE65002088
:1086B000EC650020A968CA54E968CA54D5E90404E5
:1086C000316824F8132020F813C001339942F1DCFB
:1086D000002314372B83BD46BDE8F08FB8F9002086
:1086E0000AF1010A524504F11C043FF72FAF58E785
:1086F000342024F0F1FB384B384922781B78097874
:10870000044620F099FD364BB8F900101C60204655
:1087100020F0ACFD5DE7DFF8DC803248324CD2B2AD
:10872000C9B20EF0E1F8D8F800102E480EF0BEF8ED
:108730002C480EF05FF8B4F90030002B0BDDDFF8A9
:10874000B890B9F90030002B05DDDFF8B0B0BBF907
:108750000030002B2ADCDFF8A880B8F90030002BAD
:108760007FF72AAF3168DFF89C900024D9F80030F9
:1087700004EB440203EB820228460123FFF7BEFC10
:10878000B8F9003030600134A3420146EEDC174CEA
:10879000B4F90030002BBFF615AF104BB3F9003021
:1087A000002BBFF60FAF14E7864626E6142024F010
:1087B00093FB82460DF062FED8F800300C4800931F
:1087C0002378C0F800A0BBF90020B9F9001050468A
:1087D0000DF05CFEBFE700BF1466002016660020A7
:1087E000646400203C6800200C60002026660020A5
:1087F000B86400202C640020106000200E6000206F
:108800000864002004640020144A1268F8B5144B70
:10881000002A0E460746196004DD00695200FF2158
:108820002BF0C4F80F490D8865B10F4B1A6800236F
:10883000023232F9024CB44205D001339D4202F1BA
:108840001802F6DCF8BD32F9180B3C6924F8103038
:108850000D880133AB42ECDBF8BD00BF686400203B
:10886000DC650020386600203C660020F0B42A4C0D
:10887000BDF910502468944207462BD027490E8832
:10888000E6B127490024096803E0B44201F1180168
:1088900014D0B1F90050954204F10104F5D1B1F9B9
:1088A00002009842F1D10C460FCC3D460FC594E82A
:1088B000030085E803003846F0BC70474FF0FF33F3
:1088C0004FF4204178223B603B81B980BA71384631
:1088D000F0BC7047096931F913100029EEDB35B996
:1088E0000F4B1C6801EB410104EBC104DCE7012DD7
:1088F000C4D10B4B1B6801EB410103EBC1010B7CA5
:10890000002BDBD04D690FCD3C460FC495E803002A
:1089100084E80300DBE700BFDC6500203866002048
:108920003C6600202DE9F04F2DED028BABB0CDE978
:10893000041302921278012A79D108EE100A029AE1
:108940005368946818685968A2680AAB03C3206822
:108950009DF82C50616801950EAB07C3002D00F007
:1089600036810A9C0025AA464FF6FF79A04615E0FD
:10897000C74B53F8220016F009F8002846D02AAB5E
:1089800003EB4A02C04322F8400C0AF1010A019BA2
:1089900001359D4208F1240800F0968098F80020E7
:1089A000BC4B203A33F912100029F0DD98F8106022
:1089B000002EDDD098F818100029D9D0B8F808306A
:1089C000B349009351F8227013F47F41DAB240F0BA
:1089D0008980002A40F0AC80564493461AAC384651
:1089E00015F0D4FF009B63EA000378B148455ED0E0
:1089F00024F81A300AF1010AB245C8D0384615F0F9
:108A0000C5FF009B63EA00030028EFD10A2021F094
:108A1000EFFE029C00232246194618EE100AFFF7CB
:108A20006DFB0A2021F0E4FE2278012A87D0022A79
:108A300000F00981D31E012B40F2CC80052A00F002
:108A40004781072A00F0C481013A042A44D8082447
:108A50004FF0000A9DF8400020B3049B0F995D1E63
:108A6000059B2B440AF1FF371D462AAB01EB40065C
:108A700003EB47070DF1A80C31F9023B93FBF4F22D
:108A80000CEB420C524504FB1233ACBF37F8402CC0
:108A90003CF8402C42FA03F303F00103B14205F81D
:108AA000013FE7D12BB0BDEC028BBDE8F08F24F87D
:108AB0001AB00AF1010AB24591D1019B01359D42DC
:108AC00008F124087FF46AAF029B1B7810245A1E19
:108AD000042ABFD9072BBDD000202BB0BDEC028BE0
:108AE000BDE8F08F002A46D11AAB03EB4A0B56447F
:108AF00003925C4609E048450AF1010A08BF039B5E
:108B00002BF8023BB2453FF442AFABEB0403D8F87D
:108B10000C20D15A38460122090A15F0C5FF384603
:108B200015F034FF009B63EA00030028E3D16DE7F2
:108B30001AAB03EB4A0B564403915C4609E04845E7
:108B40000AF1010A08BF039B2BF8023BB2453FF430
:108B50001EAFABEB0403D8F80C100022C95C3846FA
:108B600015F0A2FF384615F011FF009B63EA0003E1
:108B70000028E4D14AE72AAB06EB0A0B03EB4A06CE
:108B80000024423E0BE048450AF1010A08BF0023D9
:108B9000DA4526F8023F04F102043FF4F8AED8F8B3
:108BA0000C30195B0122090A384615F07DFFD8F810
:108BB0000C300022195D384615F076FF384615F066
:108BC000E5FE009B63EA00030028DCD11EE7AA460D
:108BD00010243FE7029BD3E90143206859689A6853
:108BE000089005461868A388ADF824300EAB07C37B
:108BF0002949EAB206A80DF0E5FC9DF824009DF88D
:108C000018209DF819409DF81A309DF81B10012876
:108C100000F0F080022800F0F08003280BBF581A03
:108C2000A01AA11AC91A029B50EA01021B7835D179
:108C30004FF0010A2AA901EB42029DF81C1022F80C
:108C4000401C082443E7029A5368946818685968DE
:108C5000A2680CAB03C3206861689DF834A00EAB1A
:108C600007C3BAF1000F00F051810C9C0A4F0AEBC8
:108C700004061AAD14F8011B38460DF095FCB442F9
:108C800025F8020BF6D1029B08241B781FE700BFD2
:108C900030640020546400204C6600206FF07E0297
:108CA00090420646B8BF16468A42B8BF0A467F2E93
:108CB000A8BF7F267F2AA8BF7F22032B154600F07E
:108CC0009F80042B00F00E814FF0010A0022B1E7D3
:108CD000029BD3E9014720686168A268E368E67CEB
:108CE00015AD0FC52069286079683868BA688DF8B5
:108CF00067600EAD07C5BDF866302278A14911A89E
:108D00000DF0E4FCB246002EBDD09DF84430ADF825
:108D10006830012EB7D09DF84530ADF86A30022E8C
:108D2000B1D09DF84630ADF86C30032EABD09DF835
:108D30004730ADF86E30042EA5D09DF84830ADF820
:108D40007030052E9FD09DF84930ADF87230062E58
:108D500099D09DF84A30ADF87430072E93D09DF825
:108D60004B30ADF87630082E8DD09DF84C30ADF8F4
:108D70007830092E87D09DF84D30ADF87A300A2E24
:108D800081D09DF84E30ADF87C300B2E3FF47BAF98
:108D90009DF84F30ADF87E300C2E3FF474AF9DF847
:108DA0005030ADF880300D2E3FF46DAF9DF851304E
:108DB000ADF882300E2E3FF466AF9DF85230ADF81C
:108DC00084300F2E1CBF9DF85330ADF886305AE723
:108DD000029B6D4C9B68186859689A680EAB07C374
:108DE0000FCC1AAD0FC594E80F00102485E80F00D2
:108DF000A2462FE6C81A111B15E7101B591A12E7D5
:108E0000624A1278002A3ED0002903D0D4BF012143
:108E10004FF0FF31002803D0D4BF4FF0FF300120C6
:108E20005B4CB4F90020002A6EDBB2F5005F6BD01A
:108E3000B4F91020002AC0F2A280B2F5005F00F061
:108E40009E80B4F92020002AC0F29780B2F5005F1E
:108E500000F09380B4F93020002A03DBB2F5005F04
:108E60007FF432AF032204EB021216464FF4A4241F
:108E70000025E6E802456424118150814FF0010A83
:108E800074600022D6E6424CB4F90010002919DBC8
:108E9000B1F5005F16D0B4F91020002A6BDBB2F5F3
:108EA000005F68D0B4F92020002A62DBB2F5005FD1
:108EB0005FD0B4F93020002A03DBB2F5005F7FF405
:108EC00003AF032212014FF4A420A050A1180832CE
:108ED00000208E80BDF92260CD80A0500246C8815E
:108EE0008E81A5E60022841CADF8682020DA85EA90
:108EF000E5707242A0EBE570824209DD0122ADF817
:108F000068204FF0020A95E60022ACE70824A1E5AC
:108F10008A1C1FDA002EC5F10002B8BF7642B242A9
:108F200014DD0422ADF868204FF0020A012281E628
:108F30000228EDDD85EAE572A2EBE5729642E7DDF7
:108F40000222ADF868209246012273E64FF0020A31
:108F500001226FE60229F9DD86EAE672A2EBE672EB
:108F60009542F3DD0822ADF868204FF0020A012295
:108F700060E60222A6E70122A4E7022273E70122AB
:108F800071E700BF4C660020F4650020AC6400204F
:108F9000586500202DE9F84FDFF81893BD4DBE4FFE
:108FA000BE4CBF4EDFF81083D9F800000368DB68C1
:108FB0009847002840D0D9F8000003681B699847FB
:108FC0002378C2B23BB902F14F01C9B20629EBD8EE
:108FD00022703370E8E7B12B1FD0B22B4BD0B32BEC
:108FE00066D0B42B58D0B52B0ED0B62B0CD0B72BE7
:108FF000DAD13378002B40F0F680012A88F800207F
:1090000008D00022227005E03378002B40F0A580C4
:1090100088F8002001333370C6E7A24B120900F034
:109020000F0C33F81210012000FA0CF00843002155
:1090300023F812002170B7E72B7863B11C09994817
:1090400003F00F0330F81420012101FA03F322EAA0
:10905000030320F8143094490F22481E2AF08CFC98
:109060003B880022EA7323B1013B9BB23B80002B7B
:109070006DD0BDE8F88F8B4B120900F00F0033F86C
:1090800012104FF0010C0CFA00F021EA0001002050
:1090900023F81210207087E796F800E0BEF1000F69
:1090A0006CD188F800200EF1010E86F800E07BE715
:1090B0007C4B95F802C0110900F00F0033F811E065
:1090C0004FF0010A0AFA00F040EA0E004FF0000EDD
:1090D00023F8110084F800E0BCF1000F00F0B68026
:1090E000EB78002B00F0B8802B79002B00F0B180DA
:1090F0006B79002B00F0B680AB79002B00F0AF80CD
:10910000EB79002B00F0B4802B7A002B00F09980D3
:109110006B7A002B00F0A980AB7A002B00F0B180B5
:10912000EB7A002B00F0AA802B7B002B00F0A380B1
:109130006B7B002B00F0AB80AB7B002B00F0A4809E
:10914000EB7B002B7FF430AF0F23EA542CE7574A18
:10915000C2E900339360BDE8F88F5549B1F90000CA
:10916000002824DBB0F5005F21D0B1F91000002801
:1091700002DBB0F5005F53D1012019E098F8001030
:10918000914211DA474B4FF0010A4FEA211C01F0DE
:109190000F0B33F81C000AFA0BFB013120EA0B001D
:1091A000914223F81C00F0D1002323707BE70020BC
:1091B0004FEA001E4FF4A42A41F80EA00EF1080C4D
:1091C00001EB001001EB0C0E98F800B0C2804FF0DC
:1091D000000A6422A0F804B041F80CA0CEF80420E4
:1091E0000022227016E798F8001001297FF412AFD0
:1091F000022B08F803207FF60DAF4FF0000CC8F8E3
:1092000005C088F809C0A8F80AC098E80700DFF888
:109210009CE084F800C08EE80700C8223A80F9E696
:10922000B1F9200000280FDBB0F5005F0CD0B1F9D8
:109230003000002803DBB0F5005F7FF4E2AE0320CE
:10924000B6E70823EA54AFE60220B1E70223EA5466
:10925000AAE60423EA54A7E60323EA54A4E6062375
:10926000EA54A1E60523EA549EE60923EA549BE664
:109270000723EA5498E60C23EA5495E60B23EA54B4
:1092800092E60A23EA548FE60E23EA548CE60D2375
:10929000EA5489E62866002024660020EC65002058
:1092A000F0650020F4650020296600201866002083
:1092B0005865002064640020E06500202DE9F84333
:1092C000634890F900001446002861D11D461378C8
:1092D0000BB1BDE8F8836B5450780E4624F022FFA2
:1092E0008046A07824F01EFF0746E07824F01AFF9D
:1092F0008146207924F016FF08EB07034B44034412
:10930000B4F90AC0B4F908E0002B1946B8BFD91C5B
:10931000F44502464FEAA10142DBB4F9060081425E
:1093200048DA4C4DB5F90030002B02DBB3F5005F95
:1093300071D10026B4F916C0B4F914E03601A2EBDD
:109340000903A7EB080706F10802411AA7EB0C076F
:1093500005EB0608A3EB0E0305EB020CB4F91800AD
:10936000B4F91A4001FB03F301FB07F193FBF0F39F
:1093700091FBF4F14FF4A42000276424A851A8F82D
:109380000430A8F806100120AF50CCF80440A0E744
:1093900001281AD02078B0FA80F04009BDE8F8839F
:1093A00041F24F408342B8DC0CF1010CA4F80AC032
:1093B00001208EE7BCF1000F03DDF445BCBF0123A3
:1093C000AB5500236381012083E7507824F0AAFE87
:1093D0000646A07824F0A6FE0546E07824F0A2FE1A
:1093E0000746207924F09EFEB4F90C20C31B93425B
:1093F000B4F90E20B8BFA3819342C8BFE381B4F98A
:109400001030A81B9842B4F91230B8BF208298429D
:10941000C8BF6082BEE7B5F91030002B12DBB3F590
:10942000005F0FD0B5F92030002B0DDBB3F5005FE6
:109430000AD0B5F93030002B08DBB3F5005F05D05A
:10944000012046E7012675E7022673E7032671E748
:10945000AD64002058650020084BB3F900100029C6
:109460000BDD074B1B681C220C3311FB0231002261
:109470001A605A601C338B42FAD17047B4640020E2
:10948000B06400202DE9F04FC34EB6F90030002B38
:1094900085B0054640F3BB81C04F00243B6833F9DB
:1094A000140024F00FFFAB68B0FA80F040091855A3
:1094B000B6F900300134A342F0DCB949B1F900300B
:1094C000002B0ADD00231846AA681055B1F90020C8
:1094D00001339A4204F10104F6DCB24BB3F90030D7
:1094E000002B7CDDDFF8E8B2DFF8E8A200260EE012
:1094F0002B689B5D434553DDAB6801221A55A94B90
:10950000B3F900300136B34204F1010467DD2B6981
:1095100033F91430002B3DDBA34A126803EB4303FD
:1095200002EBC3031F7993F8058093F80690DBF8EC
:10953000003033F9160024F0F5FDDAF800309B4ACC
:109540009B4933F91630B2F90020B1F900104FF001
:10955000FF0C1A441944CDF800C0002320F0B2FFDC
:109560002B6880F308009855002FC1D0012F1ED022
:10957000022FC4D1EB681B5D002B40F0BD802A6830
:10958000925DD22A40F2F680AA68032111556A68DA
:109590009355B4E74FF0780900274FF0A008C6E7CD
:1095A0004B4519DBD5E90232125D1A55A7E7EB6886
:1095B0001B5D002B40F09980D5E90012925D895D1A
:1095C0009044414540F3AD80AB6801221A55D5E97E
:1095D0000023925D9A5592E7AB681F558FE7754F50
:1095E000B7F90030002B41DD734ADFF8EC81DFF87A
:1095F000ECA1DFF8EC9142F0010203920026002B6F
:10960000C8BF4FF0000B0FDDDAF80020BBEB0601FE
:1096100032F91B0018BF012124F036FEB7F90020F3
:109620000BF1010B5A45EFDC039B4FF44860984760
:10963000B8F90030002B14DD4FF0000BD9F80020F2
:1096400032F91B0024F03EFEAA68B0FA80F040090F
:109650001055B8F900200BF1010B5A4504F1010433
:10966000ECDCB7F900300136B342C8DC534FB7F930
:109670000030002B13DDDFF86C810026D8F80020C5
:10968000AB68C6EBC60102EB810228462146FFF714
:1096900015FEB7F900300136B3420444EEDC484B06
:1096A000B3F90030002B5FDB464BB3F90030002BE1
:1096B00033DC454FB7F90030002B13DDDFF828818C
:1096C0000026D8F80020AB6806EB460102EB8102C9
:1096D00028462146FFF726F9B7F900300136B34294
:1096E0000444EEDC05B0BDE8F08F012B27D0AB6859
:1096F0004FF000021A5502E7022B7CD0032B7FF4B7
:10970000FEAE2A68925D1D2A00F28A80AB684FF097
:1097100000021A556B689A55F1E62846FFF73AFCA5
:10972000C7E7F0293FF650AFAA681355D5E90023E3
:10973000995D925D91427FF6E2AE9A55DFE6D5E9FA
:1097400000239B5D925DA3EB09094A45AB681FDBD3
:109750000B2A1DD91F55D5E90023995D925D9142D1
:10976000BFF4CDAE9A55CAE6184BB3F90030002BC2
:109770009ADA9EE7282A39D969688A5D01328A55C2
:109780006A68925D052A3FF627AFAA681355B6E6C8
:109790004FF000021AE700BFDC630020E063002006
:1097A00046660020E46300203C660020F063002051
:1097B000F2630020D2630020E0720500B464002050
:1097C00026660020EE650020086400201666002052
:1097D000E8630020EC630020D6650020D4630020FD
:1097E000D8650020B064002004640020AA681355E6
:1097F0006A68935583E62B689A5DD22A09D9AB68CB
:1098000003221A556B684FF000029A5577E6002440
:1098100053E61B5D1D2BAB687FF679AF1F556EE6D7
:10982000C72A0ED869688A5D01328A556A68925DD6
:10983000052AAAD9AB681F556B684FF000029A55EC
:109840005DE6AA6813556B684FF000029A5556E61C
:1098500010B4084C2368002B08DD0023D0E9021265
:10986000C95CD154226801339A42F7DC5DF8044B9D
:10987000704700BF68640020084B00224FF6FF715C
:1098800019601961196219635A60DA605A61DA6104
:109890005A62DA625A63DA63704700BF5865002083
:1098A000F0B51C4CBDF914C0B4F90000BDF9185056
:1098B000BDF91C70BDF92060002801DB814211D187
:1098C00000204FEA001E04EB001024F80E106D4239
:1098D0000021058142808380A0F806C047818681EF
:1098E000C181F0BDB4F91000002809DB814207D026
:1098F000B4F92000002801DB814203D10220E0E717
:109900000120DEE7B4F93000002801DB8842E8D10D
:109910000320D6E758650020144BB3F9002091428C
:1099200005D100224FF6FF70C3E90002DA60B3F9F7
:109930001020914205D100224FF6FF70C3E90402C6
:10994000DA61B3F92020914205D100224FF6FF7071
:10995000C3E90802DA62B3F93020914205D100224E
:109960004FF6FF71C3E90C12DA63704758650020A7
:109970002DE9F04F00F11003064693E8070091B07F
:10998000B468D6F80CE004AD85E80700002C00F0C0
:10999000DE80237907AF202B87E8070040F0D780CF
:1099A0000DF128090DAB89E8070083E8070001469F
:1099B000002800F0CC8020884FF6FF7C604500F046
:1099C000C680DEF82CB0C2090BEBC20200F07F00AB
:1099D000546814EBC00000F0BA800E9AC48802925A
:1099E00002F1FF3E01EB0E024FF0010A00920396D6
:1099F0005A46029ECDF804C0A0468B46BAF1000F2D
:109A000015D10199884500F0A2804FEAD81402EBE5
:109A1000C40408F07F08606810EBC80000F097806D
:109A20008AF0010AB0F80680BAF1000FE9D090F888
:109A300004C00468BCF1040F00F09380BCF1050F72
:109A400040F08980E0880834B042DAD15EB1013C50
:109A50000BF1FF3010F801CF14F8011F8C45D0D165
:109A600000998142F6D14FF6FF7CE045039E4446C3
:109A700093466CD006F11C00E6090BEBC60607C83E
:109A8000766804F07F0416EBC40E85E807005ED00C
:109A900095E807009EF80450202D87E8070056D16E
:109AA00083E807000D9F89E80700002F4FD036F8A4
:109AB000343063454BD0DA090BEBC20203F07F046C
:109AC000536813EBC40342D00E9EDC8806F1FF38C6
:109AD00032465646B844BA46E14617467EB94C452A
:109AE00035D0E2090BEBC20204F07F04536813EB9C
:109AF000C4032CD086F00106DC88002EEFD01A7942
:109B00001D68042A35D0052A28D1E8880835B842CE
:109B1000E5D157B1013D0AF1FF3313F8011F15F8E4
:109B2000012F9142DBD19845F7D14FF6FF739C424C
:109B30000DD0E2090BEBC20204F07F04526812EB75
:109B4000C40005D0017920293AD0402919D000203D
:109B500011B0BDE8F08F0020044675E7002FBED19C
:109B6000E3E764B1204602922AF037FE029A0DAB79
:109B70006AE72846002DCAD02AF02FFEC7E7204604
:109B800062E732F834009842E1D0C1090BEBC10121
:109B900000F07F02486810EBC200D9D0C1881D4692
:109BA0000020CB09A9420BEBC30301F07F0200F1B7
:109BB0000100CDD05B6813EBC203C9D0D988F0E7B0
:109BC00032F834009842C2D0C1090BEBC10100F059
:109BD0007F02486810EBC200BAD0C2881C46002041
:109BE000D309A2420BEBC30302F07F0100F1010095
:109BF00005D05B6813EBC10301D0DA88F0E74008B9
:109C000011B0BDE8F08F00BFF0B40B460446D1E9B7
:109C100002018AB002AF03F1100587E80300944601
:109C200095E8070004AE1C3386E8070093E80700B8
:109C300007AD85E8070097E8030004F10C0282E80D
:109C4000030096E807002346143484E8070095E8EB
:109C5000070003F1200484E807001846C3F82CC06D
:109C60000AB0F0BC704700BF2DE9F04F00F10C03C3
:109C7000044693E80700D4E901368DB06C4684E8C9
:109C80000700002B64D094E807001D7903AC202D59
:109C900084E807005CD106AC84E807000CAC04E95A
:109CA0000700DDF82490B9F1000F51D01B884FF662
:109CB000FF7A53454CD0F56ADA0905EBC20203F08E
:109CC0007F04536813EBC40342D00A9FDC8807F17A
:109CD000FF3B4FF00108CB44B8F1000F10D15445C1
:109CE00036D0E20905EBC20204F07F04536813EB9F
:109CF000C4032DD088F00108DC88B8F1000FEED045
:109D00001A791E68042A2AD0052A25D1F088083637
:109D1000B842E4D157B1013E09F1FF3313F8011FF6
:109D200016F8012F9142DAD15B45F7D14FF6FF7358
:109D30009C420DD0E20905EBC20204F07F04526898
:109D400012EBC40005D0017920292CD040290CD079
:109D500000200DB0BDE8F08F002FC0D1E6E73046FF
:109D6000002ED5D02AF039FDD2E732F834009842DF
:109D7000EED0C10905EBC10100F07F02486810EB8D
:109D8000C200E6D0C1880020CA09994205EBC20290
:109D900001F07F0400F10100DBD0526812EBC40235
:109DA000D7D0D188F0E732F834009842D0D0C1093A
:109DB00005EBC10100F07F02486810EBC200C8D07B
:109DC000C1881E460020CA09B14205EBC20201F05B
:109DD0007F0400F1010005D0536813EBC40301D0E8
:109DE000D988F0E740080DB0BDE8F08FF0B40B461D
:109DF0000446D1E9010186B001AE0C3386E80300C8
:109E0000174693E8070003AD85E8070096E80300CE
:109E100004F1080282E8030095E8070023461034A5
:109E200084E807001846DF6106B0F0BC704700BF49
:109E3000F0B50B460446D1E903018DB003AF03F141
:109E4000140587E80300944695E80700D3F820E05E
:109E500005AE243386E8070093E8070009AD85E8DE
:109E6000070097E8030004F1100282E8030096E877
:109E700007002346183484E8070095E8070003F13B
:109E80002804C3F824E084E807001846C3F834C067
:109E90000DB0F0BD2DE9F04103460C46D1E90501B6
:109EA00092B00DF1140C04F11C058CE803009646E9
:109EB00095E8070007AF04F12C0587E8070095E84F
:109EC00007000BAE04F13C0586E8070095E80700A3
:109ED0000FAD85E807009CE8030003F11802D4F8F1
:109EE0002880D4F838C082E8030097E8070003F11F
:109EF000200484E8070096E8070003F13004C3F863
:109F00002C8084E8070095E8070003F14004C3F8BB
:109F10003CC084E807001846C3F84CE012B0BDE826
:109F2000F08100BF037913F0100270B40DD00288E5
:109F30004FF6FF76B2423CD0CE6AD10906EBC1069D
:109F400002F07F01726802EBC1020A3B122B0BD8B0
:109F5000DFE803F01B0A2D0A0A0A0A0A0A0A0A0A9B
:109F60000A0A0A0A200A0D00002070BC7047D2E9D4
:109F7000003213F1004442F10005012D08BF002C0E
:109F800034BF0120002070BC70470068C043C00F80
:109F900070BC7047D2E9002300216FF00040994265
:109FA00008BF90422CBF0120002070BC70470120E8
:109FB000DBE70022C9E700BFF0B5037913F0100218
:109FC00085B00FD002884FF6FF7C624576D0C96A13
:109FD0004FEAD21C01EBCC0C02F07F01DCF804202C
:109FE00002EBC102043B1A2B1FD8DFE803F039460D
:109FF000491E1E1E4C1E511E0E1E1E1E1E1E1E1E05
:10A000001E1E1E1E541E5C1E2100D0ED007A9FED08
:10A01000427AF4EEC77AF1EE10FA06DB9FED3F7A52
:10A02000F4EEC77AF1EE10FA6AD9002005B0F0BD5F
:10A03000D2E900453A4B00222046294629F060F932
:10A040000028F3D032A3D3E900232046294629F083
:10A050004DF90028EAD02046294629F065F9E5E7C0
:10A0600001686846FDF7E2FD9DF80030013B032BD7
:10A07000DBD8DFE803F03B30282501680831F0E742
:10A08000007805B0F0BD006820EAE07005B0F0BDD2
:10A09000006805B0F0BDD2E90001002908BFB0F1A9
:10A0A000004FC3D3C1E7D2E9000310F1004643F1EA
:10A0B0000007012F08BF002EB8D3B6E7002291E7B2
:10A0C000DDE90245B6E7DDE90201002908BFB0F18C
:10A0D000004FABD3A9E7DDE9020310F1004443F1DF
:10A0E0000005012D08BF002CA0D39EE7DDED027A0C
:10A0F0009FED097AF4EEC77AF1EE10FA95DB8DE761
:10A10000FDEEE77A17EE900A90E700BFAFF300800C
:10A110000000C0FFFFFFDF41000000CFFFFFFF4E48
:10A120000000E0C12DE9F04F00F11403804693E8F0
:10A13000070091B004ADD8F80C3085E80700D8F8D6
:10A1400010200092002B00F0F78095E807001C79A2
:10A1500007AE202C86E8070040F0EE800AAF0DAC79
:10A1600087E8070084E80700002800F0E5801B88E6
:10A170004FF6FF72934200F0DF800099D1F82CA0D7
:10A18000D9090AEBC10103F07F044B6813EBC40348
:10A1900000F0D2800E99DC8801924FF001091A4636
:10A1A000A3464346884651468246B9F1000F15D171
:10A1B000019A934500F0C0804FEADB1001EBC0002C
:10A1C0000BF07F0B426812EBCB0200F0B58089F0F8
:10A1D0000109B2F806B0B9F1000FE9D0107914689E
:10A1E000042800F0B580052840F0AA80E0880834F3
:10A1F0008045DDD1B8F1000F0CD00AF1FF30621EAE
:10A2000000EB080410F801EF12F801CFE645CFD1BA
:10A210008442F7D198464FF6FF739B455C468A46C9
:10A2200000F08A804FEAD41C08F120020AEBCC0C23
:10A2300007CADCF804C004F07F041CEBC40E85E8F8
:10A24000070079D095E807009EF80450202D86E895
:10A25000070071D10DAD87E8070085E807000028E9
:10A260006AD03CF834209A4266D0D1090AEBC10189
:10A2700002F07F044A6812EBC4025DD04E460E9F86
:10A28000D4889B4681467EB95C4555D0E3090AEBEC
:10A29000C30304F07F045A6812EBC4024CD086F06A
:10A2A0000106D488002EEFD013791568042B59D0FD
:10A2B000052B4AD1E88808358742E5D15FB109F11D
:10A2C000FF33013DDA1913F8010F15F8011F884219
:10A2D000DAD19A42F7D14FF6FF7294422CD0E309BB
:10A2E0000AEBC30304F07F045B6813EBC40024D0C3
:10A2F0000179402920D133F8340090421CD0C109A3
:10A300000AEBC10100F07F034868D8F82C1010EB6D
:10A31000C30011D0C38859B3154602E00139C38880
:10A3200026D0DA09AB420AEBC20203F07F0003D069
:10A33000536813EBC000F1D1002011B0BDE8F08FDD
:10A34000B8F1000F7FF434AF64E7002F9CD1C2E76F
:10A35000002CF5D02046CDE902312AF03EFADDE9A5
:10A36000023145E7002DF0D028462AF036FAA3E75F
:10A370000099FFF721FE11B0BDE8F08F2DE9F04FF5
:10A3800000F11003064693E8070093B0B468F36841
:10A39000019306AD85E80700002C00F0E08094F8FA
:10A3A00004C009AFBCF1200F87E8070040F0D78058
:10A3B0000DF130080DF13C0C88E807008CE807002F
:10A3C0000146002800F0CB8020884FF6FF7C6045D6
:10A3D00000F0C580D3F82CB0C2090BEBC20200F02C
:10A3E0007F00546814EBC00000F0B980109AC48854
:10A3F000059602F1FF3E01EB0E034FF0010A1646EF
:10A40000CDF80CC05A460293A1468B46BAF1000F14
:10A4100015D10399894500F0A2804FEAD91402EBC7
:10A42000C40409F07F09606810EBC90000F0978050
:10A430008AF0010AB0F80690BAF1000FE9D090F85E
:10A4400004C00468BCF1040F00F09480BCF1050F57
:10A4500040F08980E0880834B042DAD15EB1013C36
:10A460000BF1FF3010F801CF14F8011F8C45D0D14B
:10A4700002998842F6D14FF6FF7CE145059E4C4695
:10A4800093466CD006F11C00E6090BEBC60607C824
:10A49000766804F07F0416EBC40E85E807005ED0F2
:10A4A00095E807009EF80450202D87E8070056D154
:10A4B0000FAB88E8070083E80700804600284ED0ED
:10A4C00036F8340060454AD0C2090BEBC20200F0F6
:10A4D0007F04506810EBC40041D0109EC4886746CA
:10A4E000BAF1000F10D1BC4239D0E3090BEBC30322
:10A4F00004F07F04586810EBC40030D08AF0010AE1
:10A50000C488BAF1000FEED003790568042B38D067
:10A51000052B2CD1E88808358642E4D15EB108F1DC
:10A52000FF33013D9A1913F8010F15F8011F8842F6
:10A53000D9D19A42F7D14FF6FF7294420FD0E20977
:10A540000BEBC20B04F07F04DBF8040010EBC4003B
:10A5500006D00199FFF730FD13B0BDE8F08F002061
:10A5600013B0BDE8F08F002E7FF453AF83E7002EC9
:10A57000B9D1E0E75CB1204604922AF02EF9049AA2
:10A580006AE7002DF3D028462AF027F9C4E72046D1
:10A5900062E700BF2DE9F04F00F10C02034607CA45
:10A5A000D3E901468DB06B4683E80700002C65D0E7
:10A5B00093E80700257903AB202D83E807005DD1E0
:10A5C00006AB83E807000CAB03E90700DDF824A025
:10A5D000BAF1000F52D020884FF6FF7948454DD090
:10A5E000D6F82CB0C3090BEBC30300F07F04586806
:10A5F00010EBC40042D04FF001080A9FC488B8F1A4
:10A60000000F10D14C4539D0E3090BEBC30304F024
:10A610007F04586810EBC40030D088F00108C4886B
:10A62000B8F1000FEED003790568042B2DD0052B6F
:10A6300028D1E88808358742E4D15FB10AF1FF33B9
:10A64000013DDA1913F8010F15F8011F8842D9D11D
:10A650009A42F7D14FF6FF739C420FD0E3090BEB00
:10A66000C30B04F07F04DBF8040010EBC40006D039
:10A670003146FFF7A1FC0DB0BDE8F08F00200DB012
:10A68000BDE8F08F002FBDD1E4E7002DFAD02846B9
:10A690002AF0A3F8CFE700BF2DE9F04F00F1100337
:10A6A000064693E807008DB0B368D6F80C806C4678
:10A6B00084E80700002B00F0828094E807001D79F1
:10A6C00003AC202D84E8070079D106AC84E80700AC
:10A6D0000CAC04E90700DDF824B0BBF1000F6ED02C
:10A6E0001A884FF6FF739A4269D0D8F82C90D10996
:10A6F00009EBC10102F07F044A6812EBC4025ED08C
:10A700004FF0010A0A9FD488BAF1000F10D19C4281
:10A7100055D0E10909EBC10104F07F044A6812EB4E
:10A72000C4024CD08AF0010AD488BAF1000FEED0EE
:10A7300011791568042949D0052944D1E8880835DC
:10A740008742E4D15FB10BF1FF32013DD11912F81C
:10A7500001CF15F8010F8445D9D19142F7D14FF6B9
:10A76000FF7294422BD0E30909EBC30304F07F048A
:10A77000596811EBC40322D01B79402B1FD131F84B
:10A78000340090421BD0C10909EBC10100F07F03E6
:10A790004868F16910EBC30011D0C388F1B11546C8
:10A7A00002E00139C38819D0DA09AB4209EBC202D1
:10A7B00003F07F0403D0506810EBC400F1D10020F7
:10A7C0000DB0BDE8F08F002FA1D1C8E7002DFAD061
:10A7D00028462AF002F84FF6FF73B1E74146FFF72B
:10A7E000EBFB0DB0BDE8F08F2DE9F04705460846BC
:10A7F0000C4629F0F2FF074618B3013C6B6A04EBE4
:10A8000000094FF0000805F1040A05E0E8186A6243
:10A8100013460671A14514D05A1C1F2A14F8016F63
:10A82000F4D92B44514683F8048028681FF01EFF9A
:10A8300020B96B6A002BEDD10122E7E7012200234A
:10A84000E4E7A86A3844A862BDE8F087437DDBB13D
:10A85000037D202B12D8DFE803F01F111111111115
:10A8600011111115151111151111111111111111CC
:10A87000111111111111111111111500012303737F
:10A88000002070470023437503695A1C02611B783E
:10A89000037501224275DCE7037B002B14BF022005
:10A8A000012070472DE9F04F054600798BB001ACCF
:10A8B000202884E80E005BD194E8070004AA82E80F
:10A8C0000B0007CA0AAA02E90B00DDF81C90B9F1D7
:10A8D000000F4DD028884FF6FF78404548D0149B94
:10A8E000D3F82CA0C3090AEBC30300F07F04586817
:10A8F00010EBC4003CD0089EC48806F1FF3B012742
:10A90000CB447FB9444533D0E3090AEBC30304F0D9
:10A910007F04586810EBC4002AD087F00107C48870
:10A92000002FEFD003790568042B28D0052B23D105
:10A93000E8880835B042E5D156B1013D09F1FF3351
:10A9400013F8011F15F8012F9142DBD19B45F7D178
:10A950004FF6FF739C420BD0E3090AEBC30A04F0E5
:10A960007F04DAF8040000EBC4000BB0BDE8F08F00
:10A9700000200BB0BDE8F08F002EC3D1E8E72846D9
:10A98000002DD7D029F029FFD4E700BF30B500F162
:10A990000C02034607CAD3E9014587B003AB83E83D
:10A9A00007002CB1009520460ECBFFF77BFF044635
:10A9B000204607B030BD00BF70B500F1100305465A
:10A9C00093E8070086B0AB68EE6803AC84E8070044
:10A9D0009BB10096184694E80E00FFF763FF1C3504
:10A9E000034695E8070084E8070033B1009618464F
:10A9F00094E80E00FFF756FF0346184606B070BDF8
:10AA0000F0B500F11403054693E8070087B0EB6842
:10AA10002E6903AC84E807006BB30096184694E8EF
:10AA20000E00FFF73FFF034628B30279402A21D1E9
:10AA300003884FF6FF7E73451CD0D6F82CC0286AD9
:10AA4000D9090CEBC10103F07F024B6813EBC20381
:10AA500010D0DA8818B911E00138DA880ED0D1099F
:10AA600072450CEBC10102F07F0703D04B6813EB7A
:10AA7000C703F1D10023184607B0F0BD243595E88F
:10AA8000070084E807000096184694E80E00FFF7D8
:10AA900009FF0346184607B0F0BD00BF38B50446AD
:10AAA000FFF7AEFF30B103792269202B03D0402B92
:10AAB00023D0002038BD00884FF6FF74A042F8D0A4
:10AAC000D56AC20905EBC20200F07F03506810EBA3
:10AAD000C300EFD0C2880020D309A24205EBC30314
:10AAE00002F07F0100F1010005D05B6813EBC103A8
:10AAF00001D0DA88F0E7400838BD00884FF6FF74CF
:10AB0000A042D6D0D56AC20905EBC20200F07F038D
:10AB1000506810EBC300CDD0C2880020D309A242F8
:10AB200005EBC30302F07F0100F10100C2D05B68B6
:10AB300013EBC103BED0DA88F0E700BFF0B50446DE
:10AB400087B00830FFF75CFF30B30379402B22D188
:10AB500003884FF6FF77BB421DD0A569A06BD5F8DF
:10AB60002CC0D9090CEBC10103F07F024B6813EB39
:10AB7000C20310D0DA8818B910E00138DA880DD095
:10AB8000D109BA420CEBC10102F07F0603D04B6839
:10AB900013EBC603F1D1002007B0F0BD3C3494E8BC
:10ABA000070003AC84E807000095184694E80E00FF
:10ABB000FFF778FE07B0F0BD10B50446FFF720FFA1
:10ABC00010B12169FFF7F8F910BD00BFF8B50446D0
:10ABD0000430FFF715FF28B30379402B21D10088FB
:10ABE0004FF6FF76B0421CD06169646BCF6AC20930
:10ABF00007EBC20200F07F03506810EBC30010D0D7
:10AC0000C3881CB90FE0013CC3880CD0DA09B342F9
:10AC100007EBC20203F07F0503D0506810EBC500BC
:10AC2000F1D10020F8BDFFF7C7F9F8BD2DE9F047D5
:10AC300004468CB00830FFF7E3FE20B30379402BC5
:10AC400021D103884FF6FF77BB421CD0A269A06BCD
:10AC5000D66ADA0906EBC20203F07F03526812EBF0
:10AC6000C30310D0DA8818B911E00138DA880ED0A1
:10AC7000D109BA4206EBC10102F07F0503D04B684F
:10AC800013EBC503F1D100200CB0BDE8F0873C34D4
:10AC900094E807001D796C4684E80700202D03AC7A
:10ACA00084E80700EFD194E8070006AC84E80700C9
:10ACB0000CAC04E90700DDF82480B8F1000FE2D005
:10ACC0001B884FF6FF7A5345DDD0DA0906EBC20246
:10ACD00003F07F04536813EBC403D4D04FF0010991
:10ACE0000A9FDC88B9F1000F10D15445CBD0E2099E
:10ACF00006EBC20204F07F04536813EBC403C2D016
:10AD000089F00109DC88B9F1000FEED01A791D68CD
:10AD1000042A47D0052A42D1E88808358742E4D181
:10AD20005FB108F1FF33013DDA1913F8010F15F88F
:10AD3000011F8842D9D19A42F7D14FF6FF739C4246
:10AD4000A1D0E20906EBC20204F07F04526812EBC4
:10AD5000C40099D0017920292AD0402993D132F812
:10AD6000340098428FD0C10906EBC10100F07F0288
:10AD7000486810EBC20087D0C1880020CA099942F8
:10AD800006EBC20201F07F0400F101003FF47CAF4A
:10AD9000526812EBC4023FF477AFD188EEE7002F80
:10ADA000A3D1CAE7002DFAD0284629F016FDB5E751
:10ADB00032F8340098423FF466AFC10906EBC10196
:10ADC00000F07F02486810EBC2003FF45DAFC1881D
:10ADD0001D460020CA09A94206EBC20201F07F0409
:10ADE00000F1010005D0536813EBC40301D0D988EA
:10ADF000F0E740080CB0BDE8F08700BF2DE9F04F48
:10AE000005468FB00C30FFF7FBFD30B30379402BC4
:10AE100023D103884FF6FF77BB421ED0D5F81C9094
:10AE2000E86BD9F82C60DA0906EBC20203F07F0365
:10AE3000526812EBC30310D0DA8818B911E0013858
:10AE4000DA880ED0D109BA4206EBC10102F07F04C4
:10AE500003D04B6813EBC403F1D100200FB0BDE861
:10AE6000F08F05F1400207CA1F7902AC84E80700A1
:10AE7000202F05AC84E80700EFD194E8070008AC68
:10AE800084E807000EAC04E90700DDF82CB0BBF144
:10AE9000000FE2D01B884FF6FF7A5345DDD0DA0968
:10AEA00006EBC20203F07F04536813EBC403D4D053
:10AEB0000C9FDC887A1E4FF001085A44B8F1000F4D
:10AEC00010D15445C9D0E10906EBC10104F07F045B
:10AED0004B6813EBC403C0D088F00108DC88B8F1DC
:10AEE000000FEED019791B68042946D0052941D1FD
:10AEF000D8880833B842E4D157B1013B0BF1FF3198
:10AF000011F801CF13F8010F8445DAD18A42F7D145
:10AF10004FF6FF729442A0D0E30906EBC30304F09E
:10AF20007F045B6813EBC40098D00179402994D169
:10AF300033F83400904290D0C10906EBC10100F013
:10AF40007F034868E96C10EBC30086D0C388E9B181
:10AF5000154602E00139C38818D0DA09AB4206EB86
:10AF6000C20203F07F043FF478AF506810EBC400D6
:10AF7000F0D172E7002FA4D1CAE76BB11846019255
:10AF8000009329F02AFCDDE90032B3E74946FFF7D8
:10AF900013F80FB0BDE8F08F1846ABE72DE9F04786
:10AFA000456A6B1C1F2B04460E46174600F227818C
:10AFB000A91C60192222636202710120A26A024464
:10AFC000A26257B306EB07084FF0000904F1040A28
:10AFD00016F8017B9C4A222501E0157955B3517979
:10AFE000B94202F10202F8D15F1C1F2F00F2E1808A
:10AFF0001A46023322445C21676201201171A26A61
:10B000001F2B1044A06200F2C680591C27446362C3
:10B0100001303D71A0624645DAD11F2900F2E3807C
:10B020002344222261621A71A36A01200344A362AD
:10B03000BDE8F0876FB15A1C1F2A3AD8991C1D46EB
:10B0400013466019636201250771A26A2A44A2624D
:10B05000E1E75A1C1F2A00F28E80E1185C20626230
:10B06000023308711F2B75D8A118752063625A1C12
:10B0700008711F2A5DD8234430206262511C187168
:10B080001F2945D8A318302061624A1C18711F2A55
:10B090002DD8214430206262531C08711F2B17D811
:10B0A000591C2244302063621071A26A0632A262E7
:10B0B000B1E7234451461D7120681FF0D7FA20B92B
:10B0C000636A0BB1591CC0E71D4602210123B8E792
:10B0D0002244514682F8049020681FF0C7FA0028E5
:10B0E00074D1636A002B00F0A380591CDDE763185C
:10B0F000514683F8049020681FF0B8FA18B9626AC4
:10B100000AB1531CCAE73023237101220223C7E787
:10B110002244514682F8049020681FF0A7FA18B91B
:10B12000616A09B14A1CB2E730232371022201216E
:10B13000AFE72344514683F8049020681FF096FA45
:10B1400018B9626A0AB1511C9AE7302323710221AF
:10B15000012297E72244514682F8049020681FF0AC
:10B1600085FA18B9636A0BB15A1C82E775232371FB
:10B17000022201237FE7234451461F7120681FF0FC
:10B1800075FA18B9626A0AB1531C6BE75C23237124
:10B190000122022368E72744514687F8049020687B
:10B1A0001FF064FAD0B9D4E90930002B44D0591CFF
:10B1B00030E72344514683F8049020681FF056FA84
:10B1C00040B9676A002F3BD07B1C18E7022101239E
:10B1D000002266E70223012700220BE7A06A022172
:10B1E0000123002712E72344002521461D7151F851
:10B1F000040B1FF03BFA98B12B46012110E72844BD
:10B2000021460025057151F8040B1FF02FFA20B9D3
:10B21000636A0BB1591CD1E61D4602210123C8E621
:10B22000636A002BE9D0A36A0344A362BDE8F087F8
:10B230001A460221012334E71F4602210123E5E6D5
:10B240003A4602230127D5E6B86905002DE9F04FFB
:10B25000437D85B00446002B00F00581057DDFF8B5
:10B2600030B30022134662750092CBB1267D0023D5
:10B27000AE4263751DD0002E00F0F1805C2E20D010
:10B2800067686FB1A168FB88994200F0B8800F44ED
:10B290000131A1603E72637DE7E7C2F309030093C9
:10B2A00023695A1C22611E7826750023AE426375FD
:10B2B000E1D16368002B14BF0020042005B0BDE875
:10B2C000F08F2269511C2161117821750120607570
:10B2D000002900F0C480752910D0AB4A2F2304E068
:10B2E00012F8023F002B00F0B6809942F8D1567850
:10B2F000002E00F0B08000236375C1E7911C6375D8
:10B300002161537823756075002B00F0A880402BD5
:10B3100086BF23F02003A3F13701A3F13001C8B2A7
:10B320000F2800F298800021D31C61752361917869
:10B33000217501236375002900F09180402986BFA3
:10B3400021F0200137393039C9B20F2900F283804A
:10B350000026131D66752361D3782375012641EA03
:10B3600000116675002B7AD0402B86BF23F0200396
:10B37000373B303BDBB20F2B6DD800206075501D82
:10B3800020611279227543EA011301211BB2617514
:10B39000002A64D0402A86BF22F02002373A303A91
:10B3A000D2B20F2A57D842EA03139AB202F52051BB
:10B3B00089B20020B1F5806F1BB26075FFF46DAFEC
:10B3C00002F5105189B2B1F5806F56D37F2A40F251
:10B3D000A88003F03F0363F07F03B2F5006F8DF8A0
:10B3E00009308DF808004FEA921380F0B38063F0C3
:10B3F0003F03DFB28DF80A700DF10B0860E0D4F85E
:10B4000000A04900DAF8009001F10108B8F5803F8A
:10B41000D9F8003012D29B685C4A934201F10A01CC
:10B4200040F09380384629F06BF928B1A0F80680E7
:10B43000A168606007462AE7D9F800305B685B4581
:10B4400017D138461FF00AFA01238AF80430002287
:10B45000637D626009E7032005B0BDE8F08F02203C
:10B4600005B0BDE8F08F03695A1C02611D780575AF
:10B47000F5E6394648469847E6E7C2F30903009ADD
:10B480008DF8080043EA822303F58032C2F30531C8
:10B49000C2F3874242F0F00703F03F02C3F3851383
:10B4A00061F07F0162F07F0263F07F038DF80B1083
:10B4B0008DF80C708DF809208DF80A300DF10D080B
:10B4C00008F1FF3808E01E440133A360377218F812
:10B4D000017D002F3FF4DFAE6668002EF7D0A36831
:10B4E000F2889342EFD15A00D4F800A002F101098A
:10B4F000B9F5803FDAF8003019D21968886802F18E
:10B500000A01224A9042844636D13046019329F0FE
:10B51000F7F8019B58B1A0F80690A3686060064652
:10B52000D1E7D9B22046FCF7C7FA637D9DE61A68D9
:10B5300052685A451CD130461FF090F900234FF055
:10B5400001028AF804206360C1E70A46484639468A
:10B5500098476AE703F03F029B1162F07F0243F0D5
:10B56000E0078DF80A208DF80B700DF10C08A7E7A5
:10B57000314618469047E1E70A461846019331469E
:10B5800063469847019BC5E7B8690500AD750200A1
:10B59000B57502002DE9F04F427D8DB004460D4691
:10B5A000002A77D0027D202A12D8DFE802F07B1132
:10B5B000111111111111117171111171111111115B
:10B5C000111111111111111111111111111171001C
:10B5D00001217B2A217300F293815A2A41D9A2F1D9
:10B5E0005B01202900F28C81DFE811F0FA008A016A
:10B5F0008A018A018A018A018A018A018A018A01F3
:10B600008A014F018A018A018A018A018A018A011D
:10B610008A0121008A018A018A018A018A016D0159
:10B620008A018A018A018A018A018A016400B74974
:10B63000134600200125934240F0A48111F8013FF8
:10B640006075002B00F0BA812269561C26611278C1
:10B6500022756575002AEED1022630460DB0BDE890
:10B66000F08F222A02D0272A40F04A816368002204
:10B67000A260002B00F0A9812046FFF7E7FD0646F7
:10B68000A0B92046FCF7BAF9052328602B710DE01C
:10B69000002262752269511C2161127822750121F4
:10B6A000617580E7237B002BD6D1012630460DB093
:10B6B000BDE8F08F5FFA83FA20224FF0FF332A7142
:10B6C0002B60BAF1000F00F07E81002363752046E5
:10B6D000FFF7BCF806460028E8D1637D002B00F098
:10B6E0002282237D7D2B00F0CD8001964FF0000B50
:10B6F0005646A8466368C4F808B0002B00F076826E
:10B70000637D002B00F01782217D272900F01D8228
:10B71000222900F01A822F2900F22B81A1F1410386
:10B72000192B00F22F81012584F815B02046FCF773
:10B73000C3F9637D002B00F0B482217D2F29A1F194
:10B74000410300F26382192BEED96368002B00F0ED
:10B7500096822046FFF77AF8002840F0FC81637D4E
:10B76000002B00F03B82237D3A2B40F00B81D4E983
:10B770000132134484F815B083F808B0B8F80030EB
:10B780004FF6FF794B4500F09281A2690592D2F8FD
:10B790002CA0D9090AEBC10103F07F024B6813EB1F
:10B7A000C20300F084816268A1680292DF88424689
:10B7B0000125A0460C461146002D40F03F814F4523
:10B7C00000F07381FA090AEBC20207F07F075368A1
:10B7D00013EBC70300F06981DF8885F00105EBE713
:10B7E000DFB240224FF0FF332A712B60002F00F0B0
:10B7F000EA80002363752046FFF728F806460028F4
:10B800007FF454AF637D002B00F08581237D5D2B99
:10B8100038D0013F4FF6FF784FF00109D4F818A057
:10B8200008A85146FBF70CFF0899002900F0278271
:10B830006B88BDF82420434500F0C181DAF82C0064
:10B840004FEAD31C00EBCC0003F07F03406800EB11
:10B85000C303DA806A803B464FF000022046FFF7C0
:10B8600099FE002840F077812046FEF7EFFF002880
:10B8700040F07181637D002B00F0A881237D5D2B5A
:10B8800040F090810023637510E700232B70637DE7
:10B8900006212971002B00F08D81237D1C49002B8E
:10B8A0003FF4DAAE9A426DD111F8012F002363758F
:10B8B000002A00F083802369581C20611B782375BF
:10B8C00001206075EBE701232B70637D0621297150
:10B8D000002B00F06D81237D0E49002B3FF4BCAEA0
:10B8E0009A424FD111F8012F00236375002A65D0C9
:10B8F0002369581C20611B78237501206075ECE7D3
:10B9000000231F4604F11B01012619E0DC69050034
:10B91000D4690500CC690500392A03D902F0DF009B
:10B92000452815D13F2B03F1010011D0677501F8AF
:10B93000012F2269C3B2501C2061127822756675EE
:10B940002F2AE9D82B2AA2F12D00EBD00128E9D922
:10B95000234400221A7704F11C0108A8FCF766F9B9
:10B960009DF82060731E032B0CD8DFE803F04F55C1
:10B97000401039297FF6D7AE5E297FF6CFAE7A29FF
:10B980007FF6D1AE032630460DB0BDE8F08FDDE97D
:10B990000A894946404627F00FFD824627F0D2F932
:10B9A00002460B464046494627F08CFC07460028D5
:10B9B00000F036810E23C5F800A02B71002630461A
:10B9C0000DB0BDE8F08F052670E62668BA4A3068EB
:10B9D00003681B68934240F0548128201EF024FF26
:10B9E000002800F0E980B54B4360606044E6DDE983
:10B9F0000A89B9F1010F08BFB8F1000F80F030815A
:10BA00000A23C5F800802B7100264FE60A9A2A60A7
:10BA10000E232B71002649E6DDE90A7A17F100486A
:10BA20004AF10009B9F1010F08BFB8F1000F80F029
:10BA300008810C232F602B71002637E61A791B68CA
:10BA4000042A00F0A380052A00F08780002C7FF4F0
:10BA5000B6AE4FF6FF739F424446884627D0FB0997
:10BA60000AEBC30A07F07F07DAF8043013EBC707C5
:10BA70001DD005993846FCF769F83946731E4FF01A
:10BA800000022046FFF786FD002864D12046FEF71D
:10BA9000DDFE00285FD1637D002B00F01581237D42
:10BAA0007D2B40F0F180019EECE64446884620461E
:10BAB000FBF7A4FFD4F818A08146514606A8FBF76F
:10BAC000BFFD069D002D00F0DA80514608A8FBF767
:10BAD000B7FD089F002F00F0D280BDF82420EA8037
:10BAE000B8F80230C5F800904FF6FF700521834288
:10BAF0002971BDF81C1000F0F580DAF82C00DD0982
:10BB000000EBC50003F07F03406800EBC303D9805E
:10BB1000A8F80220B1E723695A1C22611B7823751B
:10BB20000122627573E623695A1C22611B78237512
:10BB300001226275D6E523695A1C226119782175A4
:10BB40000123272963757FF4E3AD2046FFF77EFBD1
:10BB500000283FF4FEAD0646A8E5D88803F10802A8
:10BB600084427FF42CAE002C3FF473AF029B07336A
:10BB7000013A03EB040E02E09E453FF46AAF13F86E
:10BB800001CF12F8010F8445F6D018E6002B00F023
:10BB90008F8018460491039328F01FFE039B04999D
:10BBA0001A46DDE72C2B7FF4EDAE0023637535E6F6
:10BBB00043499DE643497EE60123337115E700239F
:10BBC00062F30F0362F31F432B6044E623695A1CA0
:10BBD00022611B78237584F8159050E623695A1C5E
:10BBE00022611B78237501226275BDE52568324A02
:10BBF000286803681B68934271D128201EF014FE48
:10BC0000002869D02D4B4360606079E539297FF6C3
:10BC10008BAD5E297FF697AD7A297FF685AD94E5E9
:10BC2000A16906A8FBF7F0FD069B002B3FF43EAD93
:10BC3000BDF81C202A801E2129713E46C3E90089D7
:10BC400034E5A16906A8FBF7DFFD069BBBB1BDF893
:10BC50001C202A801C2129710026C3E9007A25E5D1
:10BC6000A16906A8FBF7D0FD069B43B1BDF81C20D7
:10BC70002A801A2129710026C3E9008916E50426C5
:10BC800014E528219847ABE62C2B7FF47BAE84F893
:10BC900015B02046FEF7DAFD00283FF42BAD06462E
:10BCA00004E523695A1C226119782175657545E5FB
:10BCB000002C3FF4CEAE82E5BD75020001001F00EE
:10BCC000CC690500D469050023695A1C22611B78E0
:10BCD000237501226275E3E601232B7194E7282185
:10BCE00098478DE7A8F80010A8F80220C5E600BF25
:10BCF0002DE9F04F038E9BB00746044657F80CBB66
:10BD0000ADF80420884600F1380903B30026C36A61
:10BD1000B2460BE01EF0A2FDE36AC5F800A0208E3B
:10BD2000C5F804A00136B1B2884211D9B5B203EB0F
:10BD3000C505696808460029EFD0DBF80030564A8F
:10BD40005B689342E6D058469847E36AE5E7C36AE2
:10BD500000204FF6FF719F422086A1860CD0DBF8B1
:10BD600000104D4D4E68AE4240F0888018461EF0DF
:10BD700075FD0423E7626386A168266800232371AA
:10BD800061B1454D33680A685B68A260AB42084602
:10BD900062D11EF063FDA1680029F3D1002584F86B
:10BDA0003C509DF805308DF8185049464FF0000280
:10BDB00003A8CDE904558DF821500394CDF81C80DB
:10BDC0000994FFF7E7FB054618B99DF82050002DB0
:10BDD00048D1049840B1039B2F491A6813685B68E7
:10BDE0008B424FD11EF03AFD268ED4F80080DEB192
:10BDF000D4F82CA0D8F80030284A9B6806F10056E9
:10BE0000013E0AEBC6099342B9F80210D9F80400C2
:10BE10004FEAC1012DD128F073FC28B1B9F80230E6
:10BE2000C9F804002AF83630E06A874210D0218E23
:10BE3000638E8B420CD0D8F80030184A9B6893422E
:10BE40004FEAC10122D128F05BFC238EE0626386B9
:10BE500028461BB0BDE8F08F30469847A1680029FE
:10BE600090D19BE794F83C5015F0080518BF0325C6
:10BE7000AFE70A46014640469847CEE7194658467E
:10BE8000B04776E7014610469847ADE70A460146B7
:10BE900040469847D9E700BFB5750200AD7502006E
:10BEA0002DE9F04F57EC106B89B00446894610EE2F
:10BEB000100A00220023394627F004FA002845D151
:10BEC00032463B4605463946304626F0DDFD024601
:10BED0000B463046394627F0F5F930B3626A531CF9
:10BEE0001F2B00F2EF8222446E21636211715A1CF3
:10BEF0001F2A00F2D5822344752162621971551CF4
:10BF00001F2D00F2BF8222446C21656211716A1CF0
:10BF10001F2A00F2AA8263196C2162621971A36A56
:10BF20000433A36209B0BDE8F08F0022002330463D
:10BF3000394627F0D1F948B12D212046FBF742FDC3
:10BF4000A36A07F1004B18445F46A0624B460125E7
:10BF5000B9F1000F05D005EB8505013B4FEA45051A
:10BF6000F9D10FF20843D3E900233046394627F0D0
:10BF7000C7F9002800F0FA80FEA3D3E90023304679
:10BF8000394627F0BDF9002840F032838246FBA3F2
:10BF9000D3E900233046394627F0B2F9002840F0B3
:10BFA0001983F8A3D3E900233046394627F0A8F9CE
:10BFB000002840F00183F5A3D3E900233046394639
:10BFC00027F09EF9002840F0E982F2A3D3E900238C
:10BFD0003046394627F094F9002840F0D182EFA38B
:10BFE000D3E900233046394627F08AF9002840F08B
:10BFF000B982ECA3D3E900233046394627F080F913
:10C00000002840F0A182D44B00223046394627F068
:10C0100077F9002840F08A82D04B0022304639461A
:10C0200027F06EF9002840F073823046394627F039
:10C03000A3F90928804610D9C9490346A1FB052563
:10C040001A4609F1FF39A1FB0303632A4FEAD5051C
:10C050004FFA89F94FEAD303F0D8404626F050FE54
:10C0600002460B463046394626F00CFD0646284669
:10C070000F4626F045FE02460B463046394626F06E
:10C08000B9FE06460F4627F077F9834626F038FEBC
:10C0900002460B463046394626F0F4FC02460B4673
:10C0A00026F0F2FC27F068F90BEB0006AE42C0F078
:10C0B000BF8108F10108BAF1000F40F0CB810026E2
:10C0C000B9F1000F13DDA64BA64802E0002A00F0EC
:10C0D000BB81A3FB0626F60803FB06F109F1FF3935
:10C0E000B0EB710F5FFA89F24FFA89F9EED20DF1D8
:10C0F0001E0B9B495D46A1FB0832D20802EB82036E
:10C10000A8EB43034046303309282F46904605F8F4
:10C11000013DF0D8BBEB050800F0A680013D05EB22
:10C120000803211D606A0093023F01960D4609E055
:10C1300004EB000C626210468CF80460009BBB426A
:10C1400000F09180421C1F2A17F8016FF0D920449B
:10C150004FF000030371206829461EF087FA00287B
:10C160007ED1606A0028E9D10122E1E700220023A4
:10C170003046394627F0CEF800286FD064A3D3E9C3
:10C1800000233046394627F0B1F8002866D062A374
:10C19000D3E900233046394627F09EF8002840F0C6
:10C1A000DB8282465EA3D3E900233046394627F07E
:10C1B00093F8002840F0C2825BA3D3E90023304605
:10C1C000394627F089F8002840F0AA8258A3D3E91D
:10C1D00000233046394627F07FF8002840F092824D
:10C1E00055A3D3E900233046394627F075F80028D7
:10C1F00040F0438252A3D3E900233046394627F06A
:10C200006BF8002840F02B824FA3D3E9002330467F
:10C21000394627F061F8002840F013824CA3D3E997
:10C2200000233046394627F057F8002840F0FC81BB
:10C230004D4B00223046394627F04EF800283FF497
:10C24000F4AE30463946454B002226F0D3FD0AF1C4
:10C25000FF3A06460F460FFA8AFAE6E68246E4E619
:10C260000122002064E7019EA26A08EB0203A36298
:10C27000B9F1000F40F09A80BAF1000F3FF452AECE
:10C2800065212046FBF79EFBA66ABAF1000F064423
:10C29000A662C0F228811FFA8AFA314F5946A7FBDD
:10C2A0000A32D20802EB8203AAEB43035046303332
:10C2B00009280D461FFA82FA01F8013DEFD8BBEBC1
:10C2C000010B00F020810139636A01EB0B06023D8E
:10C2D000002704F1040907E0E0186262134680F8C1
:10C2E0000480B54200F00E815A1C1F2A15F8018FF8
:10C2F000F2D9234449461F7120681EF0B7F900287F
:10C3000040F0FD80636A002BEBD10122E4E700BF1F
:10C31000F168E388B5F8E43E148BD77DB207FE0AD6
:10C32000C2DEB781455491250CD13196FC53DA32E7
:10C3300080688965D63980391656E79EAF03D23CAE
:10C3400048AFBC9AF2D77A3EFCA9F1D24D62503F79
:10C350009A9999999999B93F000059400000244051
:10C36000CDCCCCCC999999190000F03F0000000089
:10C37000D01263413CBF737FDD4F1575321D30F91C
:10C380004877825AF5F93FE9034F384D176E05B5E6
:10C39000B5B893460080E03779C341430000000000
:10C3A00084D79741000000000088C34009F1FF399D
:10C3B0005FFA89F908ABA3EB090106AFCE4D093945
:10C3C0003A46A5FB0603DB0803EB8300A6EB400619
:10C3D000303602F8016D8A421E46F2D108ABA3EB5B
:10C3E0000902A7EB09072E21033F09F1020902F810
:10C3F0000A1C636A07EB09050026211D06E0E01808
:10C400006262134680F80480BD421FD05A1C1F2A66
:10C4100017F8018FF3D9234400911E7120681EF094
:10C4200025F9009968B9636A002BEDD10122E6E78E
:10C43000B14BB24A03FB06F3B2EB730FBFF440AE4D
:10C4400055E601220023DAE7914650E6A36A4B4401
:10C45000A36211E7B8F1090F7FF631AE0AF1010AC4
:10C460000FFA8AFA4FF0010829E6631921460025E0
:10C470001D7151F8040B1EF0F9F8002800F0CF8070
:10C48000012248E5224400252146157151F8040B8C
:10C490001EF0ECF8002800F0BD802A46012532E5A8
:10C4A0002344002521461D7151F8040B1EF0DEF8CF
:10C4B000002840F0AC80626A002A7FF420AD134669
:10C4C000012218E522442146157151F8040B1EF093
:10C4D000CDF8002840F09880636A002B7FF407AD08
:10C4E0001A460123FFE42D212046FBF76BFAA66ACA
:10C4F000CAF1000A06441FFA8AFAA662CDE60122B2
:10C500000023E9E6A66A5E44A66209B0BDE8F08FA2
:10C510003046394660A3D3E9002326F06BFC0AF1CC
:10C52000010A06460F460FFA8AFA7EE5304639467A
:10C530005BA3D3E9002326F05DFC0AF1020A06465C
:10C540000F460FFA8AFA67E53046394656A3D3E913
:10C55000002326F04FFC0AF1040A06460F460FFAA4
:10C560008AFA50E53046394651A3D3E9002326F034
:10C5700041FC0AF1080A06460F460FFA8AFA38E526
:10C58000304639464CA3D3E9002326F033FC0AF1A8
:10C59000100A06460F460FFA8AFA20E53046394659
:10C5A00047A3D3E9002326F025FC0AF1200A06461A
:10C5B0000F460FFA8AFA08E53046394642A3D3E916
:10C5C000002326F017FC0AF1400A06460F460FFA30
:10C5D0008AFAF0E4304639463DA3D3E9002326F039
:10C5E00009FC0AF1800A06460F460FFA8AFAD8E4D7
:10C5F0003046394638A3D3E9002326F0FBFB4FF43D
:10C60000807A06460F46C2E42A4601236BE42B4695
:10C61000012270E4656A002D7FF479AC3DE7656A1C
:10C62000002D7FF47CAC2BE730463946344B00229A
:10C6300026F0E0FBAAF1020A06460F460FFA8AFA34
:10C64000F6E53046394626A3D3E9002326F0D2FB8F
:10C65000AAF1040A06460F460FFA8AFADEE53046CA
:10C66000394621A3D3E9002326F0C4FBAAF1080A26
:10C6700006460F460FFA8AFAC6E5304639461CA32D
:10C68000D3E9002326F0B6FBAAF1100A06460F46AE
:10C690000FFA8AFAAEE500BF9A9999999999B93F2C
:10C6A0007B14AE47E17A843F2D431CEBE2361A3F00
:10C6B0003A8C30E28E79453EBC89D897B2D29C3C08
:10C6C00033A7A8D523F649393DA7F444FD0FA53279
:10C6D0009D978CCF08BA5B25436FAC642806C80AC7
:10C6E000000000000088C3400000000084D797418C
:10C6F0000080E03779C34143CDCCCCCC99999919CE
:10C70000000059403046394619A3D3E9002326F0EA
:10C7100071FBAAF1200A06460F460FFA8AFA5FE576
:10C720003046394614A3D3E9002326F063FBAAF16F
:10C73000400A06460F460FFA8AFA47E53046394660
:10C740000FA3D3E9002326F055FBAAF1800A064681
:10C750000F460FFA8AFA2FE5304639460AA3D3E985
:10C76000002326F047FB6FF0FF0A06460F4619E547
:10C77000176E05B5B5B89346F5F93FE9034F384D47
:10C78000321D30F94877825A3CBF737FDD4F1575F3
:10C790002DE9F04F03790C4613F0100187B00546E0
:10C7A00051D001884FF6FF70814200F02882D26A92
:10C7B000C80902EBC00201F07F01526802EBC1021E
:10C7C000033B3D2B41D8DFE813F0670090009E004B
:10C7D000A600400040004000B0004000F6004000CD
:10C7E0006501400040004000400040004000400023
:10C7F0004000400040004000700140002B0140001C
:10C800005D014000B4014000400040004000400095
:10C810004000400040004000400040004000400018
:10C820004000400040004000400040004000400008
:10C8300040004000400040004000400040004000F8
:10C8400040004000DF010A46BAE7626A551C1F2D0E
:10C8500000F2108222446E21656211716A1C1F2A47
:10C8600000F2F8816319752162621971551C1F2D40
:10C8700000F2DB8122446C21656211716A1C1F2A5F
:10C8800000F2C48163196C2162621971A06A0430DC
:10C89000A06207B0BDE8F08F2E68F588002D00F08B
:10C8A000B9800736636A06EB05094FF0000804F10A
:10C8B000040A06E0E018626213460771B14500F011
:10C8C000A9805A1C1F2A16F8017FF3D92344514628
:10C8D00083F8048020681DF0C9FE002840F08C8198
:10C8E000636A002BEAD10122E4E72D68002D00F0F5
:10C8F000D181284627F071FF024620462946FEF7DF
:10C900004DFBA06AC5E729682046CA880831FEF7B2
:10C9100045FBA06ABDE72B78002B40F07281CB4924
:10C920002046FDF761FFA06AB3E7D5F800B00DF12E
:10C9300016052F460026584631460A22002326F0C7
:10C940008BFD02F1300C584631460A220023BA46CC
:10C9500007F801CD26F080FDB146D846B9F1000FA9
:10C9600008BFB8F10A0F83460E46E4D2ED1B51D042
:10C97000013F636A2F44AAF1020A002604F1040968
:10C9800006E0E0186262134680F80480574541D003
:10C990005A1C1F2A1AF8018FF3D9234449461E71E5
:10C9A00020681DF063FE002840F02081636A002BA0
:10C9B000ECD10122E5E72E68002EC0F26D81F71759
:10C9C0000DF11605A846304639460A22002326F006
:10C9D00043FD3032002330463946C14608F8012D68
:10C9E0000A2226F039FD3B463246002B08BF0A2AB0
:10C9F00006460F46E7D2B5EB08050BD008F1FF3825
:10CA0000A844A9F1020919F8011F2046FAF7DAFF34
:10CA1000C845F8D1A06A2844A06207B0BDE8F08FED
:10CA2000D2E90067002E77F10003C0F241810DF1D9
:10CA30001605A846304639460A22002326F00CFD8A
:10CA40003032002330463946C14608F8012D0A220B
:10CA500026F002FD3B463246002B08BF0A2A064656
:10CA60000F46E7D2B5EB0805D4D008F1FF38A8444B
:10CA7000A9F1020919F8011F2046FAF7A3FFC845DA
:10CA8000F8D1C7E7204692ED000B0921FFF708FA1D
:10CA9000A06AFEE6286826F055F941EC100B204606
:10CAA0000621FFF7FDF9A06AF3E6D2E9006B0DF16C
:10CAB00016052F46304659460A22002326F0CCFCA4
:10CAC00002F1300C304659460A220023BA4607F8D4
:10CAD00001CD26F0C1FCD946B046B9F1000F08BF20
