:020000022000DC
:107000000000042011E7040051E7040053E70400E6
:1070100055E7040057E7040059E7040000000000AA
:1070200000000000000000000000000029E604004D
:107030005DE704000000000049E6040061E7040089
:107040006DE9040063E7040063E70400C17803000E
:107050007579030063E7040031BD040063E70400B1
:1070600063E7040063E7040063E7040063E70400E8
:1070700063E7040063E7040063E7040063E70400D8
:1070800063E7040079E3040063E7040063E70400B6
:1070900063E7040063E70400F596040063E7040077
:1070A00063E7040063E7040063E7040063E70400A8
:1070B00063E7040063E70400000000000000000034
:1070C00063E7040063E7040063E7040081EE040063
:1070D00063E7040063E7040063E70400F9B6030014
:1070E00063E7040063E7040063E7040000000000B6
:1070F0000000000063E7040000000000F9EE040057
:10710000000000000000000000000000000000007F
:10711000000000000000000000000000000000006F
:10712000000000000000000000000000000000005F
:10713000000000000000000000000000000000004F
:10714000000000000000000000000000000000003F
:10715000000000000000000000000000000000002F
:10716000000000000000000000000000000000001F
:10717000000000000000000000000000000000000F
:1071800000000000000000000000000000000000FF
:1071900000000000000000000000000000000000EF
:1071A00000000000000000000000000000000000DF
:1071B00000000000000000000000000000000000CF
:1071C00000000000000000000000000000000000BF
:1071D00000000000000000000000000000000000AF
:1071E000000000000000000000000000000000009F
:1071F000000000000000000000000000000000008F
:10720000F1EE103A43F08073E1EE103A704700BFA0
:1072100010B5054C237833B9044B13B10448AFF3D0
:1072200000800123237010BD8C630020000000004B
:10723000CCC4050008B5034B1BB103490348AFF3A9
:10724000008008BD0000000090630020CCC4050051
:10725000154B002B08BF134B9D46A3F5803A002128
:107260008B460F461348144A121A2DF0CFFC0F4BD1
:10727000002B00D098470E4B002B00D098470020E1
:10728000002104000D000D48002802D00C48AFF387
:1072900000802DF051FC2000290027F091FA2DF0FC
:1072A00025FC00BF000008000000042000000000D2
:1072B000000000008C630020149F002000000000EC
:1072C0000000000010B5134800F0D0FE114807F090
:1072D00033FD114B1868002802DB022128F0DAFA8E
:1072E0000E4C2068002809DB012128F0D3FA206821
:1072F000012128F053FB0A4B00221A70054801F0C7
:10730000E5F808480BF0B2FABDE8104005480BF06C
:10731000B5BA00BFAC6300201460002018600020E4
:1073200092660020A8630020044B054893F90030C2
:10733000022B01D00CF00CBF0DF004B8F463002058
:10734000A863002008B5044800F08EFEBDE80840A0
:1073500002480BF089BA00BFAC630020A86300208C
:1073600010B511460F481A461C462DF027FC0E4B4F
:1073700093F90030012B06D10C4B93F90020012A20
:1073800004BF02221A7020460DF0A8F808490B78B5
:1073900003B910BD074BBDE81040186814221FF058
:1073A0000BBC00BF8C6900204664002047640020AD
:1073B000EC690020AC660020134B002270B5134D21
:1073C0001A601C4603F114065A609A60DA601A616A
:1073D00005E0B4420AD022F0F5FF04F8010B28467C
:1073E00022F0A0FF03462846002BF2D114200DF016
:1073F00075F807490B7803B970BDBDE870400348C4
:10740000142223F0B9B900BF8C690020B0670020B6
:10741000EC69002010B584B004460849684621F0A4
:10742000E5FB6946204621F0A1FB684621F0BEFB42
:10743000034B2360204604B010BD00BF68800500E8
:10744000E880050010B5054C2046FFF7E3FF204615
:10745000034A0449BDE810402CF094BEC8630020E4
:1074600000600020197502002DE9F04186B0244922
:10747000244FDFF8A080044602A821F0B7FB582073
:1074800027F0DEF901261423122202A900960546F0
:107490001FF092FA02A83D6021F088FB1A4902A869
:1074A00021F0A4FB582027F0CBF91423082202A9CD
:1074B000009605461FF080FA02A8C8F8005021F097
:1074C00075FB124B002220461A6021F033FB10B1ED
:1074D00006B0BDE8F081D8F800000D4932461FF033
:1074E000DBFAD8F8000003689B6898470028EFD1C2
:1074F000386803689B68984706B0BDE8F08100BF14
:1075000090800500AC660020B8800500E063002094
:1075100061730200B066002010B5044B044640F8C9
:10752000083B21F043FB204610BD00BF789B0500BF
:10753000BFF34F8F0549064BCA6802F4E06213435C
:10754000CB60BFF34F8F00BFFDE700BF00ED00E051
:107550000400FA05084624F0E3BD00BF08461146C2
:107560002EF0FEB9084624F0F5BD00BF2DE9F0412C
:107570008B8E4FF6FF72934282B00C46054616D0B2
:10758000CA6AD90902EBC10203F07F01526832F8DE
:107590003100A08602EBC10200204FF6FF7110718E
:1075A00028462A60AB80D18002B0BDE8F081098E08
:1075B0002768002932D1638E002B00F085800123DB
:1075C000E66A5A4A23864FF480604FF080083B6891
:1075D0001B68934274D124F0A3FD238EE76A706088
:1075E000013B9BB207EBC30100284A6808BF4FF07C
:1075F00000080020A6F80080708022B137F83360C0
:10760000488886422ED8012100224FF6FF73284673
:1076100021712A60AB8002B0BDE8F081E66A4B1EA2
:107620009BB206EBC30E3046DEF804202AB1BEF84A
:1076300002C036F83380E0451CD8638E994223D0CF
:107640003A4A4B1C9BB2B3F5007F00EBC106238680
:1076500015BF4FF480604FF47E704FF080084FF0FC
:107660007F08B4E700EBC313441C9BB202EBC002DB
:107670004C8091E70CEBC3130CF101019BB202EBC0
:10768000CC02AEF8021087E7B3F5007FBBD004F15F
:107690000C025B0096421FFA83F83B6816D0244820
:1076A0009B6883424FEAC80135D130462EF058F925
:1076B0000028A8D01D4A218EE062A4F83280C0E7DD
:1076C00001463846984788E7E66AE0E7174A1B68AC
:1076D000019293424FEAC80022D124F021FD019A81
:1076E000002890D0D6F800C07168B368D6F80CE0D6
:1076F000C0F80CE0C0F800C041608360D6F810C04C
:107700007169B369D6F81CE0C0F81CE0C0F810C07D
:1077100041618361CFE70A46384631469847C7E75B
:10772000014638469847019ADAE700BF55750200CE
:107730005D7502002DE9F0418B8E4FF6FF7293428A
:1077400082B00C46054611D0CA6AD90902EBC102C3
:1077500003F07F01526832F83100A08602EBC102CB
:1077600028462A60AB8002B0BDE8F081098E276808
:10777000002932D1638E002B00F085800123E66A58
:10778000594A23864FF480604FF080083B681B689D
:10779000934274D124F0C4FC238EE76A7060013BED
:1077A0009BB207EBC30100284A6808BF4FF00008EE
:1077B0000020A6F80080708022B137F83360488836
:1077C00086422ED8012100224FF6FF7328462171F0
:1077D0002A60AB8002B0BDE8F081E66A4B1E9BB226
:1077E00006EBC30E3046DEF804202AB1BEF802C014
:1077F00036F83380E0451CD8638E994223D03A4A4C
:107800004B1C9BB2B3F5007F00EBC106238615BF6E
:107810004FF480604FF47E704FF080084FF07F0887
:10782000B4E700EBC313441C9BB202EBC0024C80D4
:1078300096E70CEBC3130CF101019BB202EBCC02F7
:10784000AEF802108CE7B3F5007FBBD004F10C0258
:107850005B0096421FFA83F83B6816D023489B686A
:1078600083424FEAC80135D130462EF079F800281E
:10787000A8D01D4A218EE062A4F83280C0E70146FC
:107880003846984788E7E66AE0E7174A1B6801929E
:1078900093424FEAC80022D124F042FC019A00280A
:1078A00090D0D6F800C07168B368D6F80CE0C0F884
:1078B0000CE0C0F800C041608360D6F810C0716968
:1078C000B369D6F81CE0C0F81CE0C0F810C04161F4
:1078D0008361CFE70A46384631469847C7E70146F5
:1078E00038469847019ADAE7557502005D7502003F
:1078F00070B5456A6A1C1F2A04460E4604D86319EF
:1079000062621E71012070BD4319014600251D7180
:1079100051F8040B24F026FB08B10122EFE7656A59
:10792000002DFAD070BD00BF2DE9F843074640682E
:10793000BD68032D884600F1080613D85FFA85FC60
:10794000002D77D00CF1FF3456FA84F4C31D0022C9
:1079500013F8011F002908BF42F00102A342F7D12A
:10796000002A40D000237355D7F80090BE68D9F89C
:107970000830A3B106F1070C8444DA8896420BD193
:107980003EB3C21DDC1D01E0944522D012F8011F58
:1079900014F8015FA942F7D01B68002BEDD1B6F5B2
:1079A000803F7D68D9F8004034D2236828489B681E
:1079B000834206F1090140D128462DF0D1FF03464C
:1079C00043B33A68DE809168196000219360796062
:1079D00002E09A8801329A800522C8F8003088F8BF
:1079E0000420BDE8F883022388F80430037A88F87D
:1079F0000030BCF1010F08D0437A88F80130BCF1A7
:107A0000020F02D0837A88F80230002308F805308C
:107A1000BDE8F88323680F4A5B68934213D0294678
:107A2000204698473A6800239268012189F804109B
:107A30001A60FFDE02230B71E7E70A46204629465B
:107A400098470346BCE7284624F084FBEAE700BFDA
:107A50005D750200657502002DE9F04745684DB17E
:107A60008368EA88934204460E4605D01D440133DC
:107A7000A3602E72BDE8F0875B00D0F800905F1C19
:107A8000B7F5803FD9F8008012D2D8F80020154908
:107A9000D2F808A08A4503F10A021CD111462846F3
:107AA0002DF05EFF20B1C780A36860600546DDE76A
:107AB000D8F800300C4A5B68934208D1284624F07D
:107AC00049FB0122002389F804206360D2E729469C
:107AD00040469847F5E729464046D0470028E2D17E
:107AE000E6E700BF5D7502006575020003792DE9C8
:107AF000F0470C46D907054637D4DA0624D413F0EC
:107B0000600F1DD02E884FF6FF77BE4215D0E36A76
:107B1000F20903EBC20306F07F09D3F8048008EBF7
:107B2000C900B246C6882146FFF7E0FFA38E28F8B9
:107B30003930BE42A4F834A0E9D14FF0FF332B60B6
:107B400000232B71BDE8F0872A884FF6FF718A4227
:107B500037D0E16AA68ED00901EBC00102F07F00A8
:107B6000496821F83060A286C9E7A0682A682668BB
:107B70000028C2D0824216D0014600680028BCD03E
:107B80008242F9D18288013A92B28280002AB4D12D
:107B900003680B6033680C4A5B6893420CD124F095
:107BA000D9FA2B79A9E78288013A92B28280002A19
:107BB000A3D10368A360EDE70146304698472B79CF
:107BC0009BE700231B80FFDE657502002DE9F04F67
:107BD0000E46097885B02B29009000F0FD802D29F4
:107BE00040F0B8807178012001900644A1F1300086
:107BF000C0B2092800F2B680DFF8F893C0B20021C5
:107C0000002400254FF0993816F801BF2418ABF175
:107C10003007FFB241EB05054FEA850E092F6FEAE9
:107C200007024FF0FF334FEA840C4EEA947EF8B21D
:107C30004FF0000100F21E81A94508BFA0450BD3FB
:107C40001CEB040C4EEB050E1CEB0C044EEB0E056E
:107C5000AB4208BFA242D7D24FF0000A0023204611
:107C600029460A222CF070FDA946A0461FFA8AF385
:107C7000B9F5200F03F1010A08BFB8F1000F04465F
:107C80000D460FFA8AFAE9D2092F0BD802339B1B53
:107C900006EB030A16F801BFABF13002092A0FFA0E
:107CA0008AFAF5D9BBF12E0F00F0B6800BF0DF0396
:107CB000452B60D0BBF1000F56D10AF126034C2BA7
:107CC00000F2FC80002D08BFB4F5000F80F0F680B4
:107CD00007EE904ABAF1000FF8EEE77A40F36481BC
:107CE000BC4B1AF0010F1CBF93ED007A67EE877A48
:107CF0005FEA6A0223D0D00744BF93ED017A67EEB2
:107D0000877A5FEAAA021AD0D10744BF93ED027ABC
:107D100067EE877A5FEAEA0211D0D20744BF93ED9B
:107D2000037A67EE877A5FEA2A1A08D0BAF1010F60
:107D30000CBF93ED047A93ED057A67EE877A019B89
:107D40000BB1F1EE677A009A0123C2ED027A13704B
:107D500010460DE000200190A1F13000C0B20928CA
:107D60007FF64AAF2E2953D0009A00231370104695
:107D700005B0BDE8F08F96F801B0BBF12D0F36D0FD
:107D8000BBF12B0F00F0F080ABF13003DAB2092A1F
:107D900006F101068ED80AEB0302B2F59A7F00F3D2
:107DA000D780002706E002EB400303EB0A02B2F59E
:107DB0009A7F79DC16F801BFABF13002D1B2092904
:107DC00003EB8300EFD9002F40F0C7809A44BBF14A
:107DD000000F3FF472AFC7E7717800200190A1F166
:107DE0003000C0B2092806F10106BBD804E796F8B6
:107DF00002B0ABF13003DAB2092A06F102063FF60F
:107E000059AF0AEB0302B2F59A7F4FDC0127D1E7A5
:107E1000002400254FF0000A96F801B0ABF13000C5
:107E2000C0B2092806F101063FF640AF6A4B4FF099
:107E300099329D424FEA850108BF94424FEA840778
:107E400041EA94710ED23F1945EB010117EB070887
:107E500041EB01090AF1FF3A18EB00040FFA8AFA24
:107E600049F1000516F801BFABF13000C0B2092896
:107E7000DFD91BE7BBF1000F40F0D280019B8BB133
:107E8000B5F1004F08BF012CBFF4E6AE644265EBCC
:107E900045050223009A1046C2E90245137005B059
:107EA000BDE8F08F0323F5E7002F51D000994FF084
:107EB0000042012308468A600B7059E72046294694
:107EC0002CF0ECFABAF1000F79DD444C1AF0010FF6
:107ED0007AD15FEA6A032DD0DF0700F18D805FEA77
:107EE000AA0327D0DE0700F18C805FEAEA0321D0E5
:107EF000DD0700F18B805FEA2A131BD0DA0700F15F
:107F00008A805FEA6A1315D0DB073ED45FEAAA13C2
:107F100010D0DF073ED45FEAEA130BD0DE073ED471
:107F20005FEA2A2306D0DD0744D45FEA5A231CBF48
:107F30002B490020019B13B101F100431946009A1F
:107F40000423C2E902011046137005B0BDE8F08FAA
:107F5000019B0020BBB12349F1E7AAEB030ABBF167
:107F6000000F3FF4AAAEFFE696F802B0ABF1300383
:107F7000DAB2092A06F102067FF60DAFBBF1000F57
:107F80003FF49BAEF0E61849D9E7D4E90A232FF075
:107F9000FDFDBBE7D4E90C232FF0F8FDBBE7D4E9E6
:107FA0000E232FF0F3FDBBE7CAF1000A3FF4C7AE82
:107FB0000E4B96E6D4E910232FF0E8FDB5E7CAF1A1
:107FC000000AB7D00A4C81E7D4E900232FF0DEFD88
:107FD0007FE700BF38840500999901009884050067
:107FE0000000F87F0000F0FF0000F07F2084050013
:107FF0005084050099999919D4E902232FF0C6FD00
:108000006DE7D4E904232FF0C1FD6EE7D4E9062320
:108010002FF0BCFD6FE7D4E908232FF0B7FD70E720
:10802000B5F5801F08BF002CBFF416AE4FF0000A54
:1080300038E600BF002913DD421E10B4094C11447C
:108040004FF0FF3012F8013F4340DBB2914254F849
:10805000233083EA1020F5D1C0435DF8044B70470C
:1080600000207047E0840500704700BFF0B5A1B064
:1080700024F02EF823F09EFE4D484E4F4E4E1DF03C
:10808000D5FC4E4A4E4B4F494FF6FF744FF0FF3030
:108090000025C2E90000C2E90900C2E91200C2E9F4
:1080A0001B009081C2F81200C2F81600C2F8360018
:1080B000C2F83A00C2F85A00C2F85E00C2F87E0068
:1080C000C2F8820014815483D48394851486D487A3
:1080D000A2F84240A2F85040A2F85440A2F86240F0
:1080E000A2F86640A2F87440A2F87840A2F8864050
:1080F000A2F88A40344A3D701C80344B0C801480B6
:108100003349344A3480C3E90000C3E90200324EE7
:10811000324B13600D704FF496632946202230488D
:1081200033802CF073FD2F4B2F49304A0D7093E8AC
:1081300003002F4B2F4E15701C702F4A2F4B0190B0
:10814000ADF80810080C2E4935702E4E0D708DF8C4
:108150000A00C3E900551648156001A995809D6085
:10816000357017F083FB20B9274A0023138021B014
:10817000F0BD2B460E4901AA07A817F06DFB07A812
:1081800017F060FE03A982B207A817F001FE0446AB
:1081900007A817F073FE002CE6DD9DF818209DF867
:1081A000193003EB0223184A1BB2138021B0F0BD33
:1081B0001C780020F0630020A264002018650020D5
:1081C00076660020A064002066660020A46400207B
:1081D000646600207C6400203E660020801A060051
:1081E0005C640020F4800500E4640020E463002067
:1081F00093660020FC640020F863002000640020E7
:10820000FF630020FE6300200C64002008B5FFF728
:108210008FF900BF30B510489BB014460D4617F0DB
:1082200025FB18B9044620461BB030BD00232A4662
:10823000094901A817F010FB01A817F003FE214619
:1082400082B201A817F0A4FD044601A817F016FE9B
:1082500020461BB030BD00BF1C7800202DE9F04F38
:108260009148924C93460022228002809BF8004065
:10827000A3B0012CCDE901131CD0022C24D0032C77
:1082800000F0A180042C00F0CC80052C00F0D780F9
:10829000092C00F0F980029B002B07DD9BF80030D1
:1082A0005A1E042A13D9073B022B10D9019823B078
:1082B000BDE8F08FDBF804301868596805AB03C3DC
:1082C0009DF81830002B35D1029B002BEEDDDBF83A
:1082D0000830186859689A680AAB07C39DF830607F
:1082E000BDF92840002EE1D0714A724B1788D3F8AF
:1082F00000C0019807EB470106440CEBC1014FF6A3
:10830000FF75634637B90DE0A24208BF58801833A5
:10831000994207D0B3F902208242F5D15D8018332B
:108320009942F7D10130B04204F10104E9D123B000
:10833000BDE8F08F242212FB0303DFF88C91CDF807
:108340000CB08246022602279B469AF800105A4B30
:10835000A1F1200833F91830002B43DB5ED09AF8E6
:108360001010CDE91267CDE91467CDE91667CDE9A4
:108370001867CDE91A67CDE91C67CDE91E67CDE91D
:10838000206761B1DAF804200120114412F8013BA2
:1083900022AC04EB8303914243F8400CF6D111ADBB
:1083A000002455F8042F59F82800E1B2D2B2013464
:1083B00017F04AF9102CF4D10AF1240AD345C4D19C
:1083C000DDF80CB067E7DBF80430186859681C89E1
:1083D00007AB03C301229DF81C1038481C800EF027
:1083E00017FF58E7102026F02BFA044617F0F4F890
:1083F000314A49F82840002322F818309AF8001032
:108400002F4A204617F00AF90028D5D02D4A01231B
:1084100042F82830284A22F81830A0E759F82840B6
:10842000EEE7DBF80430186859681C8907AB03C312
:1084300022489DF81C101C800EF0EAFE2BE7DBF8AA
:108440000440E36820686168A2680DAE0FC6206929
:1084500030600DAA9DF8341018480EF079FF6420A2
:1084600023F042FE9DF8341014480EF09DFF0DAC31
:10847000ADF846000FCCDBF8044020606160A260DC
:10848000E3603068206106E7DBF80430186859685B
:108490001A8907AB03C31A809DF824209DF81C108D
:1084A00006480EF0EBFEF6E6EE630020EC630020DB
:1084B000886600208C660020A46400209C66002052
:1084C000346A00205C640020806400202DE9F04FB5
:1084D000C04CC14B87B0B4F900A0B3F90030694675
:1084E0000AEB8A0202AFA1EBC20295464FEA8A026A
:1084F000BA60002B02AA8146FA600DDDB74E002556
:108500003368012133F9150027F0C4F9B24BB3F9F0
:1085100000300135AB42F3DCB14BB3F90030002B36
:108520000DDDB04E00253368022133F9150027F028
:10853000B1F9AB4BB3F900300135AB42F3DCAA4BD8
:10854000B3F90030002B0DDDA84E00253368022161
:1085500033F9150027F09EF9A34BB3F9003001352C
:10856000AB42F3DCB4F9000000280CDDA04E00257E
:108570003368002133F9150027F08CF9B4F90000B5
:108580000135A842F4DC002800F08880994B984D12
:10859000984294BF40004FF0FF3026F053F9964BBD
:1085A000D7F80C801860BB68C7F800909A087A600A
:1085B0000A269B46B4F90030002B0FDDC1464FF070
:1085C000000A2B6833F91A0027F036F9B4F90030A5
:1085D00049F8040B0AF1010A5345F2DC0A2023F0A2
:1085E00083FD013ED844E5D1B4F90000D7F80090EE
:1085F000002853DDD7E902321A44D11801EB0308F1
:1086000008EB030A7B687C487D68006803EB830CF9
:10861000FB68043BFB60A8F10403BB60043AD7F895
:1086200008802D01C7E90192A5F1040E02380B1F45
:108630004FEA8C0CAAF10401F2448646F868BA6845
:1086400050F8049FF86052F8040F53F804BFBA6062
:10865000484458F8049F584451F804BF48448344A0
:10866000505953F80C208344585983445AF8040F46
:10867000934451F80C200BEB000909EB02005F4A10
:1086800082FB0029C017C0EBA9002EF8020FB4F935
:1086900000000136B042D1DCD7F804904E4B584967
:1086A0001A884F4B0C881D884F4B56491B8812FB6C
:1086B00005F2234492B213441844534CB1F90030EC
:1086C00080B220800BB102442280504BB3F90010DD
:1086D000002905DB4E4BB3F90020002A80F2C5804B
:1086E0004C4D4D48B5F900204C4900239A42036097
:1086F0000B80C0F2F5804A4EB6F90030002B00F333
:10870000A180202200214748474E484D2CF07EFA98
:10871000474BB4F900001B884649474A0880184473
:10872000002346499360C2E90033454A8B60C1E9A2
:108730000033C2E90033C2E9023300B233702B8048
:10874000208026F07FF8C9F80800B4F9000026F070
:1087500079F8B4F90030274AC9F80C00934294BF65
:1087600058004FF0FF3026F06DF8B4F90030214A80
:10877000C9F81400934294BF58004FF0FF3026F020
:1087800061F8B4F90030C9F81000002B1BDDD9E9FD
:1087900002E6D9F8145002380EF1FF31013E023DD5
:1087A00000224FF6FF780B4601F8012F06F8012F43
:1087B00025F8022F0233B4F900C020F8028FA3EB92
:1087C0000E039C45EFDC00231437A9F81830BD4692
:1087D000BDE8F08F34640020146400201864002089
:1087E00026660020286600202C64002030640020CB
:1087F00038640020FCFFFF3F3C640020676666662B
:1088000096660020E8650020B8640020A26400207D
:10881000A064002076660020E8630020E663002064
:108820003E660020446600203C66002074660020FE
:108830000C64002050640020306600206866002030
:1088400078660020342025F0FBFF334B33492A782B
:108850001B780978054622F037FF314BB6F9001036
:108860001D60284622F04AFF4BE72E4E2E482F4D22
:10887000D2B2C9B20EF01AFF31682B480EF0F8FEE2
:1088800029480EF099FEB5F90030002B0BDDDFF81A
:10889000A880B8F90030002B05DDDFF8A0B0BBF9E7
:1088A0000030002B23DC224EB6F90030002B7FF77E
:1088B00017AFB4F90010DFF888800025D8F8003031
:1088C00005EB450203EB820248460123FFF7C6FC95
:1088D000B6F90030013501B2AB422180EEDCFFE693
:1088E0000E4BB3F90030002BBFF605AF09E714209B
:1088F00025F0A6FF82460EF04DFC33680D4800932C
:108900002B78C0F800A0BBF90020B8F90010504641
:108910000EF048FCC7E700BF6466002066660020D2
:10892000B46400207C640020346A00200C600020C5
:108930005864002008650020106000200E600020B0
:108940005464002070B4184D184AB5F90030116015
:10895000002B0BDD02690023023A4FF6FF7622F866
:10896000026FB5F9004001339C42F8DC104E3588A7
:1089700065B1104B1A680023023232F9024C8C4266
:1089800006D001339D4202F11802F6DC70BC70473C
:1089900032F9185B046924F8153035880133AB428D
:1089A000EBDB70BC704700BFB86400202C66002071
:1089B000886600208C660020F0B42A4CBDF9105067
:1089C0002468944207462BD027490E88E6B12749F0
:1089D0000024096803E0B44201F1180114D0B1F990
:1089E0000050954204F10104F5D1B1F9020098421A
:1089F000F1D10C460FCC3D460FC594E8030085E845
:108A000003003846F0BC70474FF0FF334FF420416D
:108A100078223B603B81B980BA713846F0BC704720
:108A2000096931F913100029EEDB35B90F4B1C68C9
:108A300001EB410104EBC104DCE7012DC4D10B4B78
:108A40001B6801EB410103EBC1010B7C002BDBD068
:108A50004D690FCD3C460FC495E8030084E8030040
:108A6000DBE700BF2C660020886600208C660020B3
:108A70002DE9F04F2DED028BAFB0CDE9041302923A
:108A80001278012A77D108EE100A029A5368946886
:108A900018685968A26809AB03C320689DF828507C
:108AA0006168019512AB07C3002D00F03A81099C63
:108AB0000025AA464FF6FF79A04614E0BD4B53F8B7
:108AC000220016F08FFD002844D02EAB03EB4A02A3
:108AD000C04322F8400C0AF1010A019B0135AB4268
:108AE00008F124086AD098F80020B34B203A33F9F3
:108AF00012100029F1DD98F81060002EDED098F8F1
:108B000018100029DAD0B8F80830AA49009351F8B3
:108B1000227013F47F41DAB25FD1002A40F0B280B4
:108B2000564493461EAC384616F05CFD009B63EA43
:108B3000000378B1484535D024F81A300AF1010A0B
:108B4000B245CAD0384616F04DFD009B63EA0003DB
:108B50000028EFD10A2023F0C7FA029C0023224606
:108B6000194618EE100AFFF779FB0A2023F0BCFA29
:108B70002278012A89D0022A00F06E81D31E012BAF
:108B800040F2D280092A00F0CF80052A00F0D78178
:108B9000072A00F03281082A00F0B28208254FF03F
:108BA000000A0EE024F81AB00AF1010AB245BAD15F
:108BB000019B0135AB4208F1240894D1029B1A783D
:108BC0001025531E042B2FD9073A022A2CD9002036
:108BD0002FB0BDEC028BBDE8F08F002A75D11EAB23
:108BE00003EB4A0B564403925C4609E048450AF100
:108BF000010A08BF039B2BF8023BB2453FF46DAF5F
:108C0000ABEB0403D8F80C20D15A38460122090AEC
:108C100016F076FD384616F0E5FC009B63EA00038B
:108C20000028E3D196E708259DF850000028CFD012
:108C3000049B139C591E059B0B440AF1FF371946F0
:108C40002EAB04EB400603EB47070DF1B80C34F9EB
:108C5000023B93FBF5F20CEB420C524505FB123341
:108C6000ACBF37F8402C3CF8402C42FA03F303F039
:108C70000103B44201F8013FE7D12FB0BDEC028BF4
:108C8000BDE8F08F1EAB03EB4A0B564403915C46E4
:108C900009E048450AF1010A08BF039B2BF8023B93
:108CA000B2453FF41AAFABEB0403D8F80C10002226
:108CB000C95C384616F024FD384616F093FC009B3C
:108CC00063EA00030028E4D144E72EAB06EB0A0B6D
:108CD00003EB4A060024423E0BE048450AF1010A34
:108CE00008BF0023DA4526F8023F04F102043FF4EE
:108CF000F4AED8F80C30195B0122090A384616F098
:108D0000FFFCD8F80C300022195D384616F0F8FC4C
:108D1000384616F067FC009B63EA00030028DCD1AC
:108D200018E7AA4610257FE7029A536894681868E6
:108D300059681D89A2680FAB03C3206861681D8054
:108D400012AB07C31D4C23F0C3F92368834239D902
:108D50001B4C22786178A378E07824799DF8405004
:108D6000012D00F0E780022D00F0B281032D00F00C
:108D7000B481A1EB020CC01A012102255CEA0003B8
:108D80004DD1029A12784FF0010A210600F1888035
:108D90009DF8451021B114F0080F14BF8021002167
:108DA0002EA804F0400400EB43030C4323F8404C8E
:108DB000082506E780640020A4640020E863002002
:108DC0000C65002023F084F9BDF942509DF83C2049
:108DD000C5490544256007A8C44D0EF095FA0798CB
:108DE0009DF8204028609DF81C209DF81D109DF8DE
:108DF0001E309DF81F002C71B0E7029BBC4D9B6894
:108E0000186859689A6812AB07C30FCD1EAC0FC41F
:108E100095E80F00102584E80F00AA4604E7029B9E
:108E20001A786FF07E039C456746B8BF1F468342A1
:108E3000B8BF03467F2FA8BF7F277F2BA8BF7F2304
:108E4000032A1E462ED0092A2CD0042A00F0928133
:108E50004FF0010A002398E7029A53689468186853
:108E60005968A2680BAB03C3206861689DF830A005
:108E700012AB07C3BAF1000F3FF4D5AE0B9C9A4F6B
:108E80000AEB04061EAD14F8011B38460EF02EFA4C
:108E9000B44225F8020BF6D1029B08251A7890E619
:108EA00080217DE7934B1B78002B00F0D0800028B9
:108EB00003D0D4BF01204FF0FF30BCF1000F04D02D
:108EC000D4BF4FF0FF3C4FF0010C8B4BB3F90010B7
:108ED0000029C0F26481B1F5005F00F06081B3F950
:108EE00010100029C0F2E781B1F5005F00F0E381C6
:108EF000B3F920100029C0F2DC81B1F5005F00F069
:108F0000D881B3F93010002902DBB1F5005F9FD1A1
:108F1000032103EB011319464FF4A4260027E1E8CF
:108F2000026764251881A3F80AC04FF0010A4D605A
:108F300000232AE7A0EB030C501A02211EE7029B34
:108F4000D3E9015728686968AA68EB68EC7C19AE18
:108F50000FC62869306079683868BA688DF877403C
:108F600012AE07C6BDF876302A785F4915A80EF014
:108F70004FFAA246002C8FD09DF85430ADF87830CF
:108F8000012C89D09DF85530ADF87A30022C83D071
:108F90009DF85630ADF87C30032C3FF47DAF9DF842
:108FA0005730ADF87E30042C3FF476AF9DF8583042
:108FB000ADF88030052C3FF46FAF9DF85930ADF817
:108FC0008230062C3FF468AF9DF85A30ADF88430FB
:108FD000072C3FF461AF9DF85B30ADF88630082C6C
:108FE0003FF45AAF9DF85C30ADF88830092C3FF45F
:108FF00053AF9DF85D30ADF88A300A2C3FF44CAF8A
:109000009DF85E30ADF88C300B2C3FF445AF9DF8E9
:109010005F30ADF88E300C2C3FF43EAF9DF86030E1
:10902000ADF890300D2C3FF437AF9DF86130ADF8BE
:1090300092300E2C3FF430AF9DF86230ADF8943092
:109040000F2C1CBF9DF86330ADF8963024E7254007
:1090500000F0A78029480188314409B21E2940F355
:109060001C8103804FF0FF30234BB3F9001000291F
:10907000C0F21D81B1F5005F00F01981B3F9101045
:109080000029C0F21281B1F5005F00F00E81B3F942
:1090900020100029C0F2E881B1F5005F00F0E48102
:1090A000B3F93010002903DBB1F5005F7FF4D0AED7
:1090B00003210E014FF4A42703EB01119F516425F6
:1090C00000230881CD604B604B814FF0010A5CE6C4
:1090D000A2EB010C181A012150E6A3EB000C0125AC
:1090E000881A02214AE600BF9C6600200C65002019
:1090F00044660020FC640020A8650020EE63002088
:10910000029A53689468186859681D89A2680FAB61
:1091100003C3206861681D8012AB07C39DF83C2023
:10912000BB490DA80EF0ACF99DF83570002F40F04A
:10913000CD80B84C2388DA1E062A00F2BE80B649DC
:109140000B88132B8CBF00270127B44AB448138027
:10915000BBB201220280B34DB34800222A80228094
:109160000A800280ADF87830029B08251A784FF00B
:10917000010A26E500231CF1020FADF8783080F2D9
:10918000F48086EAE6717B42A1EBE6718B4240F304
:10919000DC800123ADF878304FF0020AF5E50021BC
:1091A000B7E6214044D0A1490B883B441BB21E2B9B
:1091B00035DD0D8001219E4BB3F9000000282CDB2A
:1091C000B0F5005F29D0B3F910000028C0F26A8121
:1091D000B0F5005F00F06681B3F920000028C0F20E
:1091E0005F81B0F5005F00F05B81B3F930000028CB
:1091F00003DBB0F5005F7FF42BAE032005014FF4D5
:10920000A42703EB00105F510023642541814360D4
:109210000381C5604FF0010AB7E50020EEE713F1C6
:109220001E0FABBF0B800D8029464FF0FF31C2E708
:109230007F4BB3F9000000281DDBB0F5005F1AD0AA
:10924000B3F910100029C0F22981B1F5005F00F0D8
:109250002581B3F920100029C0F21E81B1F5005F0D
:1092600000F01A81B3F93010002903DBB1F5005F7B
:109270007FF4EEAD032109014FF4A4255D50581889
:10928000083100258780BDF93E70C6804FF0010A85
:109290005D502B46C581878177E511F11E0FABBF6D
:1092A0000180038018460120DEE6012101E700214C
:1092B000FFE602212DE601212BE6002B40F0D680AF
:1092C000574855490288013292B243E7554DBDF8DF
:1092D00038002B88BDF83A10534C7BB32688002EFB
:1092E00073D09DF84020012A6AD0022A63D0032A55
:1092F0005CD0C31A5A00A6EB010C012F4C4B4FF067
:10930000000600F097803701013633F907E0BEF11F
:10931000000F5CDBBEF5005F59D0042EF3D10026B0
:109320003D4F8CEAEC73002AA3EBEC73B8BF5242BA
:10933000B7F800C01A446244B3B23A80354E288070
:1093400032882180013232800CE7851C20DA002F20
:10935000C6F10006B8BF7F42BE4215DD0423ADF85A
:1093600078304FF0020A01230FE5BCF1020FECDD6B
:1093700086EAE673A3EBE673BB42E6DA0223ADF8B6
:1093800078309A46012300E54FF0020A0123FCE4FD
:109390000228F9DD002FB8BF7F42B742F4DA082374
:1093A000ADF878304FF0020A0123EEE41B1A4FEAC1
:1093B000430C721AA1E71B1A5A00A1EB060C9CE79A
:1093C000C31A4FEA430C8A1B97E73346B6E703EB11
:1093D000070E0026002A4FF4A42843F80780CEF891
:1093E00004601646B8BFD61CB610BCF1000FAEF82C
:1093F00008606646B8BF0CF1030603EB070EB61013
:109400003B4476426427AEF80A600026DF6087E7B7
:109410009C66002026640020206400202264002036
:10942000246400201C6400201E640020EC630020E3
:10943000A86500203701013633F907E0BEF1000FBF
:1094400017DBBEF5005F14D0042EF3D1164B1B883A
:10945000043B9BB2192B3FF662AF144B1B88132BB6
:109460003FF65DAF01265BE7022122E610490B883B
:109470006BE64FF4A42843F80780DE1907F1080EC5
:10948000BDF93E80A6F804C00027F28043F80E70B4
:10949000F781A6F80C80D9E70221ECE60121EAE683
:1094A0000220ABE60120A9E624640020226400200B
:1094B000206400202DE9F84FDFF81893BD4DBE4F12
:1094C000BE4CBF4EDFF81083D9F800000368DB689C
:1094D0009847002840D0D9F8000003681B699847D6
:1094E0002378C2B23BB902F14F01C9B20629EBD8C9
:1094F00022703370E8E7B12B1FD0B22B4BD0B32BC7
:1095000066D0B42B58D0B52B0ED0B62B0CD0B72BC1
:10951000DAD13378002B40F0F680012A88F8002059
:1095200008D00022227005E03378002B40F0A5809F
:1095300088F8002001333370C6E7A24B120900F00F
:109540000F0C33F81210012000FA0CF00843002130
:1095500023F812002170B7E72B7863B11C099948F2
:1095600003F00F0330F81420012101FA03F322EA7B
:10957000030320F8143094490F22481E2BF02CFBD3
:109580003B880022EA7323B1013B9BB23B80002B56
:109590006DD0BDE8F88F8B4B120900F00F0033F847
:1095A00012104FF0010C0CFA00F021EA000100202B
:1095B00023F81210207087E796F800E0BEF1000F44
:1095C0006CD188F800200EF1010E86F800E07BE7F0
:1095D0007C4B95F802C0110900F00F0033F811E040
:1095E0004FF0010A0AFA00F040EA0E004FF0000EB8
:1095F00023F8110084F800E0BCF1000F00F0B68001
:10960000EB78002B00F0B8802B79002B00F0B180B4
:109610006B79002B00F0B680AB79002B00F0AF80A7
:10962000EB79002B00F0B4802B7A002B00F09980AE
:109630006B7A002B00F0A980AB7A002B00F0B18090
:10964000EB7A002B00F0AA802B7B002B00F0A3808C
:109650006B7B002B00F0AB80AB7B002B00F0A48079
:10966000EB7B002B7FF430AF0F23EA542CE7574AF3
:10967000C2E900339360BDE8F88F5549B1F90000A5
:10968000002824DBB0F5005F21D0B1F910000028DC
:1096900002DBB0F5005F53D1012019E098F800100B
:1096A000914211DA474B4FF0010A4FEA211C01F0B9
:1096B0000F0B33F81C000AFA0BFB013120EA0B00F8
:1096C000914223F81C00F0D1002323707BE7002097
:1096D0004FEA001E4FF4A42A41F80EA00EF1080C28
:1096E00001EB001001EB0C0E98F800B0C2804FF0B7
:1096F000000A6422A0F804B041F80CA0CEF80420BF
:109700000022227016E798F8001001297FF412AFAA
:10971000022B08F803207FF60DAF4FF0000CC8F8BD
:1097200005C088F809C0A8F80AC098E80700DFF863
:109730009CE084F800C08EE80700C8223A80F9E671
:10974000B1F9200000280FDBB0F5005F0CD0B1F9B3
:109750003000002803DBB0F5005F7FF4E2AE0320A9
:10976000B6E70823EA54AFE60220B1E70223EA5441
:10977000AAE60423EA54A7E60323EA54A4E6062350
:10978000EA54A1E60523EA549EE60923EA549BE63F
:109790000723EA5498E60C23EA5495E60B23EA548F
:1097A00092E60A23EA548FE60E23EA548CE60D2350
:1097B000EA5489E678660020746600203C66002042
:1097C000406600204466002079660020686600201C
:1097D000A8650020B4640020306600202DE9F04F19
:1097E000404CB4F90030002B85B0054640F3808230
:1097F0003D4F00263B6833F9160026F0EDF8A968C6
:10980000B4F90030B0FA80F04009721C885516B2E5
:10981000B342EFDC354BB3F90030002B40F37082DC
:109820003344A9681CB20022731C8A551EB2A6429A
:10983000FAD12F4BB3F90030002B65DDDFF8BCA067
:10984000DFF8BC90DFF8BCB0002610E043454FF0D5
:1098500000023FDBD5E90232125D1A55244B013676
:10986000B3F9003036B20134B34224B24CDD2B6977
:1098700033F91430002B03EB43022EDBDBF800300E
:1098800003EBC20393F806805F79DAF8003033F90E
:10989000160025F0D1FFD9F80030164A164933F9E1
:1098A0001630B2F90020B1F900104FF0FF0C1A4445
:1098B000194400B20023CDF800C022F07FFA2B68D3
:1098C00000B280F3080098552B689B5DBB424FF0B7
:1098D0000102BBDDAB681A55C0E7A0274FF078083E
:1098E000D3E700BF2C64002030640020966600207F
:1098F000346400204064002042640020386400206A
:109900003C6400208C660020C84BC94EB3F900307F
:10991000002B00F0B281B6F90030002B40F3DB8160
:109920000027DFF830933A46D9F80030012133F9A7
:1099300012000F4425F0AEFFB6F900303AB2934260
:10994000F2DCBC4FB7F90020002A15DD4FF000080B
:10995000DFF804934346D9F80020022132F91300BE
:1099600025F098FF08F10108B7F900200FFA88F3F5
:109970009A42F0DCB6F90030002B40F3B281AE4AD7
:10998000DFF8D0A2DFF8D09242F001020392002269
:109990000292002B16DD4FF0000BBDF908805946EE
:1099A000DAF8003033F91100B8EB010118BF0121DA
:1099B00025F0F4FF0BF1010BB6F900300FFA8BF133
:1099C0008B42EDDC039B4FF448609847B7F90030B9
:1099D000002B16DD4FF00008D9F8003033F91800DD
:1099E00025F0FAFF08F10108B7F90030AA68B0FACB
:1099F00080F00FFA88F84009611C434510550CB2FD
:109A0000EADC029B01331A460293B6F900300FFAE2
:109A100082F84345BDDC854AB2F90020002A78D09F
:109A2000002B13DD4FF00008DFF828924246D9F8EA
:109A30000030022133F9120025F02CFF08F1010853
:109A4000B6F900300FFA88F29342F0DCB7F9003033
:109A5000002B5EDD4FF00008DFF8FC914246D9F89C
:109A60000030012133F91200884425F013FFB7F9C3
:109A700000300FFA88F29342F1DC002B49DD6E4A88
:109A8000DFF8D0A142F00102039200220292002BE3
:109A900016DD4FF0000BBDF908805B46D9F80000D9
:109AA000B8EB030118BF012130F9130025F076FF50
:109AB0000BF1010BB7F900100FFA8BF39942EDDCB3
:109AC000039B4FF448609847B6F90030002B16DD31
:109AD0004FF00008DAF8003033F9180025F07CFF69
:109AE00008F10108B6F90030AA68B0FA80F00FFA60
:109AF00088F84009611C434510550CB2EADC029B12
:109B000001331A460293B7F900300FFA82F8434541
:109B1000BDDC4A4BB3F90030002BC0F2C980484B82
:109B2000B3F90030002B00F3BB80464FB7F900308B
:109B3000002B17DD0026DFF82481B446D8F800207A
:109B4000AB680CEB4C0C02EB8C0221462846FEF76E
:109B50008FFF0136B7F900300FFA86FC20446345C9
:109B600004B2EBDC384A394BB2F90060B3F900407B
:109B7000B44208DD621EA868921B92B201323044E2
:109B800000212BF043F832490878002872D04A7837
:109B9000B3B21A4412B2A24276DB01286AD08A78A4
:109BA0001A4412B2944273DC022863D0CA781A4471
:109BB00012B2944270DC03285CD00A791A4412B2C3
:109BC000944271DC042855D04A791A4412B2944266
:109BD00002DDAE680127B75405284BD08A791A44B4
:109BE00012B2944202DDAE680127B754062841D074
:109BF000CA791A4412B2944202DDAE680127B75402
:109C0000072837D00A7A1A4412B2944257DC08283F
:109C100030D04A7A1A4412B2944254DC092829D02E
:109C20008A7A1A4412B2944251DC19E0E8650020A5
:109C30001464002026660020108A05007666002045
:109C40003E6600205864002050640020B864002064
:109C5000006400201864002028660020546400205E
:109C60000A2807D0CA7A13441BB29C4202DDAA68B4
:109C70000121D15405B0BDE8F08FB6F90030002BBA
:109C80007FF747AF1F4F7AE6AE680127B75484E7E6
:109C9000AE680127B75487E7AE680127B7548AE753
:109CA0002846FFF707FC40E7AE680127B75489E76D
:109CB000154BB3F90030002BBFF631AF35E7AE6876
:109CC0000127B754A3E7AE680127B754A6E7AE68EB
:109CD0000127B754C4E70B4FB7F90030002B3FF70B
:109CE00035AE0A4BB3F90030002B7FF4AFAE10E76E
:109CF000074BB3F90030002B4FF000063FF790AD53
:109D0000344696E52666002066660020E865002059
:109D1000966600201D4BF0B4B3F90060002E28DDDC
:109D2000D0E90224D11CB7B2091B7B1E06299BB2C5
:109D300021D9072B1FD9BD0802EB85051346214603
:109D400053F8040B41F8040BAB42F9D127F003019F
:109D50008F428BB20DD0591C09B2D05CE0548E42B8
:109D600007DD02331BB2505C60549E4201DDD25CC1
:109D7000E254F0BC7047D118013C531E13F8012F78
:109D800004F8012F8B42F9D1F0BC7047B864002071
:109D90000E4B10B4B3F90040002C13DDD0E90223C0
:109DA000013C13FA84F4013A013B01E0A34209D0DB
:109DB00013F8010F12F8011F8842F7D001205DF857
:109DC000044B704700205DF8044B7047B8640020D6
:109DD000084B00224FF6FF7119601961196219636F
:109DE0005A60DA605A61DA615A62DA625A63DA6397
:109DF000704700BFA8650020F0B51C4CBDF914C029
:109E0000B4F90000BDF91850BDF91C70BDF920600F
:109E1000002801DB814211D100204FEA001E04EB33
:109E2000001024F80E106D420021058142808380CD
:109E3000A0F806C047818681C181F0BDB4F9100049
:109E4000002809DB814207D0B4F92000002801DB9B
:109E5000814203D10220E0E70120DEE7B4F93000BF
:109E6000002801DB8842E8D10320D6E7A86500205E
:109E7000144BB3F90020914205D100224FF6FF7038
:109E8000C3E90002DA60B3F91020914205D1002243
:109E90004FF6FF70C3E90402DA61B3F92020914262
:109EA00005D100224FF6FF70C3E90802DA62B3F968
:109EB0003020914205D100224FF6FF71C3E90C1208
:109EC000DA637047A86500202DE9F04F00F1100318
:109ED000074693E8070091B0BC68FD6804AE86E8C9
:109EE0000700002C00F0C88023790DF11C08202BFE
:109EF00088E8070040F0C0800DF128090DAB89E823
:109F0000070083E807000146002800F0B580248898
:109F10004FF6FF70844200F0AF80D5F82CB0E20914
:109F20000BEBC20204F07F04556815EBC40400F08B
:109F3000A3800E9A019002F1FF3C01EB0C004FF060
:109F4000010ACDE90217E58800901746BAF1000F23
:109F500013D1019A954200F08F80E8090BEBC00005
:109F600005F07F05446814EBC50400F085808AF095
:109F7000010AE588BAF1000FEBD02079042800F03F
:109F8000A880052800F0A080022800F08D80002025
:109F90000446B842DDD15FB1029A013C501E10F870
:109FA000011F14F8012F9142D3D1009A8242F6D1B9
:109FB0004FF6FF7C6545039F5ED0EC091C3797E8A0
:109FC00007000BEBC40705F07F057F6817EBC5049E
:109FD00086E8070050D096E807002479202C88E80E
:109FE000070049D183E807000D9E89E80700002E8D
:109FF00042D037F8350060453ED0C2090BEBC202B3
:10A0000000F07F03506810EBC30035D00E9FB0F80E
:10A0100006806546BAF1000F12D1A8452CD04FEA50
:10A02000D8130BEBC30308F07F08586810EBC80087
:10A0300022D08AF0010AB0F80680BAF1000FECD005
:10A040000379042B39D0052B33D0022B18D0002FE5
:10A05000E3D14FF6FF7398450ED04FEAD8120BEBC1
:10A06000C20208F07F08526812EBC80005D00179DF
:10A07000202956D0402935D0002011B0BDE8F08FFE
:10A0800004462BF0E4FC8742C7D1002FE1D0731EB9
:10A09000601EDA1901E09A42DBD013F8014F10F884
:10A0A000011F8C42F7D0B8E720462BF0D0FC0DAB57
:10A0B0006FE70468E0880834E5E70468002CC6D040
:10A0C00020462BF0C4FCDEE7206800F10804C088BD
:10A0D0005FE724682046002C3FF45BAF2BF0B7FC11
:10A0E0000DAB56E732F838009842C5D0C1090BEBEA
:10A0F000C10100F07F02486810EBC200BDD0C188EA
:10A100001D460020CB09A9420BEBC30301F07F02DF
:10A1100000F10100B1D05B6813EBC203ADD0D98868
:10A12000F0E732F838009842A6D0C1090BEBC10124
:10A1300000F07F02486810EBC2009ED0C2881C4627
:10A140000020D309A2420BEBC30302F07F0100F110
:10A15000010005D05B6813EBC10301D0DA88F0E79A
:10A16000400811B0BDE8F08FF0B40B460446D1E9C9
:10A1700002018AB002AF03F1100587E8030094469C
:10A1800095E8070004AE1C3386E8070093E8070053
:10A1900007AD85E8070097E8030004F10C0282E8A8
:10A1A000030096E807002346143484E8070095E886
:10A1B000070003F1200484E807001846C3F82CC008
:10A1C0000AB0F0BC704700BF2DE9F04F00F10C035E
:10A1D000044693E80700D4E901378DB06C4684E863
:10A1E0000700002B5DD094E807001D7903AC202DFB
:10A1F00084E8070055D106AC84E807000CAC04E9FC
:10A200000700DDF82480B8F1000F4AD018884FF617
:10A21000FF76B04245D0FD6AC20905EBC20200F0EC
:10A220007F03506810EBC3003BD0DDF82890B0F8F6
:10A2300006B009F1FF374FF0010A4744BAF1000FA9
:10A2400012D1B3452DD04FEADB1305EBC3030BF05E
:10A250007F0B586810EBCB0023D08AF0010AB0F8CE
:10A2600006B0BAF1000FECD00379042B35D0052BE2
:10A270002FD0022B19D0B9F1000FE2D14FF6FF73A6
:10A280009B450ED04FEADB1205EBC2020BF07F0BB1
:10A29000526812EBCB0005D00179202942D0402929
:10A2A00022D000200DB0BDE8F08F04462BF0CFFB8C
:10A2B0004845C6D1B9F1000FE0D0601E08F1FF3368
:10A2C00013F8011F10F8012F9142BAD19F42F7D124
:10A2D000D4E70468E0880834EAE704682046002CE4
:10A2E000E6D02BF0B4FBE3E732F83B009842D8D03D
:10A2F000C10905EBC10100F07F02486810EBC20004
:10A30000D0D0C1880020CA09994205EBC20201F0F1
:10A310007F0400F10100C5D0526812EBC402C1D025
:10A32000D188F0E732F83B009842BAD0C10905EB7A
:10A33000C10100F07F02486810EBC200B2D0C188B2
:10A340001E460020CA09B14205EBC20201F07F049B
:10A3500000F1010005D0536813EBC40301D0D98884
:10A36000F0E740080DB0BDE8F08F00BFF0B40B4639
:10A370000446D1E9010186B001AE0C3386E8030042
:10A38000174693E8070003AD85E8070096E8030049
:10A3900004F1080282E8030095E807002346103420
:10A3A00084E807001846DF6106B0F0BC704700BFC4
:10A3B000F0B50B460446D1E903018DB003AF03F1BC
:10A3C000140587E80300944695E80700D3F820E0D9
:10A3D00005AE243386E8070093E8070009AD85E859
:10A3E000070097E8030004F1100282E8030096E8F2
:10A3F00007002346183484E8070095E8070003F1B6
:10A400002804C3F824E084E807001846C3F834C0E1
:10A410000DB0F0BD2DE9F04103460C46D1E9050130
:10A4200092B00DF1140C04F11C058CE80300964663
:10A4300095E8070007AF04F12C0587E8070095E8C9
:10A4400007000BAE04F13C0586E8070095E807001D
:10A450000FAD85E807009CE8030003F11802D4F86B
:10A460002880D4F838C082E8030097E8070003F199
:10A47000200484E8070096E8070003F13004C3F8DD
:10A480002C8084E8070095E8070003F14004C3F836
:10A490003CC084E807001846C3F84CE012B0BDE8A1
:10A4A000F08100BF037913F0100270B40DD0028860
:10A4B0004FF6FF76B2423CD0CE6AD10906EBC10618
:10A4C00002F07F01726802EBC1020A3B122B0BD82B
:10A4D000DFE803F01B0A2D0A0A0A0A0A0A0A0A0A16
:10A4E0000A0A0A0A200A0D00002070BC7047D2E94F
:10A4F000003213F1004442F10005012D08BF002C89
:10A5000034BF0120002070BC70470068C043C00FFA
:10A5100070BC7047D2E9002300216FF000409942DF
:10A5200008BF90422CBF0120002070BC7047012062
:10A53000DBE70022C9E700BFF0B5037913F0100292
:10A5400085B010D002884FF6FF7C624500F09E80F7
:10A55000C96A4FEAD21C01EBCC0C02F07F01DCF897
:10A56000042002EBC102023B1C2B20D8DFE803F0E1
:10A570003A1F648B851F1F1F871F661F681F1F1FC1
:10A580001F1F1F1F1F1F1F1F721F7A1F2200DDEDBD
:10A59000027A9FED457AF4EEC77AF1EE10FA06DB07
:10A5A0009FED427AF4EEC77AF1EE10FA70D90020EE
:10A5B00005B0F0BDD2E900453D4B002220462946BA
:10A5C0002AF016F80028F3D035A3D3E9002320465B
:10A5D00029462AF003F80028EAD0204629462AF026
:10A5E0001BF8E5E701466846FDF7F0FA9DF80030F4
:10A5F000013B032BDBD801A252F823F08FA5020008
:10A6000023A6020013A602000DA60200DDE9024502
:10A61000D2E7DDE90201002908BFB0F1004FC7D33E
:10A62000C5E7DDE9020310F1004443F10005012D07
:10A6300008BF002CBCD3BAE70168D4E70068B7E7CD
:10A64000D0ED007A9FED187AF4EEC77AF1EE10FAA9
:10A65000ADDBA5E7D2E90001002908BFB0F1004F4A
:10A66000A6D3A4E7D2E9000310F1004643F10007A6
:10A67000012F08BF002E9BD399E7007898E7006868
:10A6800020EAE07094E701680831ACE700226AE74D
:10A69000FDEEE77A17EE900A8AE700BFAFF300807D
:10A6A0000000C0FFFFFFDF41000000CFFFFFFF4EB3
:10A6B0000000E0C12DE9F04F00F11003074693E8D8
:10A6C000070093B0BB68FD68019506AE86E80700F9
:10A6D000002B00F0B8801C790DF12408202C88E8AC
:10A6E000070040F0B0800DF130090FAC89E8070099
:10A6F00084E807000146002800F0A5801C884FF67A
:10A70000FF70844200F09F80D5F82CB0E2090BEB7B
:10A71000C20204F07F04556815EBC40400F0938076
:10A72000109AE588039002F1FF3C01EB0C034FF017
:10A73000010ACDE9041702931746BAF1000F11D1AF
:10A74000039B9D427FD0E8090BEBC00005F07F031F
:10A75000446814EBC30476D08AF0010AE588BAF1A4
:10A76000000FEDD02079042800F0AB80052800F020
:10A77000A48002287FD0002FE2D14FF6FF7C6545F0
:10A78000059F60D0EC091C3797E807000BEBC40766
:10A7900005F07F057C6814EBC50786E8070052D0FA
:10A7A00096E807003E79202E88E807004BD10FABD2
:10A7B00089E8070083E807000646002843D034F8FC
:10A7C000350060453FD0C1090BEBC10100F07F02AD
:10A7D000486810EBC20036D0109FB0F8068065467E
:10A7E000BAF1000F12D1A8452DD04FEAD8130BEBC8
:10A7F000C30308F07F08586810EBC80023D08AF024
:10A80000010AB0F80680BAF1000FECD00379042BEE
:10A810004CD0052B46D0022B19D0002FE3D14FF698
:10A82000FF7290450FD04FEAD8120BEBC20308F02D
:10A830007F08586810EBC80006D00199FFF77CFE2E
:10A8400013B0BDE8F08F002013B0BDE8F08F0446D0
:10A850002BF0FDF88742C6D1002FE0D0731E601E9A
:10A86000DA1901E09A42DAD013F8014F10F8011F0B
:10A870008C42F7D0B7E720462BF0E9F8B8427FF4D6
:10A880005FAF002F3FF479AF049B013C581E10F8D6
:10A89000012F14F8013F9A427FF452AF029B83428A
:10A8A000F5D16AE70468E0880834D3E70468002C2F
:10A8B000B3D020462BF0CBF8CCE72468E0880834EE
:10A8C000DCE724682046002CD8D02BF0C0F8D5E770
:10A8D0002DE9F04F00F10C02034607CAD3E90156F7
:10A8E0008DB06B4683E80700002D57D093E8070032
:10A8F0002C7903AB202C83E807004FD106AB83E80B
:10A9000007000CAB03E90700DDF82490B9F1000F54
:10A9100044D028884FF6FF7840453FD0D6F82CA089
:10A92000C2090AEBC20200F07F03506810EBC300BB
:10A9300034D04FF0010B0A9FC588BBF1000F10D136
:10A9400045452BD0EB090AEBC30305F07F0558689A
:10A9500010EBC50022D08BF0010BC588BBF1000FB6
:10A96000EED00379042B36D0052B30D0022B19D032
:10A97000002FE5D14FF6FF739D420FD0EB090AEB94
:10A98000C30A05F07F05DAF8040010EBC50006D015
:10A990003146FFF7D1FD0DB0BDE8F08F00200DB0BE
:10A9A000BDE8F08F04462BF052F88742C8D1002F43
:10A9B000E0D009F1FF33601EDA1901E09A42D9D0E4
:10A9C00013F8014F10F8011F8C42F7D0B8E7046864
:10A9D000E0880834E9E70468002CC9D020462BF051
:10A9E00036F8E2E72DE9F047054608460C462BF01D
:10A9F0002EF8074618B3013C6B6A04EB00094FF0D0
:10AA0000000805F1040A05E0E8186A6213460671B9
:10AA1000A14514D05A1C1F2A14F8016FF4D92B44F5
:10AA2000514683F80480286821F09CFA20B96B6AAB
:10AA3000002BEDD10122E7E701220023E4E7A86A19
:10AA40003844A862BDE8F087437DDBB1037D202B4D
:10AA500012D8DFE803F01F11111111111111111596
:10AA600015111115111111111111111111111111CE
:10AA700011111111111115000123037300207047EA
:10AA80000023437503695A1C02611B780375012278
:10AA90004275DCE7037B002B14BF022001207047C6
:10AAA0002DE9F04F054600798BB001AC202884E8F1
:10AAB0000E0055D194E8070004AA82E80B0007CAEB
:10AAC0000AAA02E90B00DDF81C80B8F1000F47D09C
:10AAD00028884FF6FF76B04242D0149BD3F82C90D2
:10AAE000C20909EBC20200F07F03506810EBC300FB
:10AAF00036D0089DB0F806B06F1E4FF0010A4744EB
:10AB0000BAF1000F12D1B3452AD04FEADB1309EB9B
:10AB1000C3030BF07F0B586810EBCB0020D08AF0FA
:10AB2000010AB0F806B0BAF1000FECD00379042B9B
:10AB300031D0052B2BD0022B16D0002DE3D14FF6B0
:10AB4000FF739B450CD04FEADB1309EBC3090BF0F5
:10AB50007F0BD9F8040000EBCB000BB0BDE8F08F01
:10AB600000200BB0BDE8F08F04462AF070FFA84229
:10AB7000C9D1002DE3D0601E08F1FF3313F8011F87
:10AB800010F8012F9142BED19F42F7D1D7E7046858
:10AB9000E0880834EBE704682046002CE7D02AF070
:10ABA00056FFE4E730B500F10C02034607CAD3E9CB
:10ABB000014587B003AB83E807002CB10095204620
:10ABC0000ECBFFF76DFF0446204607B030BD00BF37
:10ABD0002DE9F04F00F11403054693E8070091B00A
:10ABE000EB682F690DAC84E80700002B00F085802E
:10ABF0000097184694E80E00FFF752FF05F1200376
:10AC0000064693E8070004AB83E80700002E74D0E3
:10AC100093E8070096F804C007ABBCF1200F83E867
:10AC200007006AD184E80700DDF834A00AAB83E8A6
:10AC30000700BAF1000F60D033884FF6FF78434524
:10AC40005BD0FE6AD90906EBC10103F07F024B68B5
:10AC500013EBC20351D04FF0010BDDF83890DA88C6
:10AC6000BBF1000F10D1424547D0D10906EBC1011D
:10AC700002F07F024B6813EBC2033ED08BF0010B56
:10AC8000DA88BBF1000FEED01979042957D00529D5
:10AC900051D0022935D0B9F1000FE4D14FF6FF743D
:10ACA000A2422AD0D10906EBC10102F07F02496815
:10ACB00011EBC20022D00379402B1ED131F83200B3
:10ACC000A0421AD0C20906EBC20200F07F0350680E
:10ACD000E96A10EBC30010D0C38819B938E0013914
:10ACE000C38835D0DA09A34206EBC20203F07F0520
:10ACF00003D0506810EBC500F1D1002011B0BDE8C1
:10AD0000F08F184603921C462AF0A1FE039A814553
:10AD1000A9D1B9F1000FC1D00AF1FF31631E01EBD7
:10AD2000090001E08842B9D011F801CF13F8014FB2
:10AD3000A445F7D097E71C68E0880834E7E71C686B
:10AD4000002CA8D0204603922AF081FE039ADEE769
:10AD50003946FFF7F1FB11B0BDE8F08FF0B500F117
:10AD60001003064693E8070087B0B368F56803ACA4
:10AD700084E807005BB30095184694E80E00FFF7DF
:10AD80008FFE28B30379402B21D100884FF6FF7244
:10AD900090421CD0EF6AF169C40907EBC40400F0CB
:10ADA0007F03606810EBC30011D0C38891B11646D1
:10ADB00002E00139C3880DD0DA09B34207EBC202C1
:10ADC00003F07F0403D0506810EBC400F1D10020E1
:10ADD00007B0F0BD2946FFF7AFFB07B0F0BD00BFDD
:10ADE000F0B500F11403054693E8070087B0EB685F
:10ADF0002E6903AC84E807006BB30096184694E80C
:10AE00000E00FFF74DFE034628B30279402A21D1F8
:10AE100003884FF6FF7E73451CD0D6F82CC0286AF5
:10AE2000D9090CEBC10103F07F024B6813EBC2039D
:10AE300010D0DA8818B911E00138DA880ED0D109BB
:10AE400072450CEBC10102F07F0703D04B6813EB96
:10AE5000C703F1D10023184607B0F0BD243595E8AB
:10AE6000070084E807000096184694E80E00FFF7F4
:10AE700017FE0346184607B0F0BD00BF10B50446E4
:10AE8000FFF7AEFF10B12169FFF756FB10BD00BF01
:10AE900038B50446FFF7A4FF30B103792269202BAF
:10AEA00003D0402B23D0002038BD00884FF6FF741C
:10AEB000A042F8D0D56AC20905EBC20200F07F03B8
:10AEC000506810EBC300EFD0C2880020D309A24223
:10AED00005EBC30302F07F0100F1010005D05B68C0
:10AEE00013EBC10301D0DA88F0E7400838BD0088D1
:10AEF0004FF6FF74A042D6D0D56AC20905EBC20254
:10AF000000F07F03506810EBC300CDD0C288002052
:10AF1000D309A24205EBC30302F07F0100F1010057
:10AF2000C2D05B6813EBC103BED0DA88F0E700BF84
:10AF3000F0B5044687B00830FFF752FF30B303790D
:10AF4000402B22D103884FF6FF77BB421DD0A56965
:10AF5000A06BD5F82CC0D9090CEBC10103F07F021E
:10AF60004B6813EBC20310D0DA8818B910E001382F
:10AF7000DA880DD0D109BA420CEBC10102F07F068C
:10AF800003D04B6813EBC603F1D1002007B0F0BD2E
:10AF90003C3494E8070003AC84E8070000951846A9
:10AFA00094E80E00FFF77CFD07B0F0BDF8B504464D
:10AFB0000430FFF715FF28B30379402B21D1008817
:10AFC0004FF6FF76B0421CD06169646BCF6AC2094C
:10AFD00007EBC20200F07F03506810EBC30010D0F3
:10AFE000C3881CB90FE0013CC3880CD0DA09B34216
:10AFF00007EBC20203F07F0503D0506810EBC500D9
:10B00000F1D10020F8BDFFF797FAF8BD2DE9F04720
:10B0100004468CB00830FFF7E3FE20B30379402BE1
:10B0200021D103884FF6FF77BB421CD0A269A06BE9
:10B03000D66ADA0906EBC20203F07F03526812EB0C
:10B04000C30310D0DA8818B911E00138DA880ED0BD
:10B05000D109BA4206EBC10102F07F0503D04B686B
:10B0600013EBC503F1D100200CB0BDE8F0873C34F0
:10B0700094E807001D796C4684E80700202D03AC96
:10B0800084E80700EFD194E8070006AC84E80700E5
:10B090000CAC04E90700DDF82480B8F1000FE2D021
:10B0A00018884FF6FF77B842DDD0C20906EBC2021E
:10B0B00000F07F03506810EBC300D4D04FF0010ABA
:10B0C000DDF82890C588BAF1000F10D1BD42CAD072
:10B0D000EB0906EBC30305F07F05586810EBC500CC
:10B0E000C1D08AF0010AC588BAF1000FEED0037909
:10B0F000042B51D0052B4BD0022B32D0B9F1000FCD
:10B10000E4D14FF6FF739D42ADD0EA0906EBC202CF
:10B1100005F07F05526812EBC500A5D00179202902
:10B1200041D040299FD132F8350098429BD0C109C7
:10B1300006EBC10100F07F02486810EBC20093D01B
:10B14000C1880020CA09994206EBC20201F07F04BF
:10B1500000F1010088D0526812EBC40284D0D1887B
:10B16000F0E704462AF073FC8145AFD1B9F1000F36
:10B17000C7D008F1FF33601E03EB090201E09A42D9
:10B18000BFD013F8014F10F8011F8C42F7D09DE794
:10B190000468E0880834E7E70468002CAED0204655
:10B1A0002AF055FCE0E732F8350098423FF45BAFF7
:10B1B000C10906EBC10100F07F02486810EBC20034
:10B1C0003FF452AFC1881D460020CA09A94206EBD0
:10B1D000C20201F07F0400F1010005D0536813EBB7
:10B1E000C40301D0D988F0E740080CB0BDE8F0876F
:10B1F0002DE9F04F05468FB00C30FFF7F1FD28B375
:10B200000379402B22D103884FF6FF77BB421DD034
:10B21000EA690192D66AE86BDA0906EBC20203F02A
:10B220007F03526812EBC30310D0DA8818B911E01B
:10B230000138DA880ED0D109BA4206EBC10102F01A
:10B240007F0403D04B6813EBC403F1D100200FB08F
:10B25000BDE8F08F05F1400207CA1F7902AC84E80F
:10B260000700202F05AC84E80700EFD194E8070021
:10B2700008AC84E807000EAC04E907000B9A002A2A
:10B28000E4D01B884FF6FF77BB42DFD0D80906EB2E
:10B29000C00003F07F01436813EBC103D6D0DDF893
:10B2A00030A0B3F806900AF1FF384FF0010B90443C
:10B2B000BBF1000F12D1B945C8D04FEAD91006EB47
:10B2C000C00009F07F01436813EBC103BED08BF0CF
:10B2D000010BB3F80690BBF1000FECD018790428ED
:10B2E00052D005284CD0022834D0BAF1000FE2D158
:10B2F0004FF6FF729145A9D04FEAD91006EBC00076
:10B3000009F07F01446814EBC100A0D00379402B01
:10B310009CD134F83100904298D0C10906EBC101AC
:10B3200000F07F034868E96C10EBC3008ED0C3883F
:10B3300091B3154602E00139C3882DD0DA09AB423A
:10B3400006EBC20203F07F0480D0506810EBC4000B
:10B35000F1D17BE7184600921C462AF078FB009A50
:10B360005045A8D1BAF1000FC2D0631E501E10F88C
:10B3700001CF13F8014FA4459DD18045F7D1B7E720
:10B380001C68E0880834EBE71C685CB1204600923A
:10B390002AF05DFB009AE3E70199FFF7CDF80FB0C3
:10B3A000BDE8F08F2046DBE770B500F110030546DD
:10B3B00093E8070086B0AB68EE6803AC84E807004A
:10B3C0009BB10096184694E80E00FFF769FB1C3508
:10B3D000034695E8070084E8070033B10096184655
:10B3E00094E80E00FFF75CFB0346184606B070BDFC
:10B3F0002DE9F047456A6B1C1F2B04460E46174685
:10B4000000F22781A91C60192222636202710120C7
:10B41000A26A0244A26257B306EB07084FF0000984
:10B4200004F1040A16F8017B9C4A222501E01579F3
:10B4300055B35179B94202F10202F8D15F1C1F2FB6
:10B4400000F2E1801A46023322445C216762012047
:10B450001171A26A1F2B1044A06200F2C680591C11
:10B460002744636201303D71A0624645DAD11F294D
:10B4700000F2E3802344222261621A71A36A012050
:10B480000344A362BDE8F0876FB15A1C1F2A3AD863
:10B49000991C1D4613466019636201250771A26A53
:10B4A0002A44A262E1E75A1C1F2A00F28E80E118AA
:10B4B0005C206262023308711F2B75D8A1187520B9
:10B4C00063625A1C08711F2A5DD8234430206262CF
:10B4D000511C18711F2945D8A318302061624A1CDD
:10B4E00018711F2A2DD8214430206262531C087124
:10B4F0001F2B17D8591C2244302063621071A26A96
:10B500000632A262B1E7234451461D71206820F043
:10B5100029FD20B9636A0BB1591CC0E71D46022101
:10B520000123B8E72244514682F80490206820F0B5
:10B5300019FD002874D1636A002B00F0A380591C08
:10B54000DDE76318514683F80490206820F00AFD77
:10B5500018B9626A0AB1531CCAE730232371012269
:10B560000223C7E72244514682F80490206820F065
:10B57000F9FC18B9616A09B14A1CB2E7302323719A
:10B5800002220121AFE72344514683F8049020684A
:10B5900020F0E8FC18B9626A0AB1511C9AE730231E
:10B5A00023710221012297E72244514682F8049038
:10B5B000206820F0D7FC18B9636A0BB15A1C82E7E7
:10B5C00075232371022201237FE7234451461F7113
:10B5D000206820F0C7FC18B9626A0AB1531C6BE7F7
:10B5E0005C2323710122022368E72744514687F830
:10B5F0000490206820F0B6FCD0B9D4E90930002BC3
:10B6000044D0591C30E72344514683F80490206805
:10B6100020F0A8FC40B9676A002F3BD07B1C18E7DC
:10B6200002210123002266E70223012700220BE703
:10B63000A06A02210123002712E7234400252146A6
:10B640001D7151F8040B20F08DFC98B12B4601219F
:10B6500010E7284421460025057151F8040B20F01D
:10B6600081FC20B9636A0BB1591CD1E61D46022149
:10B670000123C8E6636A002BE9D0A36A0344A362EE
:10B68000BDE8F0871A460221012334E71F46022154
:10B690000123E5E63A4602230127D5E6FC800500B2
:10B6A0002DE9F04F437D85B00446002B00F0058165
:10B6B000057DDFF830B30022134662750092CBB1EE
:10B6C000267D0023AE4263751DD0002E00F0F18070
:10B6D0005C2E20D067686FB1A168FB88994200F0AA
:10B6E000B8800F440131A1603E72637DE7E7C2F389
:10B6F0000903009323695A1C22611E7826750023D2
:10B70000AE426375E1D16368002B14BF00200420B2
:10B7100005B0BDE8F08F2269511C216111782175B7
:10B7200001206075002900F0C480752910D0AB4A53
:10B730002F2304E012F8023F002B00F0B68099425C
:10B74000F8D15678002E00F0B08000236375C1E771
:10B75000911C63752161537823756075002B00F08F
:10B76000A880402B86BF23F02003A3F13701A3F16B
:10B770003001C8B20F2800F298800021D31C6175F7
:10B7800023619178217501236375002900F0918070
:10B79000402986BF21F0200137393039C9B20F293D
:10B7A00000F283800026131D66752361D37823750C
:10B7B000012641EA00116675002B7AD0402B86BF26
:10B7C00023F02003373B303BDBB20F2B6DD800203A
:10B7D0006075501D20611279227543EA0113012121
:10B7E0001BB26175002A64D0402A86BF22F0200275
:10B7F000373A303AD2B20F2A57D842EA03139AB2F4
:10B8000002F5205189B20020B1F5806F1BB260753E
:10B81000FFF46DAF02F5105189B2B1F5806F56D3C8
:10B820007F2A40F2A88003F03F0363F07F03B2F564
:10B83000006F8DF809308DF808004FEA921380F000
:10B84000B38063F03F03DFB28DF80A700DF10B088F
:10B8500060E0D4F800A04900DAF8009001F1010896
:10B86000B8F5803FD9F8003012D29B685C4A934209
:10B8700001F10A0140F0938038462AF071F828B1AE
:10B88000A0F80680A168606007462AE7D9F8003072
:10B890005B685B4517D1384620F05CFC01238AF8D1
:10B8A00004300022637D626009E7032005B0BDE833
:10B8B000F08F022005B0BDE8F08F03695A1C0261C9
:10B8C0001D780575F5E6394648469847E6E7C2F320
:10B8D0000903009A8DF8080043EA822303F58032B9
:10B8E000C2F30531C2F3874242F0F00703F03F0292
:10B8F000C3F3851361F07F0162F07F0263F07F0381
:10B900008DF80B108DF80C708DF809208DF80A3029
:10B910000DF10D0808F1FF3808E01E440133A36063
:10B92000377218F8017D002F3FF4DFAE6668002EF5
:10B93000F7D0A368F2889342EFD15A00D4F800A060
:10B9400002F10109B9F5803FDAF8003019D219681F
:10B95000886802F10A01224A9042844636D1304674
:10B96000019329F0FDFF019B58B1A0F80690A36850
:10B9700060600646D1E7D9B22046FCF76DF8637DDA
:10B980009DE61A6852685A451CD1304620F0E2FB09
:10B9900000234FF001028AF804206360C1E70A46E1
:10B9A0004846394698476AE703F03F029B1162F028
:10B9B0007F0243F0E0078DF80A208DF80B700DF13F
:10B9C0000C08A7E7314618469047E1E70A461846B3
:10B9D0000193314663469847019BC5E7FC8005000B
:10B9E0005D750200657502002DE9F047427D86B065
:10B9F00004460D46002A76D0027D202A12D8DFE8C0
:10BA000002F07A11111111111111117070111170D0
:10BA10001111111111111111111111111111111116
:10BA20001111700001217B2A217300F206815A2A2C
:10BA300042D9A2F15B01202900F2FF80DFE811F07A
:10BA40007100FD00FD00FD00FD00FD00FD00FD009A
:10BA5000FD00FD00FD00C300FD00FD00FD00FD0038
:10BA6000FD00FD00FD002100FD00FD00FD00FD00CA
:10BA7000FD00E000FD00FD00FD00FD00FD00FD00FB
:10BA80006400BC491346002001259A4240F02881F9
:10BA900011F8012F6075002A00F01C8123695E1CDB
:10BAA00026611B7823756575002BEED14FF00208D7
:10BAB000404606B0BDE8F087222A02D0272A40F08F
:10BAC000BC8063680022A260002B00F00C8120463D
:10BAD000FFF7E6FD804698B929462046FBF724FF8C
:10BAE0000EE0002262752269511C216112782275D4
:10BAF0000121617581E7237B002BD7D14FF001082D
:10BB0000404606B0BDE8F08720214FF0FF32297192
:10BB10002A60204629464FF0000200F083F9804653
:10BB2000EEE7DEB240224FF0FF332A712B60002E89
:10BB300000F00E81002363752046FEF785FF8046E6
:10BB40000028DDD1637D002B00F00581237D5D2B76
:10BB500036D0013E4FF6FF774FF00109D4F818A018
:10BB600002A85146FBF702FD0299002900F054811A
:10BB70006B88BDF80C20BB4200F00B81DAF82C007A
:10BB80004FEAD31C00EBCC0003F07F03406800EBCE
:10BB9000C303DA806A8033464FF000022046FFF785
:10BBA00023FF0028BBD12046FEF74EFF0028B6D168
:10BBB000637D002B00F0F480237D5D2B40F0D3806B
:10BBC000002363759CE700232B70637D0621297198
:10BBD000002B00F0CD80237D6749002B3FF466AF3A
:10BBE0009A427DD111F8012F00236375002A71D08C
:10BBF0002369581C20611B78237501206075ECE7D0
:10BC000001232B70637D06212971002B00F0BC807D
:10BC1000237D5A49002B3FF449AF934260D111F87C
:10BC2000012F00236375002A54D02369581C20611A
:10BC30001B78237501206075ECE700239E4604F114
:10BC40001B014FF0010C15E0392A03D902F0DF0087
:10BC5000452817D13F2B03F1010013D084F815E0DC
:10BC600001F8012F2269C3B2501C2061127822759D
:10BC700084F815C02F2AE7D82B2AA2F12D00E9D08D
:10BC80000128E7D9234400221A7704F11C0102A8F5
:10BC9000FBF79CFF9DF8088008F1FF33032B1FD8AA
:10BCA000DFE803F03E453202DDE9046739463046FD
:10BCB00028F0FAFC824628F0CFFB02460B463046BD
:10BCC000394628F077FC8146002871D00E23C5F84C
:10BCD00000A02B714FF00008404606B0BDE8F08789
:10BCE0004FF003080CE72668254A306803681B6894
:10BCF000934240F08E80282020F012FA002845D090
:10BD0000204B43606060E2E6DDE90467012F08BF75
:10BD1000002E5ED20A232E602B714FF00008EFE652
:10BD2000049A2A600E232B714FF00008E8E6DDE943
:10BD3000049A19F100464AF10007012F08BF002EAE
:10BD400057D20C23C5F800902B714FF00008D7E6AE
:10BD50004FF00508D4E623695A1C22611B7823752D
:10BD600001226275F3E62C2BBAD100236375F5E648
:10BD700001493DE72081050018810500108105007B
:10BD80005575020001001F0025494EE7012333715C
:10BD9000B8E7002362F30F0362F31F432B60FAE658
:10BDA00023695A1C22611B78237584F8159004E7D7
:10BDB000A1696846FBF7BEFC009B002B3FF4A0AED8
:10BDC000BDF804202A801E212971C846C3E90067F6
:10BDD00096E6A1696846FBF7ADFC009BE3B1BDF8B0
:10BDE00004202A801A2129714FF00008C3E9006756
:10BDF00086E6A1696846FBF79DFC009B63B1BDF830
:10BE000004202A801C2129714FF00008C3E9009A00
:10BE100076E62821984771E74FF0040870E600BFE6
:10BE2000108105002DE9F04FDFB289B0002F4AD014
:10BE300000220369427504468A46012011461A46CB
:10BE400001332361127822756075202A12D8DFE849
:10BE500002F0321111111111111111303011113084
:10BE600011111111111111111111111111111111C2
:10BE70001111300001237D2A23735AD00197636882
:10BE80000022A260002B00F0B380637D002B55D010
:10BE9000217D27295BD0222959D02F2900F2098141
:10BEA000A1F14103192B40F20C81032009B0BDE838
:10BEB000F08F6175C3E7237B002B40F03E810120AA
:10BEC00009B0BDE8F08F052009B0BDE8F08F1B6810
:10BED000002B40F01A81002D40F0C3804FF6FF7315
:10BEE0009E4200F04C81F3090BEBC30B06F07F067A
:10BEF000DBF8043013EBC60600F0418149463046BA
:10BF0000FBF7F4FD019B3146013B4FF00002204658
:10BF1000FFF76AFD0028D3D12046FEF795FD0028E3
:10BF2000CED1637D002B00F02281237D7D2B40F05C
:10BF3000DF800020607509B0BDE8F08F23695A1CCE
:10BF4000226119782175012327296375A3D1204621
:10BF5000FFF7A6FB0028B3D1637D002B00F0A18082
:10BF6000237D202B56D801A252F823F0B7BE020041
:10BF700015C0020015C0020015C0020015C0020065
:10BF800015C0020015C0020015C0020015C0020055
:10BF90009DC002009DC0020015C0020015C0020035
:10BFA0009DC0020015C0020015C0020015C00200AD
:10BFB00015C0020015C0020015C0020015C0020025
:10BFC00015C0020015C0020015C0020015C0020015
:10BFD00015C0020015C0020015C0020015C0020005
:10BFE00015C0020015C0020015C002009DC002006D
:10BFF00025687E4A286803681B68934240F0EA80FF
:10C00000282020F08DF8002800F0A780784B4360AE
:10C0100060603AE701273A2B27737FF446AFD4E9F3
:10C02000013213444FF0000161751972BAF8003003
:10C03000D4F818904FF6FF78434500F0A080D9F867
:10C040002CB0DA090BEBC20203F07F05536813EB47
:10C05000C50300F0948062680292A268DE881546EB
:10C060008FB9464500F08B80F1090BEBC10106F05A
:10C070007F024B6813EBC20300F0818087F0010759
:10C08000DE88002FEDD0197904293FF420AF05296F
:10C0900057D0022939D0002DE3D11FE74FF000031C
:10C0A000637523695A1C22611B782375012262750E
:10C0B00057E7392905D95E297FF6F2AE7A293FF68E
:10C0C000F4AE01254FF0000363752046FBF7C4FC76
:10C0D000637D002B44D0217D2F29A1F1410335D868
:10C0E000192BEFD96368002B7FF43AAF0420E7E601
:10C0F0002C2B7FF4DAAE4FF0000363752046FEF779
:10C10000A3FC00283FF4BBAEDAE61846039329F0FF
:10C110009EFC039B8542A4D1002D3FF4DFAE029A22
:10C12000D11D581E01EB050E11F8012F10F8013F2B
:10C130009A4296D18E45F7D1D0E6022009B0BDE8EB
:10C14000F08F1968C88801F10803E3E73929B9D9E4
:10C150005E29C5D97A29B5D9C4E701232B7157E7E0
:10C1600023695A1C2261197821756575B4E7236922
:10C170005A1C22611B78237501226275D6E6494656
:10C1800004A8FBF7F3F9049D002DAFD0494606A89B
:10C19000FBF7ECF9069E002EA8D0BDF81C20EA8023
:10C1A000BAF80230BDF814004FF6FF77BB4217D043
:10C1B000D9F82C10DF0901EBC70103F07F034968B0
:10C1C00001EBC303D880AAF8022029462046FBF7DA
:10C1D000ABFB97E62821984700287FF417AFBCE710
:10C1E000AAF80000AAF80220EFE700BF5575020088
:10C1F00001001F002DE9F04F038E9BB00746044657
:10C2000057F80CBBADF80420884600F1380903B399
:10C210000026C36AB2460BE01FF09CFFE36AC5F834
:10C2200000A0208EC5F804A00136B1B2884211D911
:10C23000B5B203EBC505696808460029EFD0DBF805
:10C240000030564A5B689342E6D058469847E36A06
:10C25000E5E7C36A00204FF6FF719F422086A18662
:10C260000CD0DBF800104D4D4E68AE4240F0888097
:10C2700018461FF06FFF0423E7626386A1682668F3
:10C280000023237161B1454D33680A685B68A26081
:10C29000AB42084662D11FF05DFFA1680029F3D1CF
:10C2A000002584F83C509DF805308DF8185049461B
:10C2B0004FF0000203A8CDE904558DF821500394F6
:10C2C000CDF81C800994FFF78FFB054618B99DF83F
:10C2D0002050002D48D1049840B1039B2F491A6883
:10C2E00013685B688B424FD11FF034FF268ED4F861
:10C2F0000080DEB1D4F82CA0D8F80030284A9B6822
:10C3000006F10056013E0AEBC6099342B9F8021045
:10C31000D9F804004FEAC1012DD129F021FB28B141
:10C32000B9F80230C9F804002AF83630E06A8742CA
:10C3300010D0218E638E8B420CD0D8F80030184A72
:10C340009B6893424FEAC10122D129F009FB238E59
:10C35000E062638628461BB0BDE8F08F3046984700
:10C36000A168002990D19BE794F83C5015F008058E
:10C3700018BF0325AFE70A46014640469847CEE777
:10C3800019465846B04776E7014610469847ADE74C
:10C390000A46014640469847D9E700BF6575020046
:10C3A0005D750200000000002DE9F04F57EC106BA6
:10C3B00089B00446894610EE100A0022002339464F
:10C3C00028F0F8F8002845D132463B460546394664
:10C3D000304627F0E3FE02460B463046394628F049
:10C3E000E9F830B3626A531C1F2B00F2EF8222443B
:10C3F0006E21636211715A1C1F2A00F2D5822344F8
:10C40000752162621971551C1F2D00F2BF822244F2
:10C410006C21656211716A1C1F2A00F2AA826319DD
:10C420006C2162621971A36A0433A36209B0BDE88A
:10C43000F08F002200233046394628F0C5F848B175
:10C440002D212046FBF754FAA36A07F1004B18444C
:10C450005F46A0624B460125B9F1000F05D005EB00
:10C460008505013B4FEA4505F9D10FF20843D3E9B1
:10C4700000233046394628F0BBF8002800F0FA8047
:10C48000FEA3D3E900233046394628F0B1F800284E
:10C4900040F032838246FBA3D3E90023304639467D
:10C4A00028F0A6F8002840F01983F8A3D3E9002368
:10C4B0003046394628F09CF8002840F00183F5A367
:10C4C000D3E900233046394628F092F8002840F09E
:10C4D000E982F2A3D3E900233046394628F088F8F0
:10C4E000002840F0D182EFA3D3E90023304639463B
:10C4F00028F07EF8002840F0B982ECA3D3E90023AD
:10C500003046394628F074F8002840F0A182D44B18
:10C5100000223046394628F06BF8002840F08A8225
:10C52000D04B00223046394628F062F8002840F00F
:10C5300073823046394628F097F80928804610D98A
:10C54000C9490346A1FB05251A4609F1FF39A1FB9C
:10C550000303632A4FEAD5054FFA89F94FEAD3035B
:10C56000F0D8404627F056FF02460B463046394683
:10C5700027F012FE064628460F4627F04BFF0246DC
:10C580000B46304639462BF001FB06460F4628F095
:10C590006BF8834627F03EFF02460B46304639468D
:10C5A00027F0FAFD02460B4627F0F8FD28F05CF86C
:10C5B0000BEB0006AE42C0F0BF8108F10108BAF1F2
:10C5C000000F40F0CB810026B9F1000F13DDA64B20
:10C5D000A64802E0002A00F0BB81A3FB0626F6086D
:10C5E00003FB06F109F1FF39B0EB710F5FFA89F235
:10C5F0004FFA89F9EED20DF11E0B9B495D46A1FB66
:10C600000832D20802EB8203A8EB430340463033E2
:10C6100009282F46904605F8013DF0D8BBEB0508E8
:10C6200000F0A680013D05EB0803211D606A009320
:10C63000023F01960D4609E004EB000C62621046D1
:10C640008CF80460009BBB4200F09180421C1F2AC2
:10C6500017F8016FF0D920444FF0000303712068F0
:10C6600029461FF07FFC00287ED1606A0028E9D1AE
:10C670000122E1E7002200233046394627F0C2FFBD
:10C6800000286FD064A3D3E900233046394627F051
:10C69000A5FF002866D062A3D3E9002330463946BF
:10C6A00027F092FF002840F0DB8282465EA3D3E9A8
:10C6B00000233046394627F087FF002840F0C28229
:10C6C0005BA3D3E900233046394627F07DFF0028DD
:10C6D00040F0AA8258A3D3E900233046394627F018
:10C6E00073FF002840F0928255A3D3E9002330461F
:10C6F000394627F069FF002840F0438252A3D3E96E
:10C7000000233046394627F05FFF002840F02B8297
:10C710004FA3D3E900233046394627F055FF0028C0
:10C7200040F013824CA3D3E900233046394627F06A
:10C730004BFF002840F0FC814D4B0022304639462B
:10C7400027F042FF00283FF4F4AE30463946454B0F
:10C7500000222BF01BFA0AF1FF3A06460F460FFAA9
:10C760008AFAE6E68246E4E60122002064E7019EBA
:10C77000A26A08EB0203A362B9F1000F40F09A80AD
:10C78000BAF1000F3FF452AE65212046FBF7B0F836
:10C79000A66ABAF1000F0644A662C0F228811FFA09
:10C7A0008AFA314F5946A7FB0A32D20802EB8203BC
:10C7B000AAEB43035046303309280D461FFA82FA8C
:10C7C00001F8013DEFD8BBEB010B00F020810139EE
:10C7D000636A01EB0B06023D002704F1040907E040
:10C7E000E0186262134680F80480B54200F00E81C2
:10C7F0005A1C1F2A15F8018FF2D9234449461F718C
:10C8000020681FF0AFFB002840F0FD80636A002B1A
:10C81000EBD10122E4E700BFF168E388B5F8E43E1C
:10C82000148BD77DB207FE0AC2DEB781455491252D
:10C830000CD13196FC53DA3280688965D63980395B
:10C840001656E79EAF03D23C48AFBC9AF2D77A3E69
:10C85000FCA9F1D24D62503F9A9999999999B93FA3
:10C860000000594000002440CDCCCCCC99999919B6
:10C870000000F03F00000000D01263413CBF737F16
:10C88000DD4F1575321D30F94877825AF5F93FE9C9
:10C89000034F384D176E05B5B5B893460080E037A5
:10C8A00079C341430000000084D797410000000095
:10C8B0000088C34009F1FF395FFA89F908ABA3EB9F
:10C8C000090106AFCE4D09393A46A5FB0603DB0840
:10C8D00003EB8300A6EB4006303602F8016D8A4276
:10C8E0001E46F2D108ABA3EB0902A7EB09072E21E4
:10C8F000033F09F1020902F80A1C636A07EB090504
:10C900000026211D06E0E0186262134680F80480CC
:10C91000BD421FD05A1C1F2A17F8018FF3D9234498
:10C9200000911E7120681FF01DFB009968B9636AB1
:10C93000002BEDD10122E6E7B14BB24A03FB06F32F
:10C94000B2EB730FBFF440AE55E601220023DAE7E5
:10C95000914650E6A36A4B44A36211E7B8F1090F70
:10C960007FF631AE0AF1010A0FFA8AFA4FF0010898
:10C9700029E66319214600251D7151F8040B1FF0AB
:10C98000F1FA002800F0CF80012248E5224400257A
:10C990002146157151F8040B1FF0E4FA002800F04D
:10C9A000BD802A46012532E52344002521461D711C
:10C9B00051F8040B1FF0D6FA002840F0AC80626AF0
:10C9C000002A7FF420AD1346012218E522442146B7
:10C9D000157151F8040B1FF0C5FA002840F098803B
:10C9E000636A002B7FF407AD1A460123FFE42D2173
:10C9F0002046FAF77DFFA66ACAF1000A06441FFA2C
:10CA00008AFAA662CDE601220023E9E6A66A5E4420
:10CA1000A66209B0BDE8F08F3046394660A3D3E97D
:10CA200000232BF0B3F80AF1010A06460F460FFA6D
:10CA30008AFA7EE5304639465BA3D3E900232BF022
:10CA4000A5F80AF1020A06460F460FFA8AFA67E5C8
:10CA50003046394656A3D3E900232BF097F80AF164
:10CA6000040A06460F460FFA8AFA50E53046394660
:10CA700051A3D3E900232BF089F80AF1080A0646EE
:10CA80000F460FFA8AFA38E5304639464CA3D3E907
:10CA900000232BF07BF80AF1100A06460F460FFA26
:10CAA0008AFA20E53046394647A3D3E900232BF024
:10CAB0006DF80AF1200A06460F460FFA8AFA08E5D1
:10CAC0003046394642A3D3E900232BF05FF80AF140
:10CAD000400A06460F460FFA8AFAF0E43046394615
